{
  "contractName": "DestroyStore",
  "abi": [
    {
      "constant": false,
      "inputs": [
        {
          "name": "_description",
          "type": "bytes30"
        },
        {
          "name": "_quantity",
          "type": "uint16"
        },
        {
          "name": "_price",
          "type": "uint256"
        }
      ],
      "name": "addProduct",
      "outputs": [],
      "payable": false,
      "stateMutability": "nonpayable",
      "type": "function"
    },
    {
      "constant": false,
      "inputs": [
        {
          "name": "_productIndex",
          "type": "uint16"
        },
        {
          "name": "_quantity",
          "type": "uint16"
        }
      ],
      "name": "buy",
      "outputs": [],
      "payable": true,
      "stateMutability": "payable",
      "type": "function"
    },
    {
      "constant": false,
      "inputs": [
        {
          "name": "_ownerCandidate",
          "type": "address"
        },
        {
          "name": "_storeIndex",
          "type": "uint256"
        }
      ],
      "name": "requestOwnershipTransfer",
      "outputs": [],
      "payable": false,
      "stateMutability": "nonpayable",
      "type": "function"
    },
    {
      "constant": false,
      "inputs": [],
      "name": "unpause",
      "outputs": [],
      "payable": false,
      "stateMutability": "nonpayable",
      "type": "function"
    },
    {
      "constant": false,
      "inputs": [
        {
          "name": "_productIndex",
          "type": "uint16"
        },
        {
          "name": "_increasement",
          "type": "uint16"
        }
      ],
      "name": "increaseQuantity",
      "outputs": [],
      "payable": false,
      "stateMutability": "nonpayable",
      "type": "function"
    },
    {
      "constant": true,
      "inputs": [],
      "name": "marketplaceBalance",
      "outputs": [
        {
          "name": "",
          "type": "uint256"
        }
      ],
      "payable": false,
      "stateMutability": "view",
      "type": "function"
    },
    {
      "constant": true,
      "inputs": [],
      "name": "paused",
      "outputs": [
        {
          "name": "",
          "type": "bool"
        }
      ],
      "payable": false,
      "stateMutability": "view",
      "type": "function"
    },
    {
      "constant": true,
      "inputs": [],
      "name": "ownerCandidate",
      "outputs": [
        {
          "name": "",
          "type": "address"
        }
      ],
      "payable": false,
      "stateMutability": "view",
      "type": "function"
    },
    {
      "constant": false,
      "inputs": [
        {
          "name": "_storefrontIndex",
          "type": "uint8"
        },
        {
          "name": "_productIndex",
          "type": "uint16"
        }
      ],
      "name": "setStorefront",
      "outputs": [],
      "payable": false,
      "stateMutability": "nonpayable",
      "type": "function"
    },
    {
      "constant": false,
      "inputs": [
        {
          "name": "_productIndex",
          "type": "uint16"
        },
        {
          "name": "_description",
          "type": "bytes30"
        },
        {
          "name": "_quantity",
          "type": "uint16"
        },
        {
          "name": "_price",
          "type": "uint256"
        }
      ],
      "name": "updateProduct",
      "outputs": [],
      "payable": false,
      "stateMutability": "nonpayable",
      "type": "function"
    },
    {
      "constant": true,
      "inputs": [
        {
          "name": "",
          "type": "uint256"
        }
      ],
      "name": "products",
      "outputs": [
        {
          "name": "description",
          "type": "bytes30"
        },
        {
          "name": "quantity",
          "type": "uint16"
        },
        {
          "name": "price",
          "type": "uint256"
        }
      ],
      "payable": false,
      "stateMutability": "view",
      "type": "function"
    },
    {
      "constant": false,
      "inputs": [],
      "name": "pause",
      "outputs": [],
      "payable": false,
      "stateMutability": "nonpayable",
      "type": "function"
    },
    {
      "constant": true,
      "inputs": [],
      "name": "MAX_STORE_PRODUCTS",
      "outputs": [
        {
          "name": "",
          "type": "uint24"
        }
      ],
      "payable": false,
      "stateMutability": "view",
      "type": "function"
    },
    {
      "constant": true,
      "inputs": [],
      "name": "owner",
      "outputs": [
        {
          "name": "",
          "type": "address"
        }
      ],
      "payable": false,
      "stateMutability": "view",
      "type": "function"
    },
    {
      "constant": true,
      "inputs": [],
      "name": "marketplace",
      "outputs": [
        {
          "name": "",
          "type": "address"
        }
      ],
      "payable": false,
      "stateMutability": "view",
      "type": "function"
    },
    {
      "constant": false,
      "inputs": [
        {
          "name": "_newStoreIndex",
          "type": "uint16"
        }
      ],
      "name": "approveOwnershipTransfer",
      "outputs": [],
      "payable": false,
      "stateMutability": "nonpayable",
      "type": "function"
    },
    {
      "constant": true,
      "inputs": [],
      "name": "storeIndex",
      "outputs": [
        {
          "name": "",
          "type": "uint256"
        }
      ],
      "payable": false,
      "stateMutability": "view",
      "type": "function"
    },
    {
      "constant": false,
      "inputs": [
        {
          "name": "_productIndex",
          "type": "uint16"
        },
        {
          "name": "_newPrice",
          "type": "uint256"
        }
      ],
      "name": "setPrice",
      "outputs": [],
      "payable": false,
      "stateMutability": "nonpayable",
      "type": "function"
    },
    {
      "constant": false,
      "inputs": [
        {
          "name": "_productIndex",
          "type": "uint16"
        }
      ],
      "name": "removeProduct",
      "outputs": [],
      "payable": false,
      "stateMutability": "nonpayable",
      "type": "function"
    },
    {
      "constant": true,
      "inputs": [],
      "name": "MARKETPLACE_TAX_DENOMINATOR",
      "outputs": [
        {
          "name": "",
          "type": "uint24"
        }
      ],
      "payable": false,
      "stateMutability": "view",
      "type": "function"
    },
    {
      "constant": false,
      "inputs": [
        {
          "name": "_recipient",
          "type": "address"
        },
        {
          "name": "_amount",
          "type": "uint256"
        }
      ],
      "name": "ownerWithdraw",
      "outputs": [],
      "payable": false,
      "stateMutability": "nonpayable",
      "type": "function"
    },
    {
      "constant": false,
      "inputs": [
        {
          "name": "_amount",
          "type": "uint256"
        }
      ],
      "name": "marketplaceWithdraw",
      "outputs": [],
      "payable": false,
      "stateMutability": "nonpayable",
      "type": "function"
    },
    {
      "constant": true,
      "inputs": [
        {
          "name": "",
          "type": "uint256"
        }
      ],
      "name": "storefront",
      "outputs": [
        {
          "name": "",
          "type": "uint16"
        }
      ],
      "payable": false,
      "stateMutability": "view",
      "type": "function"
    },
    {
      "constant": false,
      "inputs": [
        {
          "name": "_productIndex",
          "type": "uint16"
        },
        {
          "name": "_decreasement",
          "type": "uint16"
        }
      ],
      "name": "decreaseQuantity",
      "outputs": [],
      "payable": false,
      "stateMutability": "nonpayable",
      "type": "function"
    },
    {
      "inputs": [
        {
          "name": "_owner",
          "type": "address"
        }
      ],
      "payable": false,
      "stateMutability": "nonpayable",
      "type": "constructor"
    },
    {
      "payable": true,
      "stateMutability": "payable",
      "type": "fallback"
    },
    {
      "anonymous": false,
      "inputs": [
        {
          "indexed": false,
          "name": "index",
          "type": "uint256"
        },
        {
          "indexed": false,
          "name": "description",
          "type": "bytes30"
        }
      ],
      "name": "LogProductAdded",
      "type": "event"
    },
    {
      "anonymous": false,
      "inputs": [
        {
          "indexed": false,
          "name": "index",
          "type": "uint256"
        },
        {
          "indexed": false,
          "name": "description",
          "type": "bytes30"
        },
        {
          "indexed": false,
          "name": "quantity",
          "type": "uint16"
        },
        {
          "indexed": false,
          "name": "price",
          "type": "uint256"
        }
      ],
      "name": "LogProductUpdated",
      "type": "event"
    },
    {
      "anonymous": false,
      "inputs": [
        {
          "indexed": false,
          "name": "index",
          "type": "uint256"
        }
      ],
      "name": "LogProductRemoved",
      "type": "event"
    },
    {
      "anonymous": false,
      "inputs": [
        {
          "indexed": false,
          "name": "index",
          "type": "uint256"
        },
        {
          "indexed": false,
          "name": "newPrice",
          "type": "uint256"
        }
      ],
      "name": "LogProductPriceSet",
      "type": "event"
    },
    {
      "anonymous": false,
      "inputs": [
        {
          "indexed": false,
          "name": "to",
          "type": "address"
        },
        {
          "indexed": false,
          "name": "amount",
          "type": "uint256"
        }
      ],
      "name": "LogOwnerWithdrawal",
      "type": "event"
    },
    {
      "anonymous": false,
      "inputs": [
        {
          "indexed": false,
          "name": "index",
          "type": "uint256"
        },
        {
          "indexed": false,
          "name": "quantitySold",
          "type": "uint256"
        },
        {
          "indexed": false,
          "name": "salePrice",
          "type": "uint256"
        }
      ],
      "name": "LogPurchase",
      "type": "event"
    },
    {
      "anonymous": false,
      "inputs": [
        {
          "indexed": false,
          "name": "amount",
          "type": "uint256"
        }
      ],
      "name": "LogMarketplaceWithdrawal",
      "type": "event"
    },
    {
      "anonymous": false,
      "inputs": [],
      "name": "LogPause",
      "type": "event"
    },
    {
      "anonymous": false,
      "inputs": [],
      "name": "LogUnpause",
      "type": "event"
    },
    {
      "anonymous": false,
      "inputs": [
        {
          "indexed": true,
          "name": "currentOwner",
          "type": "address"
        },
        {
          "indexed": true,
          "name": "ownerCandidate",
          "type": "address"
        },
        {
          "indexed": false,
          "name": "storeIndex",
          "type": "uint256"
        }
      ],
      "name": "LogOwnershipTransferRequested",
      "type": "event"
    },
    {
      "anonymous": false,
      "inputs": [
        {
          "indexed": true,
          "name": "previousOwner",
          "type": "address"
        },
        {
          "indexed": true,
          "name": "newOwner",
          "type": "address"
        }
      ],
      "name": "LogOwnershipTransferred",
      "type": "event"
    },
    {
      "constant": false,
      "inputs": [],
      "name": "destroy",
      "outputs": [],
      "payable": false,
      "stateMutability": "nonpayable",
      "type": "function"
    }
  ],
  "bytecode": "0x60806040526000600460006101000a81548160ff02191690831515021790555034801561002b57600080fd5b5060405160208061304f8339810180604052810190808051906020019092919050505080600073ffffffffffffffffffffffffffffffffffffffff168173ffffffffffffffffffffffffffffffffffffffff16141515156100f4576040517f08c379a00000000000000000000000000000000000000000000000000000000081526004018080602001828103825260178152602001807f53686f70206f776e6572206d757374206265207365742100000000000000000081525060200191505060405180910390fd5b806000806101000a81548173ffffffffffffffffffffffffffffffffffffffff021916908373ffffffffffffffffffffffffffffffffffffffff16021790555033600160006101000a81548173ffffffffffffffffffffffffffffffffffffffff021916908373ffffffffffffffffffffffffffffffffffffffff1602179055505050612ec9806101866000396000f300608060405260043610610149576000357c0100000000000000000000000000000000000000000000000000000000900463ffffffff1680630a843d451461014b5780630d6c6230146101955780632236ab5a146101c75780633f4ba83a146102145780634909bfc81461022b5780635030025a1461026a5780635c975abb146102955780635f504a82146102c45780636290d8a31461031b5780636d2fe78d146103595780637acc0b20146103b157806383197ef0146104125780638456cb5914610429578063864cb90f146104405780638da5cb5b14610475578063abc8c7af146104cc578063b21252b714610523578063baa66e6414610554578063bbc2986c1461057f578063c0d7c3ec146105ba578063c0f21a20146105eb578063d9c88e1414610620578063dd72ed461461066d578063f1f5e4691461069a578063fce5e67f146106e3575b005b34801561015757600080fd5b50610193600480360381019080803561ffff19169060200190929190803561ffff16906020019092919080359060200190929190505050610722565b005b6101c5600480360381019080803561ffff169060200190929190803561ffff169060200190929190505050610a2d565b005b3480156101d357600080fd5b50610212600480360381019080803573ffffffffffffffffffffffffffffffffffffffff16906020019092919080359060200190929190505050610db6565b005b34801561022057600080fd5b50610229610f4c565b005b34801561023757600080fd5b50610268600480360381019080803561ffff169060200190929190803561ffff169060200190929190505050611059565b005b34801561027657600080fd5b5061027f6112cc565b6040518082815260200191505060405180910390f35b3480156102a157600080fd5b506102aa6112d2565b604051808215151515815260200191505060405180910390f35b3480156102d057600080fd5b506102d96112e5565b604051808273ffffffffffffffffffffffffffffffffffffffff1673ffffffffffffffffffffffffffffffffffffffff16815260200191505060405180910390f35b34801561032757600080fd5b50610357600480360381019080803560ff169060200190929190803561ffff16906020019092919050505061130b565b005b34801561036557600080fd5b506103af600480360381019080803561ffff169060200190929190803561ffff19169060200190929190803561ffff16906020019092919080359060200190929190505050611508565b005b3480156103bd57600080fd5b506103dc600480360381019080803590602001909291905050506117f5565b604051808461ffff191661ffff191681526020018361ffff1661ffff168152602001828152602001935050505060405180910390f35b34801561041e57600080fd5b5061042761184b565b005b34801561043557600080fd5b5061043e611a32565b005b34801561044c57600080fd5b50610455611b3f565b604051808262ffffff1662ffffff16815260200191505060405180910390f35b34801561048157600080fd5b5061048a611b46565b604051808273ffffffffffffffffffffffffffffffffffffffff1673ffffffffffffffffffffffffffffffffffffffff16815260200191505060405180910390f35b3480156104d857600080fd5b506104e1611b6b565b604051808273ffffffffffffffffffffffffffffffffffffffff1673ffffffffffffffffffffffffffffffffffffffff16815260200191505060405180910390f35b34801561052f57600080fd5b50610552600480360381019080803561ffff169060200190929190505050611b91565b005b34801561056057600080fd5b50610569611ef2565b6040518082815260200191505060405180910390f35b34801561058b57600080fd5b506105b8600480360381019080803561ffff16906020019092919080359060200190929190505050611ef8565b005b3480156105c657600080fd5b506105e9600480360381019080803561ffff1690602001909291905050506120ae565b005b3480156105f757600080fd5b506106006122a4565b604051808262ffffff1662ffffff16815260200191505060405180910390f35b34801561062c57600080fd5b5061066b600480360381019080803573ffffffffffffffffffffffffffffffffffffffff169060200190929190803590602001909291905050506122ab565b005b34801561067957600080fd5b5061069860048036038101908080359060200190929190505050612635565b005b3480156106a657600080fd5b506106c56004803603810190808035906020019092919050505061291e565b604051808261ffff1661ffff16815260200191505060405180910390f35b3480156106ef57600080fd5b50610720600480360381019080803561ffff169060200190929190803561ffff16906020019092919050505061294b565b005b60008060009054906101000a900473ffffffffffffffffffffffffffffffffffffffff1673ffffffffffffffffffffffffffffffffffffffff163373ffffffffffffffffffffffffffffffffffffffff161415156107e8576040517f08c379a00000000000000000000000000000000000000000000000000000000081526004018080602001828103825260208152602001807f546865206d73672073656e646572206d75737420626520746865206f776e657281525060200191505060405180910390fd5b83600062010000028161ffff19161415151561086c576040517f08c379a000000000000000000000000000000000000000000000000000000000815260040180806020018281038252601d8152602001807f4465736372697074696f6e2063616e206e6f7420626520626c616e6b2100000081525060200191505060405180910390fd5b60068054905091506201000062ffffff16821115151561091a576040517f08c379a000000000000000000000000000000000000000000000000000000000815260040180806020018281038252602e8152602001807f596f75206861766520686974207468652070726f64756374732070657220737481526020017f6f7265206d6178206c696d69742100000000000000000000000000000000000081525060400191505060405180910390fd5b7f9f9f00d29958c136d278eabcaccac356ca158a40e1ee81da3e270624c2bdbd8b8286604051808381526020018261ffff191661ffff191681526020019250505060405180910390a160066060604051908101604052808761ffff191681526020018661ffff168152602001858152509080600181540180825580915050906001820390600052602060002090600202016000909192909190915060008201518160000160006101000a8154817dffffffffffffffffffffffffffffffffffffffffffffffffffffffffffff02191690836201000090040217905550602082015181600001601e6101000a81548161ffff021916908361ffff160217905550604082015181600101555050505050505050565b600460009054906101000a900460ff16151515610ab2576040517f08c379a00000000000000000000000000000000000000000000000000000000081526004018080602001828103825260208152602001807f54686520636f6e7472616374206d757374206e6f74206265207061757365642181525060200191505060405180910390fd5b816006805490508161ffff16101515610b33576040517f08c379a00000000000000000000000000000000000000000000000000000000081526004018080602001828103825260138152602001807f496e646578206f7574206f662072616e6765210000000000000000000000000081525060200191505060405180910390fd5b60008261ffff16111515610bd5576040517f08c379a00000000000000000000000000000000000000000000000000000000081526004018080602001828103825260238152602001807f5a65726f207175616e74697479207075726368617365206e6f7420616c6c6f7781526020017f656421000000000000000000000000000000000000000000000000000000000081525060400191505060405180910390fd5b610c108261ffff1660068561ffff16815481101515610bf057fe5b906000526020600020906002020160010154612bbe90919063ffffffff16565b3410151515610cad576040517f08c379a000000000000000000000000000000000000000000000000000000000815260040180806020018281038252602b8152602001807f596f7520686176652073656e7420696e73756666696369656e7420616d6f756e81526020017f74206f662066756e64732100000000000000000000000000000000000000000081525060400191505060405180910390fd5b7f791a6d42a06f5d184e3d463d1f346ae86e918a801860185dc59309991c323b4e838334604051808461ffff1681526020018361ffff168152602001828152602001935050505060405180910390a1610d458260068561ffff16815481101515610d1357fe5b9060005260206000209060020201600001601e9054906101000a900461ffff1661ffff16612c6590919063ffffffff16565b60068461ffff16815481101515610d5857fe5b9060005260206000209060020201600001601e6101000a81548161ffff021916908361ffff160217905550610dab620f424062ffffff1634811515610d9957fe5b04600554612cf790919063ffffffff16565b600581905550505050565b6000809054906101000a900473ffffffffffffffffffffffffffffffffffffffff1673ffffffffffffffffffffffffffffffffffffffff163373ffffffffffffffffffffffffffffffffffffffff16141515610e7a576040517f08c379a00000000000000000000000000000000000000000000000000000000081526004018080602001828103825260208152602001807f546865206d73672073656e646572206d75737420626520746865206f776e657281525060200191505060405180910390fd5b8173ffffffffffffffffffffffffffffffffffffffff166000809054906101000a900473ffffffffffffffffffffffffffffffffffffffff1673ffffffffffffffffffffffffffffffffffffffff167ff4872fb89759e1cbf4e640b0d9c91adaf6397241fa58a8023bb11177cbb67356836040518082815260200191505060405180910390a381600260006101000a81548173ffffffffffffffffffffffffffffffffffffffff021916908373ffffffffffffffffffffffffffffffffffffffff160217905550806003819055505050565b6000809054906101000a900473ffffffffffffffffffffffffffffffffffffffff1673ffffffffffffffffffffffffffffffffffffffff163373ffffffffffffffffffffffffffffffffffffffff16141515611010576040517f08c379a00000000000000000000000000000000000000000000000000000000081526004018080602001828103825260208152602001807f546865206d73672073656e646572206d75737420626520746865206f776e657281525060200191505060405180910390fd5b7f730c1faaa977b67dacf1e2451ef54556e04a07d577785ff79f6d31f73502efc960405160405180910390a16000600460006101000a81548160ff021916908315150217905550565b6000809054906101000a900473ffffffffffffffffffffffffffffffffffffffff1673ffffffffffffffffffffffffffffffffffffffff163373ffffffffffffffffffffffffffffffffffffffff1614151561111d576040517f08c379a00000000000000000000000000000000000000000000000000000000081526004018080602001828103825260208152602001807f546865206d73672073656e646572206d75737420626520746865206f776e657281525060200191505060405180910390fd5b816006805490508161ffff1610151561119e576040517f08c379a00000000000000000000000000000000000000000000000000000000081526004018080602001828103825260138152602001807f496e646578206f7574206f662072616e6765210000000000000000000000000081525060200191505060405180910390fd5b60008261ffff16111515611240576040517f08c379a00000000000000000000000000000000000000000000000000000000081526004018080602001828103825260248152602001807f496e6372656173656d656e74206d75737420626520677265617465722074686181526020017f6e2030210000000000000000000000000000000000000000000000000000000081525060400191505060405180910390fd5b6112898260068561ffff1681548110151561125757fe5b9060005260206000209060020201600001601e9054906101000a900461ffff1661ffff16612d8190919063ffffffff16565b60068461ffff1681548110151561129c57fe5b9060005260206000209060020201600001601e6101000a81548161ffff021916908361ffff160217905550505050565b60055481565b600460009054906101000a900460ff1681565b600260009054906101000a900473ffffffffffffffffffffffffffffffffffffffff1681565b6000809054906101000a900473ffffffffffffffffffffffffffffffffffffffff1673ffffffffffffffffffffffffffffffffffffffff163373ffffffffffffffffffffffffffffffffffffffff161415156113cf576040517f08c379a00000000000000000000000000000000000000000000000000000000081526004018080602001828103825260208152602001807f546865206d73672073656e646572206d75737420626520746865206f776e657281525060200191505060405180910390fd5b806006805490508161ffff16101515611450576040517f08c379a00000000000000000000000000000000000000000000000000000000081526004018080602001828103825260138152602001807f496e646578206f7574206f662072616e6765210000000000000000000000000081525060200191505060405180910390fd5b60108360ff161015156114cb576040517f08c379a000000000000000000000000000000000000000000000000000000000815260040180806020018281038252601e8152602001807f53746f726566726f6e7420696e646578206f7574206f662072616e676521000081525060200191505060405180910390fd5b8160078460ff166010811015156114de57fe5b601091828204019190066002026101000a81548161ffff021916908361ffff160217905550505050565b6000809054906101000a900473ffffffffffffffffffffffffffffffffffffffff1673ffffffffffffffffffffffffffffffffffffffff163373ffffffffffffffffffffffffffffffffffffffff161415156115cc576040517f08c379a00000000000000000000000000000000000000000000000000000000081526004018080602001828103825260208152602001807f546865206d73672073656e646572206d75737420626520746865206f776e657281525060200191505060405180910390fd5b836006805490508161ffff1610151561164d576040517f08c379a00000000000000000000000000000000000000000000000000000000081526004018080602001828103825260138152602001807f496e646578206f7574206f662072616e6765210000000000000000000000000081525060200191505060405180910390fd5b83600062010000028161ffff1916141515156116d1576040517f08c379a000000000000000000000000000000000000000000000000000000000815260040180806020018281038252601d8152602001807f4465736372697074696f6e2063616e206e6f7420626520626c616e6b2100000081525060200191505060405180910390fd5b7f1eeb8a3c5b322e3f21e429677cc878733a58dcb4f3183e1557b0555ba6349e8d86868686604051808561ffff1681526020018461ffff191661ffff191681526020018361ffff1661ffff16815260200182815260200194505050505060405180910390a16060604051908101604052808661ffff191681526020018561ffff1681526020018481525060068761ffff1681548110151561176e57fe5b906000526020600020906002020160008201518160000160006101000a8154817dffffffffffffffffffffffffffffffffffffffffffffffffffffffffffff02191690836201000090040217905550602082015181600001601e6101000a81548161ffff021916908361ffff16021790555060408201518160010155905050505050505050565b60068181548110151561180457fe5b90600052602060002090600202016000915090508060000160009054906101000a900462010000029080600001601e9054906101000a900461ffff16908060010154905083565b6000809054906101000a900473ffffffffffffffffffffffffffffffffffffffff1673ffffffffffffffffffffffffffffffffffffffff163373ffffffffffffffffffffffffffffffffffffffff1614806118f35750600160009054906101000a900473ffffffffffffffffffffffffffffffffffffffff1673ffffffffffffffffffffffffffffffffffffffff163373ffffffffffffffffffffffffffffffffffffffff16145b151561198d576040517f08c379a00000000000000000000000000000000000000000000000000000000081526004018080602001828103825260338152602001807f546865206d73672073656e646572206d75737420626520746865206f776e657281526020017f206f7220746865206d61726b6574706c6163650000000000000000000000000081525060400191505060405180910390fd5b600160009054906101000a900473ffffffffffffffffffffffffffffffffffffffff1673ffffffffffffffffffffffffffffffffffffffff166108fc6005549081150290604051600060405180830381858888f193505050501580156119f7573d6000803e3d6000fd5b506000809054906101000a900473ffffffffffffffffffffffffffffffffffffffff1673ffffffffffffffffffffffffffffffffffffffff16ff5b6000809054906101000a900473ffffffffffffffffffffffffffffffffffffffff1673ffffffffffffffffffffffffffffffffffffffff163373ffffffffffffffffffffffffffffffffffffffff16141515611af6576040517f08c379a00000000000000000000000000000000000000000000000000000000081526004018080602001828103825260208152602001807f546865206d73672073656e646572206d75737420626520746865206f776e657281525060200191505060405180910390fd5b7f4b314b34e912fda7f95e7d23e9c8c95f82f0aff1984e4ce592a0b005f905562460405160405180910390a16001600460006101000a81548160ff021916908315150217905550565b6201000081565b6000809054906101000a900473ffffffffffffffffffffffffffffffffffffffff1681565b600160009054906101000a900473ffffffffffffffffffffffffffffffffffffffff1681565b6000600260009054906101000a900473ffffffffffffffffffffffffffffffffffffffff1673ffffffffffffffffffffffffffffffffffffffff163373ffffffffffffffffffffffffffffffffffffffff16141515611c7e576040517f08c379a000000000000000000000000000000000000000000000000000000000815260040180806020018281038252602a8152602001807f546865206d73672073656e646572206d75737420626520746865206f776e657281526020017f2063616e6469646174650000000000000000000000000000000000000000000081525060400191505060405180910390fd5b600260009054906101000a900473ffffffffffffffffffffffffffffffffffffffff1673ffffffffffffffffffffffffffffffffffffffff166000809054906101000a900473ffffffffffffffffffffffffffffffffffffffff1673ffffffffffffffffffffffffffffffffffffffff167fdb6d05f3295cede580affa301a1eb5297528f3b3f6a56b075887ce6f61c45f2160405160405180910390a3600160009054906101000a900473ffffffffffffffffffffffffffffffffffffffff1690508073ffffffffffffffffffffffffffffffffffffffff1663cdc01ca36000809054906101000a900473ffffffffffffffffffffffffffffffffffffffff16600354600260009054906101000a900473ffffffffffffffffffffffffffffffffffffffff16866040518563ffffffff167c0100000000000000000000000000000000000000000000000000000000028152600401808573ffffffffffffffffffffffffffffffffffffffff1673ffffffffffffffffffffffffffffffffffffffff1681526020018461ffff1661ffff1681526020018373ffffffffffffffffffffffffffffffffffffffff1673ffffffffffffffffffffffffffffffffffffffff1681526020018261ffff1661ffff168152602001945050505050600060405180830381600087803b158015611e7457600080fd5b505af1158015611e88573d6000803e3d6000fd5b50505050600260009054906101000a900473ffffffffffffffffffffffffffffffffffffffff166000806101000a81548173ffffffffffffffffffffffffffffffffffffffff021916908373ffffffffffffffffffffffffffffffffffffffff1602179055505050565b60035481565b6000809054906101000a900473ffffffffffffffffffffffffffffffffffffffff1673ffffffffffffffffffffffffffffffffffffffff163373ffffffffffffffffffffffffffffffffffffffff16141515611fbc576040517f08c379a00000000000000000000000000000000000000000000000000000000081526004018080602001828103825260208152602001807f546865206d73672073656e646572206d75737420626520746865206f776e657281525060200191505060405180910390fd5b816006805490508161ffff1610151561203d576040517f08c379a00000000000000000000000000000000000000000000000000000000081526004018080602001828103825260138152602001807f496e646578206f7574206f662072616e6765210000000000000000000000000081525060200191505060405180910390fd5b7f4ccc0371f03ddc423b8ccfa5a94684c16962c95f8421d8cefe2e66d494bfde938383604051808361ffff1681526020018281526020019250505060405180910390a18160068461ffff1681548110151561209457fe5b906000526020600020906002020160010181905550505050565b6000809054906101000a900473ffffffffffffffffffffffffffffffffffffffff1673ffffffffffffffffffffffffffffffffffffffff163373ffffffffffffffffffffffffffffffffffffffff16141515612172576040517f08c379a00000000000000000000000000000000000000000000000000000000081526004018080602001828103825260208152602001807f546865206d73672073656e646572206d75737420626520746865206f776e657281525060200191505060405180910390fd5b806006805490508161ffff161015156121f3576040517f08c379a00000000000000000000000000000000000000000000000000000000081526004018080602001828103825260138152602001807f496e646578206f7574206f662072616e6765210000000000000000000000000081525060200191505060405180910390fd5b7f63a40fdaf690567862cf73699ec621ca32131810638d9a02a3c1bf46344c8c0782604051808261ffff16815260200191505060405180910390a160068261ffff1681548110151561224157fe5b9060005260206000209060020201600080820160006101000a8154907dffffffffffffffffffffffffffffffffffffffffffffffffffffffffffff021916905560008201601e6101000a81549061ffff0219169055600182016000905550505050565b620f424081565b6000809054906101000a900473ffffffffffffffffffffffffffffffffffffffff1673ffffffffffffffffffffffffffffffffffffffff163373ffffffffffffffffffffffffffffffffffffffff1614151561236f576040517f08c379a00000000000000000000000000000000000000000000000000000000081526004018080602001828103825260208152602001807f546865206d73672073656e646572206d75737420626520746865206f776e657281525060200191505060405180910390fd5b81600073ffffffffffffffffffffffffffffffffffffffff168173ffffffffffffffffffffffffffffffffffffffff161415151561243b576040517f08c379a00000000000000000000000000000000000000000000000000000000081526004018080602001828103825260258152602001807f576974686472617720726563697069656e74206d757374206e6f74206265206581526020017f6d7074792100000000000000000000000000000000000000000000000000000081525060400191505060405180910390fd5b816000811115156124da576040517f08c379a00000000000000000000000000000000000000000000000000000000081526004018080602001828103825260218152602001807f5a65726f2076616c7565207472616e7366657273206e6f7420616c6c6f77656481526020017f210000000000000000000000000000000000000000000000000000000000000081525060400191505060405180910390fd5b6125066005543073ffffffffffffffffffffffffffffffffffffffff1631612e1390919063ffffffff16565b831115151561257d576040517f08c379a000000000000000000000000000000000000000000000000000000000815260040180806020018281038252601f8152602001807f596f75722062616c616e6365206973206e6f742073756666696369656e74210081525060200191505060405180910390fd5b7fa493e960de66ff5b6d1d6e19fc3fdeee4b4b5d01b686fde2dcc4b3354d27e97d8484604051808373ffffffffffffffffffffffffffffffffffffffff1673ffffffffffffffffffffffffffffffffffffffff1681526020018281526020019250505060405180910390a18373ffffffffffffffffffffffffffffffffffffffff166108fc849081150290604051600060405180830381858888f1935050505015801561262e573d6000803e3d6000fd5b5050505050565b600160009054906101000a900473ffffffffffffffffffffffffffffffffffffffff1673ffffffffffffffffffffffffffffffffffffffff163373ffffffffffffffffffffffffffffffffffffffff16141515612720576040517f08c379a00000000000000000000000000000000000000000000000000000000081526004018080602001828103825260268152602001807f546865206d73672073656e646572206d75737420626520746865206d61726b6581526020017f74706c616365000000000000000000000000000000000000000000000000000081525060400191505060405180910390fd5b806000811115156127bf576040517f08c379a00000000000000000000000000000000000000000000000000000000081526004018080602001828103825260218152602001807f5a65726f2076616c7565207472616e7366657273206e6f7420616c6c6f77656481526020017f210000000000000000000000000000000000000000000000000000000000000081525060400191505060405180910390fd5b600554821115151561285f576040517f08c379a000000000000000000000000000000000000000000000000000000000815260040180806020018281038252602a8152602001807f546865206d61726b6574706c6163652062616c616e6365206973206e6f74207381526020017f756666696369656e74210000000000000000000000000000000000000000000081525060400191505060405180910390fd5b7fddacdb733f2822e9cbaeaa24a5cfdc2e64243cbbeba829f1177b27a8b9f53c94826040518082815260200191505060405180910390a16128ab82600554612e1390919063ffffffff16565b600581905550600160009054906101000a900473ffffffffffffffffffffffffffffffffffffffff1673ffffffffffffffffffffffffffffffffffffffff166108fc839081150290604051600060405180830381858888f19350505050158015612919573d6000803e3d6000fd5b505050565b60078160108110151561292d57fe5b60109182820401919006600202915054906101000a900461ffff1681565b6000809054906101000a900473ffffffffffffffffffffffffffffffffffffffff1673ffffffffffffffffffffffffffffffffffffffff163373ffffffffffffffffffffffffffffffffffffffff16141515612a0f576040517f08c379a00000000000000000000000000000000000000000000000000000000081526004018080602001828103825260208152602001807f546865206d73672073656e646572206d75737420626520746865206f776e657281525060200191505060405180910390fd5b816006805490508161ffff16101515612a90576040517f08c379a00000000000000000000000000000000000000000000000000000000081526004018080602001828103825260138152602001807f496e646578206f7574206f662072616e6765210000000000000000000000000081525060200191505060405180910390fd5b60008261ffff16111515612b32576040517f08c379a00000000000000000000000000000000000000000000000000000000081526004018080602001828103825260248152602001807f44656372656173656d656e74206d75737420626520677265617465722074686181526020017f6e2030210000000000000000000000000000000000000000000000000000000081525060400191505060405180910390fd5b612b7b8260068561ffff16815481101515612b4957fe5b9060005260206000209060020201600001601e9054906101000a900461ffff1661ffff16612c6590919063ffffffff16565b60068461ffff16815481101515612b8e57fe5b9060005260206000209060020201600001601e6101000a81548161ffff021916908361ffff160217905550505050565b6000806000841415612bd35760009150612c5e565b8284029050828482811515612be457fe5b04141515612c5a576040517f08c379a00000000000000000000000000000000000000000000000000000000081526004018080602001828103825260198152602001807f4d756c206f7065726174696f6e206f766572666c6f776564210000000000000081525060200191505060405180910390fd5b8091505b5092915050565b6000808361ffff168361ffff1611151515612ce8576040517f08c379a000000000000000000000000000000000000000000000000000000000815260040180806020018281038252601a8152602001807f537562206f7065726174696f6e20756e646572666c6f7765642100000000000081525060200191505060405180910390fd5b82840390508091505092915050565b6000808284019050838110151515612d77576040517f08c379a00000000000000000000000000000000000000000000000000000000081526004018080602001828103825260198152602001807f416464206f7065726174696f6e206f766572666c6f776564210000000000000081525060200191505060405180910390fd5b8091505092915050565b60008082840190508361ffff168161ffff1610151515612e09576040517f08c379a00000000000000000000000000000000000000000000000000000000081526004018080602001828103825260198152602001807f416464206f7065726174696f6e206f766572666c6f776564210000000000000081525060200191505060405180910390fd5b8091505092915050565b600080838311151515612e8e576040517f08c379a000000000000000000000000000000000000000000000000000000000815260040180806020018281038252601a8152602001807f537562206f7065726174696f6e20756e646572666c6f7765642100000000000081525060200191505060405180910390fd5b828403905080915050929150505600a165627a7a723058208b81068f5b18eafec4a7b38e6f4134bd1e1a1c4f7b3c1d7850693c44be3ec17e0029",
  "source": "pragma solidity 0.4.24;\n\nimport './Store.sol';\n\n\n/**\n * @title DestroyStore\n * @dev Contract that can be destroyed either\n * by the owner or the marketplace.\n * All funds in contract will be sent to the owner,\n * except the fee collected by the marketplace.\n */\ncontract DestroyStore is Store {\n\n\tconstructor(address _owner) public Store(_owner) {}\n\n\t/**\n\t* @dev Transfers the current marketplace balance to the marketplace\n\t* and all other funds to the owner.\n\t* @notice Using send to prevent DoS by revert from the marketplace address.\n\t*/\n\tfunction destroy() public onlyOwnerOrMarketplace {\n\t\t/* solium-disable-next-line security/no-send */\n\t\tmarketplace.transfer(marketplaceBalance);\n\t\tselfdestruct(owner);\n\t}\n}\n",
  "sourcePath": "C:\\Users\\Trevor\\documents\\marketplace2\\Consensys-Marketplace-Final-Project-master\\contracts\\store_functions\\DestroyStore.sol",
  "compiler": {
    "name": "solc",
    "version": "0.4.24+commit.e67f0147.Emscripten.clang"
  },
  "schemaVersion": "3.0.0",
  "updatedAt": "2019-01-24T18:58:43.162Z",
  "devdoc": {
    "methods": {
      "addProduct(bytes30,uint16,uint256)": {
        "details": "Allows the current owner to add a product to the array of products.",
        "params": {
          "_description": "The bytes30 representation of the description of the product .",
          "_price": "The _price of the product.",
          "_quantity": "The _quantity of the product."
        }
      },
      "approveOwnershipTransfer(uint16)": {
        "details": "Allows owner candidate to approve the ownership of the contract.",
        "params": {
          "_newStoreIndex": "The index at which the new store to be set in the new owner's stores array."
        }
      },
      "buy(uint16,uint16)": {
        "details": "Allows the customers to buy given quantity of a specific product.",
        "params": {
          "_productIndex": "The index of the product in the products array.",
          "_quantity": "The _quantity of the product."
        }
      },
      "decreaseQuantity(uint16,uint16)": {
        "details": "Allows the current owner to decrease the quantity of a product.",
        "params": {
          "_decreasement": "The amount to decrease with.",
          "_productIndex": "The index of the product in the products array."
        }
      },
      "destroy()": {
        "details": "Transfers the current marketplace balance to the marketplace and all other funds to the owner."
      },
      "increaseQuantity(uint16,uint16)": {
        "details": "Allows the current owner to increase the quantity of a product.",
        "params": {
          "_increasement": "The amount to increase with.",
          "_productIndex": "The index of the product in the products array."
        }
      },
      "marketplaceWithdraw(uint256)": {
        "details": "Allows the marketplace to withdraw taxes from the store.",
        "params": {
          "_amount": "The amount of the funds transferred."
        }
      },
      "ownerWithdraw(address,uint256)": {
        "details": "Allows the current owner to withdraw funds from the store.",
        "params": {
          "_amount": "The amount of the funds transferred.",
          "_recipient": "The address to transfer the funds to."
        }
      },
      "pause()": {
        "details": "called by the owner to pause, triggers stopped state"
      },
      "removeProduct(uint16)": {
        "details": "Allows the current owner to delete a product at a given index of the array of products.",
        "params": {
          "_productIndex": "The index of the product in the products array."
        }
      },
      "requestOwnershipTransfer(address,uint256)": {
        "details": "Allows the current owner to transfer control of the contract to a new owner, who has to approve the ownership.",
        "params": {
          "_ownerCandidate": "The address to transfer ownership to.",
          "_storeIndex": "The index of the current store to be transferred."
        }
      },
      "setPrice(uint16,uint256)": {
        "details": "Allows the current owner to set a price of a product.",
        "params": {
          "_newPrice": "The new price of the product.",
          "_productIndex": "The index of the product in the products array."
        }
      },
      "setStorefront(uint8,uint16)": {
        "details": "Allows the current owner to encode the storefront of the store.",
        "params": {
          "_productIndex": "The new encoded storefront.",
          "_storefrontIndex": "The new encoded storefront."
        }
      },
      "unpause()": {
        "details": "called by the owner to unpause, returns to normal state"
      },
      "updateProduct(uint16,bytes30,uint16,uint256)": {
        "details": "Allows the current owner to update a product at a given index of the array of products, including previously deleted products(empty indices).",
        "params": {
          "_description": "The bytes30 representation of the description of the product .",
          "_price": "The _price of the product.",
          "_productIndex": "The index of the product in the products array.",
          "_quantity": "The _quantity of the product."
        }
      }
    },
    "title": "DestroyStore"
  },
  "userdoc": {
    "methods": {
      "addProduct(bytes30,uint16,uint256)": {
        "notice": "Zero price and quantity are intentionally not forbidden as there might be some business use cases using it (eg. pre-stock marketing)."
      },
      "buy(uint16,uint16)": {
        "notice": "If there is a tip from the msg value it is not returned."
      },
      "destroy()": {
        "notice": "Using send to prevent DoS by revert from the marketplace address."
      },
      "requestOwnershipTransfer(address,uint256)": {
        "notice": "The requirement for non-zero address of the `_ownerCandidate` is intentionally omitted due to the two-staged implementation."
      },
      "setPrice(uint16,uint256)": {
        "notice": "Zero price is intentionally not forbidden as there might be some business use cases using it (eg. sale)."
      },
      "setStorefront(uint8,uint16)": {
        "notice": "The storefront represents up to 16 products using their indices in the products array."
      },
      "updateProduct(uint16,bytes30,uint16,uint256)": {
        "notice": "Zero price and quantity are intentionally not forbidden as there might be some business use cases using it (eg. pre-stock marketing)."
      }
    }
  }
}