{
  "contractName": "MarketStore",
  "abi": [
    {
      "constant": false,
      "inputs": [
        {
          "name": "_ownerCandidate",
          "type": "address"
        },
        {
          "name": "_storeIndex",
          "type": "uint256"
        }
      ],
      "name": "requestOwnershipTransfer",
      "outputs": [],
      "payable": false,
      "stateMutability": "nonpayable",
      "type": "function"
    },
    {
      "constant": false,
      "inputs": [],
      "name": "unpause",
      "outputs": [],
      "payable": false,
      "stateMutability": "nonpayable",
      "type": "function"
    },
    {
      "constant": true,
      "inputs": [],
      "name": "marketplaceBalance",
      "outputs": [
        {
          "name": "",
          "type": "uint256"
        }
      ],
      "payable": false,
      "stateMutability": "view",
      "type": "function"
    },
    {
      "constant": true,
      "inputs": [],
      "name": "paused",
      "outputs": [
        {
          "name": "",
          "type": "bool"
        }
      ],
      "payable": false,
      "stateMutability": "view",
      "type": "function"
    },
    {
      "constant": true,
      "inputs": [],
      "name": "ownerCandidate",
      "outputs": [
        {
          "name": "",
          "type": "address"
        }
      ],
      "payable": false,
      "stateMutability": "view",
      "type": "function"
    },
    {
      "constant": false,
      "inputs": [],
      "name": "pause",
      "outputs": [],
      "payable": false,
      "stateMutability": "nonpayable",
      "type": "function"
    },
    {
      "constant": true,
      "inputs": [],
      "name": "owner",
      "outputs": [
        {
          "name": "",
          "type": "address"
        }
      ],
      "payable": false,
      "stateMutability": "view",
      "type": "function"
    },
    {
      "constant": true,
      "inputs": [],
      "name": "marketplace",
      "outputs": [
        {
          "name": "",
          "type": "address"
        }
      ],
      "payable": false,
      "stateMutability": "view",
      "type": "function"
    },
    {
      "constant": false,
      "inputs": [
        {
          "name": "_newStoreIndex",
          "type": "uint16"
        }
      ],
      "name": "approveOwnershipTransfer",
      "outputs": [],
      "payable": false,
      "stateMutability": "nonpayable",
      "type": "function"
    },
    {
      "constant": true,
      "inputs": [],
      "name": "storeIndex",
      "outputs": [
        {
          "name": "",
          "type": "uint256"
        }
      ],
      "payable": false,
      "stateMutability": "view",
      "type": "function"
    },
    {
      "constant": true,
      "inputs": [],
      "name": "MARKETPLACE_TAX_DENOMINATOR",
      "outputs": [
        {
          "name": "",
          "type": "uint24"
        }
      ],
      "payable": false,
      "stateMutability": "view",
      "type": "function"
    },
    {
      "anonymous": false,
      "inputs": [
        {
          "indexed": false,
          "name": "amount",
          "type": "uint256"
        }
      ],
      "name": "LogMarketplaceWithdrawal",
      "type": "event"
    },
    {
      "anonymous": false,
      "inputs": [],
      "name": "LogPause",
      "type": "event"
    },
    {
      "anonymous": false,
      "inputs": [],
      "name": "LogUnpause",
      "type": "event"
    },
    {
      "anonymous": false,
      "inputs": [
        {
          "indexed": true,
          "name": "currentOwner",
          "type": "address"
        },
        {
          "indexed": true,
          "name": "ownerCandidate",
          "type": "address"
        },
        {
          "indexed": false,
          "name": "storeIndex",
          "type": "uint256"
        }
      ],
      "name": "LogOwnershipTransferRequested",
      "type": "event"
    },
    {
      "anonymous": false,
      "inputs": [
        {
          "indexed": true,
          "name": "previousOwner",
          "type": "address"
        },
        {
          "indexed": true,
          "name": "newOwner",
          "type": "address"
        }
      ],
      "name": "LogOwnershipTransferred",
      "type": "event"
    },
    {
      "constant": false,
      "inputs": [
        {
          "name": "_amount",
          "type": "uint256"
        }
      ],
      "name": "marketplaceWithdraw",
      "outputs": [],
      "payable": false,
      "stateMutability": "nonpayable",
      "type": "function"
    }
  ],
  "bytecode": "0x60806040526000600460006101000a81548160ff02191690831515021790555034801561002b57600080fd5b50610e9e8061003b6000396000f3006080604052600436106100ba576000357c0100000000000000000000000000000000000000000000000000000000900463ffffffff1680632236ab5a146100bf5780633f4ba83a1461010c5780635030025a146101235780635c975abb1461014e5780635f504a821461017d5780638456cb59146101d45780638da5cb5b146101eb578063abc8c7af14610242578063b21252b714610299578063baa66e64146102ca578063c0f21a20146102f5578063dd72ed461461032a575b600080fd5b3480156100cb57600080fd5b5061010a600480360381019080803573ffffffffffffffffffffffffffffffffffffffff16906020019092919080359060200190929190505050610357565b005b34801561011857600080fd5b506101216104ed565b005b34801561012f57600080fd5b506101386105fa565b6040518082815260200191505060405180910390f35b34801561015a57600080fd5b50610163610600565b604051808215151515815260200191505060405180910390f35b34801561018957600080fd5b50610192610613565b604051808273ffffffffffffffffffffffffffffffffffffffff1673ffffffffffffffffffffffffffffffffffffffff16815260200191505060405180910390f35b3480156101e057600080fd5b506101e9610639565b005b3480156101f757600080fd5b50610200610746565b604051808273ffffffffffffffffffffffffffffffffffffffff1673ffffffffffffffffffffffffffffffffffffffff16815260200191505060405180910390f35b34801561024e57600080fd5b5061025761076b565b604051808273ffffffffffffffffffffffffffffffffffffffff1673ffffffffffffffffffffffffffffffffffffffff16815260200191505060405180910390f35b3480156102a557600080fd5b506102c8600480360381019080803561ffff169060200190929190505050610791565b005b3480156102d657600080fd5b506102df610af2565b6040518082815260200191505060405180910390f35b34801561030157600080fd5b5061030a610af8565b604051808262ffffff1662ffffff16815260200191505060405180910390f35b34801561033657600080fd5b5061035560048036038101908080359060200190929190505050610aff565b005b6000809054906101000a900473ffffffffffffffffffffffffffffffffffffffff1673ffffffffffffffffffffffffffffffffffffffff163373ffffffffffffffffffffffffffffffffffffffff1614151561041b576040517f08c379a00000000000000000000000000000000000000000000000000000000081526004018080602001828103825260208152602001807f546865206d73672073656e646572206d75737420626520746865206f776e657281525060200191505060405180910390fd5b8173ffffffffffffffffffffffffffffffffffffffff166000809054906101000a900473ffffffffffffffffffffffffffffffffffffffff1673ffffffffffffffffffffffffffffffffffffffff167ff4872fb89759e1cbf4e640b0d9c91adaf6397241fa58a8023bb11177cbb67356836040518082815260200191505060405180910390a381600260006101000a81548173ffffffffffffffffffffffffffffffffffffffff021916908373ffffffffffffffffffffffffffffffffffffffff160217905550806003819055505050565b6000809054906101000a900473ffffffffffffffffffffffffffffffffffffffff1673ffffffffffffffffffffffffffffffffffffffff163373ffffffffffffffffffffffffffffffffffffffff161415156105b1576040517f08c379a00000000000000000000000000000000000000000000000000000000081526004018080602001828103825260208152602001807f546865206d73672073656e646572206d75737420626520746865206f776e657281525060200191505060405180910390fd5b7f730c1faaa977b67dacf1e2451ef54556e04a07d577785ff79f6d31f73502efc960405160405180910390a16000600460006101000a81548160ff021916908315150217905550565b60055481565b600460009054906101000a900460ff1681565b600260009054906101000a900473ffffffffffffffffffffffffffffffffffffffff1681565b6000809054906101000a900473ffffffffffffffffffffffffffffffffffffffff1673ffffffffffffffffffffffffffffffffffffffff163373ffffffffffffffffffffffffffffffffffffffff161415156106fd576040517f08c379a00000000000000000000000000000000000000000000000000000000081526004018080602001828103825260208152602001807f546865206d73672073656e646572206d75737420626520746865206f776e657281525060200191505060405180910390fd5b7f4b314b34e912fda7f95e7d23e9c8c95f82f0aff1984e4ce592a0b005f905562460405160405180910390a16001600460006101000a81548160ff021916908315150217905550565b6000809054906101000a900473ffffffffffffffffffffffffffffffffffffffff1681565b600160009054906101000a900473ffffffffffffffffffffffffffffffffffffffff1681565b6000600260009054906101000a900473ffffffffffffffffffffffffffffffffffffffff1673ffffffffffffffffffffffffffffffffffffffff163373ffffffffffffffffffffffffffffffffffffffff1614151561087e576040517f08c379a000000000000000000000000000000000000000000000000000000000815260040180806020018281038252602a8152602001807f546865206d73672073656e646572206d75737420626520746865206f776e657281526020017f2063616e6469646174650000000000000000000000000000000000000000000081525060400191505060405180910390fd5b600260009054906101000a900473ffffffffffffffffffffffffffffffffffffffff1673ffffffffffffffffffffffffffffffffffffffff166000809054906101000a900473ffffffffffffffffffffffffffffffffffffffff1673ffffffffffffffffffffffffffffffffffffffff167fdb6d05f3295cede580affa301a1eb5297528f3b3f6a56b075887ce6f61c45f2160405160405180910390a3600160009054906101000a900473ffffffffffffffffffffffffffffffffffffffff1690508073ffffffffffffffffffffffffffffffffffffffff1663cdc01ca36000809054906101000a900473ffffffffffffffffffffffffffffffffffffffff16600354600260009054906101000a900473ffffffffffffffffffffffffffffffffffffffff16866040518563ffffffff167c0100000000000000000000000000000000000000000000000000000000028152600401808573ffffffffffffffffffffffffffffffffffffffff1673ffffffffffffffffffffffffffffffffffffffff1681526020018461ffff1661ffff1681526020018373ffffffffffffffffffffffffffffffffffffffff1673ffffffffffffffffffffffffffffffffffffffff1681526020018261ffff1661ffff168152602001945050505050600060405180830381600087803b158015610a7457600080fd5b505af1158015610a88573d6000803e3d6000fd5b50505050600260009054906101000a900473ffffffffffffffffffffffffffffffffffffffff166000806101000a81548173ffffffffffffffffffffffffffffffffffffffff021916908373ffffffffffffffffffffffffffffffffffffffff1602179055505050565b60035481565b620f424081565b600160009054906101000a900473ffffffffffffffffffffffffffffffffffffffff1673ffffffffffffffffffffffffffffffffffffffff163373ffffffffffffffffffffffffffffffffffffffff16141515610bea576040517f08c379a00000000000000000000000000000000000000000000000000000000081526004018080602001828103825260268152602001807f546865206d73672073656e646572206d75737420626520746865206d61726b6581526020017f74706c616365000000000000000000000000000000000000000000000000000081525060400191505060405180910390fd5b80600081111515610c89576040517f08c379a00000000000000000000000000000000000000000000000000000000081526004018080602001828103825260218152602001807f5a65726f2076616c7565207472616e7366657273206e6f7420616c6c6f77656481526020017f210000000000000000000000000000000000000000000000000000000000000081525060400191505060405180910390fd5b6005548211151515610d29576040517f08c379a000000000000000000000000000000000000000000000000000000000815260040180806020018281038252602a8152602001807f546865206d61726b6574706c6163652062616c616e6365206973206e6f74207381526020017f756666696369656e74210000000000000000000000000000000000000000000081525060400191505060405180910390fd5b7fddacdb733f2822e9cbaeaa24a5cfdc2e64243cbbeba829f1177b27a8b9f53c94826040518082815260200191505060405180910390a1610d7582600554610de890919063ffffffff16565b600581905550600160009054906101000a900473ffffffffffffffffffffffffffffffffffffffff1673ffffffffffffffffffffffffffffffffffffffff166108fc839081150290604051600060405180830381858888f19350505050158015610de3573d6000803e3d6000fd5b505050565b600080838311151515610e63576040517f08c379a000000000000000000000000000000000000000000000000000000000815260040180806020018281038252601a8152602001807f537562206f7065726174696f6e20756e646572666c6f7765642100000000000081525060200191505060405180910390fd5b828403905080915050929150505600a165627a7a723058205364e2d1f9826429a465acfadcc822dafe622f4a8e7d62bf91987eb4092abcc60029",
  "source": "pragma solidity 0.4.24;\n\nimport '../computations/SafeMath.sol';\nimport '../Process/Paused.sol';\n\n\n/**\n * @title Store\n * @dev Holds the main store-related\n * marketplace business logic.\n */\ncontract MarketStore is Paused {\n\t/**\n\t* @dev Using SafeMath's library\n\t* operations with safety checks against\n\t* underflow and overflow.\n\t*/\n\tusing SafeMath for uint256;\n\n\tevent LogMarketplaceWithdrawal(uint256 amount);\n\n\t/**\n\t* @dev The marketplace will take 1/1000000 integer part\n\t* of every purchase.\n\t* @notice The customer has no incentive to accumulate only\n\t* low-value requests(less than 1Mwei), because they will\n\t* pay more for transaction gas costs.\n\t*/\n\tuint24 public constant MARKETPLACE_TAX_DENOMINATOR = 1000000;\n\n\t/**\n\t* @dev The accumulated balance of the marketplace which can\n\t* be withdrawed from it.\n\t*/\n\tuint256 public marketplaceBalance;\n\n\tmodifier nonZeroAmount(uint256 _amount) {\n\t\trequire(_amount > 0, 'Zero value transfers not allowed!');\n\t\t_;\n\t}\n\n\t/**\n\t* @dev Allows the marketplace to withdraw taxes from the store.\n\t* @param _amount The amount of the funds transferred.\n\t*/\n\tfunction marketplaceWithdraw\n\t(\n\t\tuint256 _amount\n\t)\n\t\tpublic\n\t\tonlyMarketplace\n\t\tnonZeroAmount(_amount)\n\t{\n\t\trequire(_amount <= marketplaceBalance, 'The marketplace balance is not sufficient!');\n\n\t\temit LogMarketplaceWithdrawal(_amount);\n\n\t\tmarketplaceBalance = marketplaceBalance.sub(_amount);\n\n\t\tmarketplace.transfer(_amount);\n\t}\n}\n",
  "sourcePath": "C:\\Users\\Trevor\\documents\\marketplace2\\Consensys-Marketplace-Final-Project-master\\contracts\\store_functions\\MarketStore.sol",
  "compiler": {
    "name": "solc",
    "version": "0.4.24+commit.e67f0147.Emscripten.clang"
  },
  "schemaVersion": "3.0.0",
  "updatedAt": "2019-01-24T18:58:43.160Z",
  "devdoc": {
    "methods": {
      "approveOwnershipTransfer(uint16)": {
        "details": "Allows owner candidate to approve the ownership of the contract.",
        "params": {
          "_newStoreIndex": "The index at which the new store to be set in the new owner's stores array."
        }
      },
      "marketplaceWithdraw(uint256)": {
        "details": "Allows the marketplace to withdraw taxes from the store.",
        "params": {
          "_amount": "The amount of the funds transferred."
        }
      },
      "pause()": {
        "details": "called by the owner to pause, triggers stopped state"
      },
      "requestOwnershipTransfer(address,uint256)": {
        "details": "Allows the current owner to transfer control of the contract to a new owner, who has to approve the ownership.",
        "params": {
          "_ownerCandidate": "The address to transfer ownership to.",
          "_storeIndex": "The index of the current store to be transferred."
        }
      },
      "unpause()": {
        "details": "called by the owner to unpause, returns to normal state"
      }
    },
    "title": "Store"
  },
  "userdoc": {
    "methods": {
      "requestOwnershipTransfer(address,uint256)": {
        "notice": "The requirement for non-zero address of the `_ownerCandidate` is intentionally omitted due to the two-staged implementation."
      }
    }
  }
}