{
  "contractName": "MarketplaceManager",
  "abi": [
    {
      "constant": true,
      "inputs": [
        {
          "name": "",
          "type": "uint256"
        }
      ],
      "name": "storeOwners",
      "outputs": [
        {
          "name": "",
          "type": "address"
        }
      ],
      "payable": false,
      "stateMutability": "view",
      "type": "function"
    },
    {
      "constant": true,
      "inputs": [
        {
          "name": "",
          "type": "address"
        },
        {
          "name": "",
          "type": "uint256"
        }
      ],
      "name": "stores",
      "outputs": [
        {
          "name": "",
          "type": "address"
        }
      ],
      "payable": false,
      "stateMutability": "view",
      "type": "function"
    },
    {
      "constant": false,
      "inputs": [
        {
          "name": "_newImplementation",
          "type": "address"
        }
      ],
      "name": "upgradeImplementation",
      "outputs": [],
      "payable": false,
      "stateMutability": "nonpayable",
      "type": "function"
    },
    {
      "constant": true,
      "inputs": [],
      "name": "owner",
      "outputs": [
        {
          "name": "",
          "type": "address"
        }
      ],
      "payable": false,
      "stateMutability": "view",
      "type": "function"
    },
    {
      "constant": true,
      "inputs": [],
      "name": "contractImplementation",
      "outputs": [
        {
          "name": "",
          "type": "address"
        }
      ],
      "payable": false,
      "stateMutability": "view",
      "type": "function"
    },
    {
      "constant": false,
      "inputs": [],
      "name": "init",
      "outputs": [],
      "payable": false,
      "stateMutability": "nonpayable",
      "type": "function"
    },
    {
      "constant": false,
      "inputs": [
        {
          "name": "_newOwner",
          "type": "address"
        }
      ],
      "name": "transferOwnership",
      "outputs": [],
      "payable": false,
      "stateMutability": "nonpayable",
      "type": "function"
    },
    {
      "payable": true,
      "stateMutability": "payable",
      "type": "fallback"
    },
    {
      "anonymous": false,
      "inputs": [
        {
          "indexed": false,
          "name": "to",
          "type": "address"
        },
        {
          "indexed": false,
          "name": "amount",
          "type": "uint256"
        }
      ],
      "name": "LogOwnerWithdrawal",
      "type": "event"
    },
    {
      "anonymous": false,
      "inputs": [
        {
          "indexed": true,
          "name": "newImplementation",
          "type": "address"
        }
      ],
      "name": "LogUpgrContract",
      "type": "event"
    },
    {
      "anonymous": false,
      "inputs": [
        {
          "indexed": true,
          "name": "previousOwner",
          "type": "address"
        },
        {
          "indexed": true,
          "name": "newOwner",
          "type": "address"
        }
      ],
      "name": "LogOwnershipTransferred",
      "type": "event"
    },
    {
      "constant": false,
      "inputs": [
        {
          "name": "_recipient",
          "type": "address"
        },
        {
          "name": "_amount",
          "type": "uint256"
        }
      ],
      "name": "ownerWithdraw",
      "outputs": [],
      "payable": false,
      "stateMutability": "nonpayable",
      "type": "function"
    },
    {
      "constant": true,
      "inputs": [
        {
          "name": "_owner",
          "type": "address"
        }
      ],
      "name": "isStoreOwner",
      "outputs": [
        {
          "name": "",
          "type": "bool"
        }
      ],
      "payable": false,
      "stateMutability": "view",
      "type": "function"
    },
    {
      "constant": true,
      "inputs": [
        {
          "name": "_owner",
          "type": "address"
        }
      ],
      "name": "getStoresByOwner",
      "outputs": [
        {
          "name": "",
          "type": "address[]"
        }
      ],
      "payable": false,
      "stateMutability": "view",
      "type": "function"
    },
    {
      "constant": true,
      "inputs": [],
      "name": "getStoreOwners",
      "outputs": [
        {
          "name": "",
          "type": "address[]"
        }
      ],
      "payable": false,
      "stateMutability": "view",
      "type": "function"
    }
  ],
  "bytecode": "0x608060405234801561001057600080fd5b50610fe8806100206000396000f3006080604052600436106100af576000357c0100000000000000000000000000000000000000000000000000000000900463ffffffff16806344d50993146100b157806354121c741461011e578063544f2dc9146101ab5780635effd33c1461024357806383f94db71461029e5780638da5cb5b146102e157806391f4245a146103385780639e72370b146103a4578063d9c88e14146103fb578063e1c7392a14610448578063f2fde38b1461045f575b005b3480156100bd57600080fd5b506100dc600480360381019080803590602001909291905050506104a2565b604051808273ffffffffffffffffffffffffffffffffffffffff1673ffffffffffffffffffffffffffffffffffffffff16815260200191505060405180910390f35b34801561012a57600080fd5b50610169600480360381019080803573ffffffffffffffffffffffffffffffffffffffff169060200190929190803590602001909291905050506104e0565b604051808273ffffffffffffffffffffffffffffffffffffffff1673ffffffffffffffffffffffffffffffffffffffff16815260200191505060405180910390f35b3480156101b757600080fd5b506101ec600480360381019080803573ffffffffffffffffffffffffffffffffffffffff16906020019092919050505061052d565b6040518080602001828103825283818151815260200191508051906020019060200280838360005b8381101561022f578082015181840152602081019050610214565b505050509050019250505060405180910390f35b34801561024f57600080fd5b50610284600480360381019080803573ffffffffffffffffffffffffffffffffffffffff1690602001909291905050506105fa565b604051808215151515815260200191505060405180910390f35b3480156102aa57600080fd5b506102df600480360381019080803573ffffffffffffffffffffffffffffffffffffffff169060200190929190505050610649565b005b3480156102ed57600080fd5b506102f6610839565b604051808273ffffffffffffffffffffffffffffffffffffffff1673ffffffffffffffffffffffffffffffffffffffff16815260200191505060405180910390f35b34801561034457600080fd5b5061034d61085f565b6040518080602001828103825283818151815260200191508051906020019060200280838360005b83811015610390578082015181840152602081019050610375565b505050509050019250505060405180910390f35b3480156103b057600080fd5b506103b96108ed565b604051808273ffffffffffffffffffffffffffffffffffffffff1673ffffffffffffffffffffffffffffffffffffffff16815260200191505060405180910390f35b34801561040757600080fd5b50610446600480360381019080803573ffffffffffffffffffffffffffffffffffffffff16906020019092919080359060200190929190505050610912565b005b34801561045457600080fd5b5061045d610c89565b005b34801561046b57600080fd5b506104a0600480360381019080803573ffffffffffffffffffffffffffffffffffffffff169060200190929190505050610d92565b005b6002818154811015156104b157fe5b906000526020600020016000915054906101000a900473ffffffffffffffffffffffffffffffffffffffff1681565b6003602052816000526040600020818154811015156104fb57fe5b906000526020600020016000915091509054906101000a900473ffffffffffffffffffffffffffffffffffffffff1681565b6060600360008373ffffffffffffffffffffffffffffffffffffffff1673ffffffffffffffffffffffffffffffffffffffff1681526020019081526020016000208054806020026020016040519081016040528092919081815260200182805480156105ee57602002820191906000526020600020905b8160009054906101000a900473ffffffffffffffffffffffffffffffffffffffff1673ffffffffffffffffffffffffffffffffffffffff16815260200190600101908083116105a4575b50505050509050919050565b600080600360008473ffffffffffffffffffffffffffffffffffffffff1673ffffffffffffffffffffffffffffffffffffffff1681526020019081526020016000208054905014159050919050565b600160009054906101000a900473ffffffffffffffffffffffffffffffffffffffff1673ffffffffffffffffffffffffffffffffffffffff163373ffffffffffffffffffffffffffffffffffffffff1614151561070e576040517f08c379a000000000000000000000000000000000000000000000000000000000815260040180806020018281038252601a8152602001807f4d73672073656e646572206973206e6f7420616e206f776e657200000000000081525060200191505060405180910390fd5b600073ffffffffffffffffffffffffffffffffffffffff168173ffffffffffffffffffffffffffffffffffffffff16141515156107b3576040517f08c379a000000000000000000000000000000000000000000000000000000000815260040180806020018281038252601f8152602001807f5f6e6577496d706c656d656e746174696f6e2063616e206e6f7420626520300081525060200191505060405180910390fd5b8073ffffffffffffffffffffffffffffffffffffffff167fb8b797c3bf34b5dc6502771e57add79d2be11b82acb67eb9af0867a59fd3aad060405160405180910390a2806000806101000a81548173ffffffffffffffffffffffffffffffffffffffff021916908373ffffffffffffffffffffffffffffffffffffffff16021790555050565b600160009054906101000a900473ffffffffffffffffffffffffffffffffffffffff1681565b606060028054806020026020016040519081016040528092919081815260200182805480156108e357602002820191906000526020600020905b8160009054906101000a900473ffffffffffffffffffffffffffffffffffffffff1673ffffffffffffffffffffffffffffffffffffffff1681526020019060010190808311610899575b5050505050905090565b6000809054906101000a900473ffffffffffffffffffffffffffffffffffffffff1681565b600160009054906101000a900473ffffffffffffffffffffffffffffffffffffffff1673ffffffffffffffffffffffffffffffffffffffff163373ffffffffffffffffffffffffffffffffffffffff161415156109d7576040517f08c379a000000000000000000000000000000000000000000000000000000000815260040180806020018281038252601a8152602001807f4d73672073656e646572206973206e6f7420616e206f776e657200000000000081525060200191505060405180910390fd5b81600073ffffffffffffffffffffffffffffffffffffffff168173ffffffffffffffffffffffffffffffffffffffff1614151515610aa3576040517f08c379a00000000000000000000000000000000000000000000000000000000081526004018080602001828103825260248152602001807f5370656369666965642061646472657373206d757374206e6f7420626520656d81526020017f707479210000000000000000000000000000000000000000000000000000000081525060400191505060405180910390fd5b81600081111515610b42576040517f08c379a00000000000000000000000000000000000000000000000000000000081526004018080602001828103825260218152602001807f5a65726f2076616c7565207472616e7366657273206e6f7420616c6c6f77656481526020017f210000000000000000000000000000000000000000000000000000000000000081525060400191505060405180910390fd5b3073ffffffffffffffffffffffffffffffffffffffff16318311151515610bd1576040517f08c379a000000000000000000000000000000000000000000000000000000000815260040180806020018281038252601f8152602001807f596f75722062616c616e6365206973206e6f742073756666696369656e74210081525060200191505060405180910390fd5b7fa493e960de66ff5b6d1d6e19fc3fdeee4b4b5d01b686fde2dcc4b3354d27e97d8484604051808373ffffffffffffffffffffffffffffffffffffffff1673ffffffffffffffffffffffffffffffffffffffff1681526020018281526020019250505060405180910390a18373ffffffffffffffffffffffffffffffffffffffff166108fc849081150290604051600060405180830381858888f19350505050158015610c82573d6000803e3d6000fd5b5050505050565b600073ffffffffffffffffffffffffffffffffffffffff16600160009054906101000a900473ffffffffffffffffffffffffffffffffffffffff1673ffffffffffffffffffffffffffffffffffffffff16141515610d4f576040517f08c379a000000000000000000000000000000000000000000000000000000000815260040180806020018281038252601a8152602001807f436f6e747261637420616c726561647920686173206f776e657200000000000081525060200191505060405180910390fd5b33600160006101000a81548173ffffffffffffffffffffffffffffffffffffffff021916908373ffffffffffffffffffffffffffffffffffffffff160217905550565b600160009054906101000a900473ffffffffffffffffffffffffffffffffffffffff1673ffffffffffffffffffffffffffffffffffffffff163373ffffffffffffffffffffffffffffffffffffffff16141515610e57576040517f08c379a000000000000000000000000000000000000000000000000000000000815260040180806020018281038252601a8152602001807f4d73672073656e646572206973206e6f7420616e206f776e657200000000000081525060200191505060405180910390fd5b600073ffffffffffffffffffffffffffffffffffffffff168173ffffffffffffffffffffffffffffffffffffffff1614151515610efc576040517f08c379a000000000000000000000000000000000000000000000000000000000815260040180806020018281038252601e8152602001807f5f6e65774f776e657220616464726573732063616e206e6f742062652030000081525060200191505060405180910390fd5b8073ffffffffffffffffffffffffffffffffffffffff16600160009054906101000a900473ffffffffffffffffffffffffffffffffffffffff1673ffffffffffffffffffffffffffffffffffffffff167fdb6d05f3295cede580affa301a1eb5297528f3b3f6a56b075887ce6f61c45f2160405160405180910390a380600160006101000a81548173ffffffffffffffffffffffffffffffffffffffff021916908373ffffffffffffffffffffffffffffffffffffffff160217905550505600a165627a7a723058200f3aef6ed91d92408b0fba0e7c6257212bc6eb9f64ec0be2749f3c3b87ba3fb20029",
  "source": "pragma solidity 0.4.24;\n\nimport '../upgrades/Own_Up_Imp.sol';\n\n\n/**\n * @title MarketplaceManager\n * @dev Holds the main marketpace managing related business logic.\n * @notice All contracts on this inheritance chain are upgradeable.\n */\ncontract MarketplaceManager is Own_Up_Imp {\n\n\tevent LogOwnerWithdrawal(address to, uint256 amount);\n\n\taddress[] public storeOwners;\n\n\tmapping (address=>address[]) public stores;\n\n\tmodifier nonZeroAddress(address _a) {\n\t\trequire(_a != address(0), 'Specified address must not be empty!');\n\t\t_;\n\t}\n\n\tmodifier nonZeroAmount(uint256 _amount) {\n\t\trequire(_amount > 0, 'Zero value transfers not allowed!');\n\t\t_;\n\t}\n\n\t/**\n\t* @dev Payable fallback function\n\t*/\n\tfunction() public payable {}\n\t\n\t/**\n\t* @dev Allows the current owner to withdraw funds from the marketplace.\n\t* @param _recipient The address to transfer the funds to.\n\t* @param _amount The amount of the funds transferred.\n\t*/\n\tfunction ownerWithdraw\n\t(\n\t\taddress _recipient,\n\t\tuint256 _amount\n\t) \n\t\tpublic\n\t\tonlyOwner\n\t\tnonZeroAddress(_recipient)\n\t\tnonZeroAmount(_amount)\n\t{\n\t\trequire(_amount <= address(this).balance, 'Your balance is not sufficient!');\n\n\t\temit LogOwnerWithdrawal(_recipient, _amount);\n\n\t\t_recipient.transfer(_amount);\n\t}\n\t\n\t/**\n\t* @dev Allows verifying whether the specified address\n\t* is a store owner.\n\t* @param _owner The address to be verified.\n\t* @return Boolean variable specifying whether the address\n\t* is owner's or not.\n\t*/\n\tfunction isStoreOwner(address _owner) public view returns (bool) {\n\t\treturn stores[_owner].length != 0;\n\t}\n\n\t/**\n\t* @dev Allows returning the according stores\n\t* to the specified address.\n\t* @param _owner The address of which stores to get.\n\t* @return Array of addresses of stores.\n\t*/\n\tfunction getStoresByOwner(address _owner) public view returns (address[]) {\n\t\treturn stores[_owner];\n\t}\n\n\t/**\n\t* @dev Allows returning all current store owners.\n\t* @return Array of addresses of store owners.\n\t*/\n\tfunction getStoreOwners() public view returns (address[]) {\n\t\treturn storeOwners;\n\t}\n}\n",
  "sourcePath": "C:\\Users\\Trevor\\documents\\marketplace2\\Consensys-Marketplace-Final-Project-master\\contracts\\Market Tests\\MarketplaceManager.sol",
  "compiler": {
    "name": "solc",
    "version": "0.4.24+commit.e67f0147.Emscripten.clang"
  },
  "schemaVersion": "3.0.0",
  "updatedAt": "2019-01-24T18:58:43.174Z",
  "devdoc": {
    "methods": {
      "getStoreOwners()": {
        "details": "Allows returning all current store owners.",
        "return": "Array of addresses of store owners."
      },
      "getStoresByOwner(address)": {
        "details": "Allows returning the according stores to the specified address.",
        "params": {
          "_owner": "The address of which stores to get."
        },
        "return": "Array of addresses of stores."
      },
      "init()": {
        "details": "Initializes the msg sender as an owner account."
      },
      "isStoreOwner(address)": {
        "details": "Allows verifying whether the specified address is a store owner.",
        "params": {
          "_owner": "The address to be verified."
        },
        "return": "Boolean variable specifying whether the address is owner's or not."
      },
      "ownerWithdraw(address,uint256)": {
        "details": "Allows the current owner to withdraw funds from the marketplace.",
        "params": {
          "_amount": "The amount of the funds transferred.",
          "_recipient": "The address to transfer the funds to."
        }
      },
      "transferOwnership(address)": {
        "details": "Allows the current owner to transfer control of the contract to a new owner.",
        "params": {
          "_newOwner": "The address to transfer ownership to."
        }
      },
      "upgradeImplementation(address)": {
        "details": "Allows current owner to upgrade the implementation to which the `Forwardable` contract delegates calls.",
        "params": {
          "_newImplementation": "address of the new implementation."
        }
      }
    },
    "title": "MarketplaceManager"
  },
  "userdoc": {
    "methods": {}
  }
}