{
  "contractName": "Paused",
  "abi": [
    {
      "constant": false,
      "inputs": [
        {
          "name": "_ownerCandidate",
          "type": "address"
        },
        {
          "name": "_storeIndex",
          "type": "uint256"
        }
      ],
      "name": "requestOwnershipTransfer",
      "outputs": [],
      "payable": false,
      "stateMutability": "nonpayable",
      "type": "function"
    },
    {
      "constant": true,
      "inputs": [],
      "name": "paused",
      "outputs": [
        {
          "name": "",
          "type": "bool"
        }
      ],
      "payable": false,
      "stateMutability": "view",
      "type": "function"
    },
    {
      "constant": true,
      "inputs": [],
      "name": "ownerCandidate",
      "outputs": [
        {
          "name": "",
          "type": "address"
        }
      ],
      "payable": false,
      "stateMutability": "view",
      "type": "function"
    },
    {
      "constant": true,
      "inputs": [],
      "name": "owner",
      "outputs": [
        {
          "name": "",
          "type": "address"
        }
      ],
      "payable": false,
      "stateMutability": "view",
      "type": "function"
    },
    {
      "constant": true,
      "inputs": [],
      "name": "marketplace",
      "outputs": [
        {
          "name": "",
          "type": "address"
        }
      ],
      "payable": false,
      "stateMutability": "view",
      "type": "function"
    },
    {
      "constant": false,
      "inputs": [
        {
          "name": "_newStoreIndex",
          "type": "uint16"
        }
      ],
      "name": "approveOwnershipTransfer",
      "outputs": [],
      "payable": false,
      "stateMutability": "nonpayable",
      "type": "function"
    },
    {
      "constant": true,
      "inputs": [],
      "name": "storeIndex",
      "outputs": [
        {
          "name": "",
          "type": "uint256"
        }
      ],
      "payable": false,
      "stateMutability": "view",
      "type": "function"
    },
    {
      "anonymous": false,
      "inputs": [],
      "name": "LogPause",
      "type": "event"
    },
    {
      "anonymous": false,
      "inputs": [],
      "name": "LogUnpause",
      "type": "event"
    },
    {
      "anonymous": false,
      "inputs": [
        {
          "indexed": true,
          "name": "currentOwner",
          "type": "address"
        },
        {
          "indexed": true,
          "name": "ownerCandidate",
          "type": "address"
        },
        {
          "indexed": false,
          "name": "storeIndex",
          "type": "uint256"
        }
      ],
      "name": "LogOwnershipTransferRequested",
      "type": "event"
    },
    {
      "anonymous": false,
      "inputs": [
        {
          "indexed": true,
          "name": "previousOwner",
          "type": "address"
        },
        {
          "indexed": true,
          "name": "newOwner",
          "type": "address"
        }
      ],
      "name": "LogOwnershipTransferred",
      "type": "event"
    },
    {
      "constant": false,
      "inputs": [],
      "name": "pause",
      "outputs": [],
      "payable": false,
      "stateMutability": "nonpayable",
      "type": "function"
    },
    {
      "constant": false,
      "inputs": [],
      "name": "unpause",
      "outputs": [],
      "payable": false,
      "stateMutability": "nonpayable",
      "type": "function"
    }
  ],
  "bytecode": "0x60806040526000600460006101000a81548160ff02191690831515021790555034801561002b57600080fd5b50610a708061003b6000396000f300608060405260043610610099576000357c0100000000000000000000000000000000000000000000000000000000900463ffffffff1680632236ab5a1461009e5780633f4ba83a146100eb5780635c975abb146101025780635f504a82146101315780638456cb59146101885780638da5cb5b1461019f578063abc8c7af146101f6578063b21252b71461024d578063baa66e641461027e575b600080fd5b3480156100aa57600080fd5b506100e9600480360381019080803573ffffffffffffffffffffffffffffffffffffffff169060200190929190803590602001909291905050506102a9565b005b3480156100f757600080fd5b5061010061043f565b005b34801561010e57600080fd5b5061011761054c565b604051808215151515815260200191505060405180910390f35b34801561013d57600080fd5b5061014661055f565b604051808273ffffffffffffffffffffffffffffffffffffffff1673ffffffffffffffffffffffffffffffffffffffff16815260200191505060405180910390f35b34801561019457600080fd5b5061019d610585565b005b3480156101ab57600080fd5b506101b4610692565b604051808273ffffffffffffffffffffffffffffffffffffffff1673ffffffffffffffffffffffffffffffffffffffff16815260200191505060405180910390f35b34801561020257600080fd5b5061020b6106b7565b604051808273ffffffffffffffffffffffffffffffffffffffff1673ffffffffffffffffffffffffffffffffffffffff16815260200191505060405180910390f35b34801561025957600080fd5b5061027c600480360381019080803561ffff1690602001909291905050506106dd565b005b34801561028a57600080fd5b50610293610a3e565b6040518082815260200191505060405180910390f35b6000809054906101000a900473ffffffffffffffffffffffffffffffffffffffff1673ffffffffffffffffffffffffffffffffffffffff163373ffffffffffffffffffffffffffffffffffffffff1614151561036d576040517f08c379a00000000000000000000000000000000000000000000000000000000081526004018080602001828103825260208152602001807f546865206d73672073656e646572206d75737420626520746865206f776e657281525060200191505060405180910390fd5b8173ffffffffffffffffffffffffffffffffffffffff166000809054906101000a900473ffffffffffffffffffffffffffffffffffffffff1673ffffffffffffffffffffffffffffffffffffffff167ff4872fb89759e1cbf4e640b0d9c91adaf6397241fa58a8023bb11177cbb67356836040518082815260200191505060405180910390a381600260006101000a81548173ffffffffffffffffffffffffffffffffffffffff021916908373ffffffffffffffffffffffffffffffffffffffff160217905550806003819055505050565b6000809054906101000a900473ffffffffffffffffffffffffffffffffffffffff1673ffffffffffffffffffffffffffffffffffffffff163373ffffffffffffffffffffffffffffffffffffffff16141515610503576040517f08c379a00000000000000000000000000000000000000000000000000000000081526004018080602001828103825260208152602001807f546865206d73672073656e646572206d75737420626520746865206f776e657281525060200191505060405180910390fd5b7f730c1faaa977b67dacf1e2451ef54556e04a07d577785ff79f6d31f73502efc960405160405180910390a16000600460006101000a81548160ff021916908315150217905550565b600460009054906101000a900460ff1681565b600260009054906101000a900473ffffffffffffffffffffffffffffffffffffffff1681565b6000809054906101000a900473ffffffffffffffffffffffffffffffffffffffff1673ffffffffffffffffffffffffffffffffffffffff163373ffffffffffffffffffffffffffffffffffffffff16141515610649576040517f08c379a00000000000000000000000000000000000000000000000000000000081526004018080602001828103825260208152602001807f546865206d73672073656e646572206d75737420626520746865206f776e657281525060200191505060405180910390fd5b7f4b314b34e912fda7f95e7d23e9c8c95f82f0aff1984e4ce592a0b005f905562460405160405180910390a16001600460006101000a81548160ff021916908315150217905550565b6000809054906101000a900473ffffffffffffffffffffffffffffffffffffffff1681565b600160009054906101000a900473ffffffffffffffffffffffffffffffffffffffff1681565b6000600260009054906101000a900473ffffffffffffffffffffffffffffffffffffffff1673ffffffffffffffffffffffffffffffffffffffff163373ffffffffffffffffffffffffffffffffffffffff161415156107ca576040517f08c379a000000000000000000000000000000000000000000000000000000000815260040180806020018281038252602a8152602001807f546865206d73672073656e646572206d75737420626520746865206f776e657281526020017f2063616e6469646174650000000000000000000000000000000000000000000081525060400191505060405180910390fd5b600260009054906101000a900473ffffffffffffffffffffffffffffffffffffffff1673ffffffffffffffffffffffffffffffffffffffff166000809054906101000a900473ffffffffffffffffffffffffffffffffffffffff1673ffffffffffffffffffffffffffffffffffffffff167fdb6d05f3295cede580affa301a1eb5297528f3b3f6a56b075887ce6f61c45f2160405160405180910390a3600160009054906101000a900473ffffffffffffffffffffffffffffffffffffffff1690508073ffffffffffffffffffffffffffffffffffffffff1663cdc01ca36000809054906101000a900473ffffffffffffffffffffffffffffffffffffffff16600354600260009054906101000a900473ffffffffffffffffffffffffffffffffffffffff16866040518563ffffffff167c0100000000000000000000000000000000000000000000000000000000028152600401808573ffffffffffffffffffffffffffffffffffffffff1673ffffffffffffffffffffffffffffffffffffffff1681526020018461ffff1661ffff1681526020018373ffffffffffffffffffffffffffffffffffffffff1673ffffffffffffffffffffffffffffffffffffffff1681526020018261ffff1661ffff168152602001945050505050600060405180830381600087803b1580156109c057600080fd5b505af11580156109d4573d6000803e3d6000fd5b50505050600260009054906101000a900473ffffffffffffffffffffffffffffffffffffffff166000806101000a81548173ffffffffffffffffffffffffffffffffffffffff021916908373ffffffffffffffffffffffffffffffffffffffff1602179055505050565b600354815600a165627a7a723058208da05763a7d73c6a36c5e1477698430bf36fd39eb4dd16dab6de1a803de2e4f40029",
  "source": "pragma solidity 0.4.24;\n\nimport '../owners/StoreOwn.sol';\n\n\n/**\n * @title Paused\n * @dev Base contract which allows children to implement an emergency stop mechanism.\n */\ncontract Paused is StoreOwn {\n\tevent LogPause();\n\tevent LogUnpause();\n\n\tbool public paused = false;\n\n\t/**\n\t* @dev Modifier to make a function callable only when the contract is not paused.\n\t*/\n\tmodifier whenNotPaused() {\n\t\trequire(!paused, 'The contract must not be paused!');\n\t\t_;\n\t}\n\n\t/**\n\t* @dev called by the owner to pause, triggers stopped state\n\t*/\n\tfunction pause() public onlyOwner {\n\t\temit LogPause();\n\t\tpaused = true;\n\t}\n\n\t/**\n\t* @dev called by the owner to unpause, returns to normal state\n\t*/\n\tfunction unpause() public onlyOwner {\n\t\temit LogUnpause();\n\t\tpaused = false;\n\t}\n}\n",
  "sourcePath": "C:\\Users\\Trevor\\documents\\marketplace2\\Consensys-Marketplace-Final-Project-master\\contracts\\Process\\Paused.sol",
  "compiler": {
    "name": "solc",
    "version": "0.4.24+commit.e67f0147.Emscripten.clang"
  },
  "schemaVersion": "3.0.0",
  "updatedAt": "2019-01-24T18:58:43.136Z",
  "devdoc": {
    "methods": {
      "approveOwnershipTransfer(uint16)": {
        "details": "Allows owner candidate to approve the ownership of the contract.",
        "params": {
          "_newStoreIndex": "The index at which the new store to be set in the new owner's stores array."
        }
      },
      "pause()": {
        "details": "called by the owner to pause, triggers stopped state"
      },
      "requestOwnershipTransfer(address,uint256)": {
        "details": "Allows the current owner to transfer control of the contract to a new owner, who has to approve the ownership.",
        "params": {
          "_ownerCandidate": "The address to transfer ownership to.",
          "_storeIndex": "The index of the current store to be transferred."
        }
      },
      "unpause()": {
        "details": "called by the owner to unpause, returns to normal state"
      }
    },
    "title": "Paused"
  },
  "userdoc": {
    "methods": {
      "requestOwnershipTransfer(address,uint256)": {
        "notice": "The requirement for non-zero address of the `_ownerCandidate` is intentionally omitted due to the two-staged implementation."
      }
    }
  }
}