{
  "contractName": "SharedStorage",
  "abi": [
    {
      "constant": true,
      "inputs": [],
      "name": "contractImplementation",
      "outputs": [
        {
          "name": "",
          "type": "address"
        }
      ],
      "payable": false,
      "stateMutability": "view",
      "type": "function"
    }
  ],
  "bytecode": "0x608060405234801561001057600080fd5b5060e98061001f6000396000f300608060405260043610603f576000357c0100000000000000000000000000000000000000000000000000000000900463ffffffff1680639e72370b146044575b600080fd5b348015604f57600080fd5b5060566098565b604051808273ffffffffffffffffffffffffffffffffffffffff1673ffffffffffffffffffffffffffffffffffffffff16815260200191505060405180910390f35b6000809054906101000a900473ffffffffffffffffffffffffffffffffffffffff16815600a165627a7a723058202bb33eae81177868b80e02bf32092a632968797eb29bb735382e11d1cfbf00600029",
  "source": "pragma solidity 0.4.24;\n\n\n/**\n * @title SharedStorage\n * @dev base contract holding address of the contract implementation\n * @notice ideas and concepts derived from https://medium.com/limechain/smart-contract-upgradeability-ee3d43dde96c\n */\ncontract SharedStorage {\n\taddress public contractImplementation;\n}\n",
  "sourcePath": "C:\\Users\\Trevor\\documents\\marketplace2\\Consensys-Marketplace-Final-Project-master\\contracts\\upgrades\\SharedStorage.sol",
  "compiler": {
    "name": "solc",
    "version": "0.4.24+commit.e67f0147.Emscripten.clang"
  },
  "schemaVersion": "3.0.0",
  "updatedAt": "2019-01-24T18:58:43.094Z",
  "devdoc": {
    "methods": {},
    "title": "SharedStorage"
  },
  "userdoc": {
    "methods": {}
  }
}