{
  "contractName": "StoreManager",
  "abi": [
    {
      "constant": true,
      "inputs": [
        {
          "name": "",
          "type": "uint256"
        }
      ],
      "name": "storeOwners",
      "outputs": [
        {
          "name": "",
          "type": "address"
        }
      ],
      "payable": false,
      "stateMutability": "view",
      "type": "function",
      "signature": "0x44d50993"
    },
    {
      "constant": true,
      "inputs": [
        {
          "name": "",
          "type": "address"
        },
        {
          "name": "",
          "type": "uint256"
        }
      ],
      "name": "stores",
      "outputs": [
        {
          "name": "",
          "type": "address"
        }
      ],
      "payable": false,
      "stateMutability": "view",
      "type": "function",
      "signature": "0x54121c74"
    },
    {
      "constant": true,
      "inputs": [
        {
          "name": "_owner",
          "type": "address"
        }
      ],
      "name": "getStoresByOwner",
      "outputs": [
        {
          "name": "",
          "type": "address[]"
        }
      ],
      "payable": false,
      "stateMutability": "view",
      "type": "function",
      "signature": "0x544f2dc9"
    },
    {
      "constant": true,
      "inputs": [
        {
          "name": "_owner",
          "type": "address"
        }
      ],
      "name": "isStoreOwner",
      "outputs": [
        {
          "name": "",
          "type": "bool"
        }
      ],
      "payable": false,
      "stateMutability": "view",
      "type": "function",
      "signature": "0x5effd33c"
    },
    {
      "constant": false,
      "inputs": [
        {
          "name": "_newImplementation",
          "type": "address"
        }
      ],
      "name": "upgradeImplementation",
      "outputs": [],
      "payable": false,
      "stateMutability": "nonpayable",
      "type": "function",
      "signature": "0x83f94db7"
    },
    {
      "constant": true,
      "inputs": [],
      "name": "owner",
      "outputs": [
        {
          "name": "",
          "type": "address"
        }
      ],
      "payable": false,
      "stateMutability": "view",
      "type": "function",
      "signature": "0x8da5cb5b"
    },
    {
      "constant": true,
      "inputs": [],
      "name": "getStoreOwners",
      "outputs": [
        {
          "name": "",
          "type": "address[]"
        }
      ],
      "payable": false,
      "stateMutability": "view",
      "type": "function",
      "signature": "0x91f4245a"
    },
    {
      "constant": true,
      "inputs": [],
      "name": "contractImplementation",
      "outputs": [
        {
          "name": "",
          "type": "address"
        }
      ],
      "payable": false,
      "stateMutability": "view",
      "type": "function",
      "signature": "0x9e72370b"
    },
    {
      "constant": true,
      "inputs": [],
      "name": "nextRequestIndex",
      "outputs": [
        {
          "name": "",
          "type": "uint256"
        }
      ],
      "payable": false,
      "stateMutability": "view",
      "type": "function",
      "signature": "0xba327627"
    },
    {
      "constant": false,
      "inputs": [
        {
          "name": "_recipient",
          "type": "address"
        },
        {
          "name": "_amount",
          "type": "uint256"
        }
      ],
      "name": "ownerWithdraw",
      "outputs": [],
      "payable": false,
      "stateMutability": "nonpayable",
      "type": "function",
      "signature": "0xd9c88e14"
    },
    {
      "constant": false,
      "inputs": [],
      "name": "init",
      "outputs": [],
      "payable": false,
      "stateMutability": "nonpayable",
      "type": "function",
      "signature": "0xe1c7392a"
    },
    {
      "constant": true,
      "inputs": [],
      "name": "MAX_OWNER_STORES",
      "outputs": [
        {
          "name": "",
          "type": "uint24"
        }
      ],
      "payable": false,
      "stateMutability": "view",
      "type": "function",
      "signature": "0xea02301d"
    },
    {
      "constant": false,
      "inputs": [
        {
          "name": "_newOwner",
          "type": "address"
        }
      ],
      "name": "transferOwnership",
      "outputs": [],
      "payable": false,
      "stateMutability": "nonpayable",
      "type": "function",
      "signature": "0xf2fde38b"
    },
    {
      "constant": true,
      "inputs": [
        {
          "name": "",
          "type": "uint256"
        }
      ],
      "name": "storeRequests",
      "outputs": [
        {
          "name": "proposal",
          "type": "bytes32"
        },
        {
          "name": "owner",
          "type": "address"
        }
      ],
      "payable": false,
      "stateMutability": "view",
      "type": "function",
      "signature": "0xf7fb768a"
    },
    {
      "payable": true,
      "stateMutability": "payable",
      "type": "fallback"
    },
    {
      "anonymous": false,
      "inputs": [
        {
          "indexed": false,
          "name": "requestIndex",
          "type": "uint256"
        }
      ],
      "name": "LogStoreRequested",
      "type": "event",
      "signature": "0xa58e21a7ae8abba58dc26d0ed7bf75d1ef1187a0425f9bc13967abb32ce2b735"
    },
    {
      "anonymous": false,
      "inputs": [
        {
          "indexed": false,
          "name": "requestIndex",
          "type": "uint256"
        },
        {
          "indexed": true,
          "name": "owner",
          "type": "address"
        },
        {
          "indexed": false,
          "name": "store",
          "type": "address"
        }
      ],
      "name": "LogStoreApproved",
      "type": "event",
      "signature": "0x4be7aeadb5a587c0beb1e99498619ace054663b97b5232b670b228a1edd7deeb"
    },
    {
      "anonymous": false,
      "inputs": [
        {
          "indexed": true,
          "name": "owner",
          "type": "address"
        },
        {
          "indexed": true,
          "name": "store",
          "type": "address"
        }
      ],
      "name": "LogStoreRevoked",
      "type": "event",
      "signature": "0xacf9b268ec839b5c784d9f7e071b1ca310c2f573bf4e1cfae35c772a52732118"
    },
    {
      "anonymous": false,
      "inputs": [
        {
          "indexed": true,
          "name": "store",
          "type": "address"
        },
        {
          "indexed": false,
          "name": "amount",
          "type": "uint256"
        }
      ],
      "name": "LogStoreWithdrawal",
      "type": "event",
      "signature": "0x7e4aee517bf5ac4f9b1645b9567c3ab474e95c5c84d48136335f61a9aa6e8753"
    },
    {
      "anonymous": false,
      "inputs": [
        {
          "indexed": false,
          "name": "to",
          "type": "address"
        },
        {
          "indexed": false,
          "name": "amount",
          "type": "uint256"
        }
      ],
      "name": "LogOwnerWithdrawal",
      "type": "event",
      "signature": "0xa493e960de66ff5b6d1d6e19fc3fdeee4b4b5d01b686fde2dcc4b3354d27e97d"
    },
    {
      "anonymous": false,
      "inputs": [
        {
          "indexed": true,
          "name": "newImplementation",
          "type": "address"
        }
      ],
      "name": "LogUpgrContract",
      "type": "event",
      "signature": "0xb8b797c3bf34b5dc6502771e57add79d2be11b82acb67eb9af0867a59fd3aad0"
    },
    {
      "anonymous": false,
      "inputs": [
        {
          "indexed": true,
          "name": "previousOwner",
          "type": "address"
        },
        {
          "indexed": true,
          "name": "newOwner",
          "type": "address"
        }
      ],
      "name": "LogOwnershipTransferred",
      "type": "event",
      "signature": "0xdb6d05f3295cede580affa301a1eb5297528f3b3f6a56b075887ce6f61c45f21"
    },
    {
      "constant": false,
      "inputs": [
        {
          "name": "_storeOwner",
          "type": "address"
        },
        {
          "name": "_storeIndex",
          "type": "uint16"
        },
        {
          "name": "_newStoreOwner",
          "type": "address"
        },
        {
          "name": "_newOwnerStoreIndex",
          "type": "uint16"
        }
      ],
      "name": "transferStoreOwnership",
      "outputs": [],
      "payable": false,
      "stateMutability": "nonpayable",
      "type": "function",
      "signature": "0xcdc01ca3"
    },
    {
      "constant": false,
      "inputs": [
        {
          "name": "_proposal",
          "type": "bytes32"
        }
      ],
      "name": "requestStore",
      "outputs": [],
      "payable": false,
      "stateMutability": "nonpayable",
      "type": "function",
      "signature": "0x70ea43a3"
    },
    {
      "constant": false,
      "inputs": [
        {
          "name": "_isApproved",
          "type": "bool"
        },
        {
          "name": "_indexInStoresArray",
          "type": "uint16"
        }
      ],
      "name": "approveStore",
      "outputs": [],
      "payable": false,
      "stateMutability": "nonpayable",
      "type": "function",
      "signature": "0x3888ac91"
    },
    {
      "constant": false,
      "inputs": [
        {
          "name": "_storeOwner",
          "type": "address"
        },
        {
          "name": "_storeIndex",
          "type": "uint16"
        }
      ],
      "name": "revokeStore",
      "outputs": [],
      "payable": false,
      "stateMutability": "nonpayable",
      "type": "function",
      "signature": "0x9ce15d16"
    },
    {
      "constant": false,
      "inputs": [
        {
          "name": "_storeAddress",
          "type": "address"
        },
        {
          "name": "_amount",
          "type": "uint256"
        }
      ],
      "name": "withdrawFromStore",
      "outputs": [],
      "payable": false,
      "stateMutability": "nonpayable",
      "type": "function",
      "signature": "0x982e9b2f"
    }
  ],
  "bytecode": "0x608060405234801561001057600080fd5b50615f13806100206000396000f300608060405260043610610107576000357c0100000000000000000000000000000000000000000000000000000000900463ffffffff1680633888ac911461010957806344d509931461014657806354121c74146101b3578063544f2dc9146102405780635effd33c146102d857806370ea43a31461033357806383f94db7146103645780638da5cb5b146103a757806391f4245a146103fe578063982e9b2f1461046a5780639ce15d16146104b75780639e72370b14610508578063ba3276271461055f578063cdc01ca31461058a578063d9c88e1414610609578063e1c7392a14610656578063ea02301d1461066d578063f2fde38b146106a2578063f7fb768a146106e5575b005b34801561011557600080fd5b50610144600480360381019080803515159060200190929190803561ffff169060200190929190505050610761565b005b34801561015257600080fd5b5061017160048036038101908080359060200190929190505050610d8e565b604051808273ffffffffffffffffffffffffffffffffffffffff1673ffffffffffffffffffffffffffffffffffffffff16815260200191505060405180910390f35b3480156101bf57600080fd5b506101fe600480360381019080803573ffffffffffffffffffffffffffffffffffffffff16906020019092919080359060200190929190505050610dcc565b604051808273ffffffffffffffffffffffffffffffffffffffff1673ffffffffffffffffffffffffffffffffffffffff16815260200191505060405180910390f35b34801561024c57600080fd5b50610281600480360381019080803573ffffffffffffffffffffffffffffffffffffffff169060200190929190505050610e19565b6040518080602001828103825283818151815260200191508051906020019060200280838360005b838110156102c45780820151818401526020810190506102a9565b505050509050019250505060405180910390f35b3480156102e457600080fd5b50610319600480360381019080803573ffffffffffffffffffffffffffffffffffffffff169060200190929190505050610ee6565b604051808215151515815260200191505060405180910390f35b34801561033f57600080fd5b506103626004803603810190808035600019169060200190929190505050610f35565b005b34801561037057600080fd5b506103a5600480360381019080803573ffffffffffffffffffffffffffffffffffffffff1690602001909291905050506110d5565b005b3480156103b357600080fd5b506103bc6112c5565b604051808273ffffffffffffffffffffffffffffffffffffffff1673ffffffffffffffffffffffffffffffffffffffff16815260200191505060405180910390f35b34801561040a57600080fd5b506104136112eb565b6040518080602001828103825283818151815260200191508051906020019060200280838360005b8381101561045657808201518184015260208101905061043b565b505050509050019250505060405180910390f35b34801561047657600080fd5b506104b5600480360381019080803573ffffffffffffffffffffffffffffffffffffffff16906020019092919080359060200190929190505050611379565b005b3480156104c357600080fd5b50610506600480360381019080803573ffffffffffffffffffffffffffffffffffffffff169060200190929190803561ffff1690602001909291905050506118c4565b005b34801561051457600080fd5b5061051d611e38565b604051808273ffffffffffffffffffffffffffffffffffffffff1673ffffffffffffffffffffffffffffffffffffffff16815260200191505060405180910390f35b34801561056b57600080fd5b50610574611e5d565b6040518082815260200191505060405180910390f35b34801561059657600080fd5b50610607600480360381019080803573ffffffffffffffffffffffffffffffffffffffff169060200190929190803561ffff169060200190929190803573ffffffffffffffffffffffffffffffffffffffff169060200190929190803561ffff169060200190929190505050611e63565b005b34801561061557600080fd5b50610654600480360381019080803573ffffffffffffffffffffffffffffffffffffffff1690602001909291908035906020019092919050505061271a565b005b34801561066257600080fd5b5061066b612a91565b005b34801561067957600080fd5b50610682612b9a565b604051808262ffffff1662ffffff16815260200191505060405180910390f35b3480156106ae57600080fd5b506106e3600480360381019080803573ffffffffffffffffffffffffffffffffffffffff169060200190929190505050612ba1565b005b3480156106f157600080fd5b5061071060048036038101908080359060200190929190505050612dcb565b6040518083600019166000191681526020018273ffffffffffffffffffffffffffffffffffffffff1673ffffffffffffffffffffffffffffffffffffffff1681526020019250505060405180910390f35b600080600080600160009054906101000a900473ffffffffffffffffffffffffffffffffffffffff1673ffffffffffffffffffffffffffffffffffffffff163373ffffffffffffffffffffffffffffffffffffffff1614151561082c576040517f08c379a000000000000000000000000000000000000000000000000000000000815260040180806020018281038252601a8152602001807f4d73672073656e646572206973206e6f7420616e206f776e657200000000000081525060200191505060405180910390fd5b6005805490506004541015156108aa576040517f08c379a00000000000000000000000000000000000000000000000000000000081526004018080602001828103825260188152602001807f526571756573747320717565756520697320656d70747921000000000000000081525060200191505060405180910390fd5b8515156108c857600460008154809291906001019190505550610d86565b60056004548154811015156108d957fe5b906000526020600020906002020160010160009054906101000a900473ffffffffffffffffffffffffffffffffffffffff169350600360008573ffffffffffffffffffffffffffffffffffffffff1673ffffffffffffffffffffffffffffffffffffffff168152602001908152602001600020925082805490509150818561ffff16111515156109f7576040517f08c379a00000000000000000000000000000000000000000000000000000000081526004018080602001828103825260238152602001807f496e64657820696e2073746f726573206172726179206f7574206f662072616e81526020017f676521000000000000000000000000000000000000000000000000000000000081525060400191505060405180910390fd5b6201000062ffffff168211151515610a9d576040517f08c379a000000000000000000000000000000000000000000000000000000000815260040180806020018281038252602c8152602001807f596f75206861766520686974207468652073746f72657320706572206f776e6581526020017f72206d6178206c696d697421000000000000000000000000000000000000000081525060400191505060405180910390fd5b610aa684612e1e565b90508373ffffffffffffffffffffffffffffffffffffffff167f4be7aeadb5a587c0beb1e99498619ace054663b97b5232b670b228a1edd7deeb60045483604051808381526020018273ffffffffffffffffffffffffffffffffffffffff1673ffffffffffffffffffffffffffffffffffffffff1681526020019250505060405180910390a2600460008154809291906001019190505550818561ffff161415610c24576000821415610bba5760028490806001815401808255809150509060018203906000526020600020016000909192909190916101000a81548173ffffffffffffffffffffffffffffffffffffffff021916908373ffffffffffffffffffffffffffffffffffffffff160217905550505b828190806001815401808255809150509060018203906000526020600020016000909192909190916101000a81548173ffffffffffffffffffffffffffffffffffffffff021916908373ffffffffffffffffffffffffffffffffffffffff16021790555050610d86565b600073ffffffffffffffffffffffffffffffffffffffff16838661ffff16815481101515610c4e57fe5b9060005260206000200160009054906101000a900473ffffffffffffffffffffffffffffffffffffffff1673ffffffffffffffffffffffffffffffffffffffff16141515610d2a576040517f08c379a00000000000000000000000000000000000000000000000000000000081526004018080602001828103825260318152602001807f5468652073706563696669656420696e64657820696e207468652073746f726581526020017f732061727261792069732074616b656e2100000000000000000000000000000081525060400191505060405180910390fd5b80838661ffff16815481101515610d3d57fe5b9060005260206000200160006101000a81548173ffffffffffffffffffffffffffffffffffffffff021916908373ffffffffffffffffffffffffffffffffffffffff1602179055505b505050505050565b600281815481101515610d9d57fe5b906000526020600020016000915054906101000a900473ffffffffffffffffffffffffffffffffffffffff1681565b600360205281600052604060002081815481101515610de757fe5b906000526020600020016000915091509054906101000a900473ffffffffffffffffffffffffffffffffffffffff1681565b6060600360008373ffffffffffffffffffffffffffffffffffffffff1673ffffffffffffffffffffffffffffffffffffffff168152602001908152602001600020805480602002602001604051908101604052809291908181526020018280548015610eda57602002820191906000526020600020905b8160009054906101000a900473ffffffffffffffffffffffffffffffffffffffff1673ffffffffffffffffffffffffffffffffffffffff1681526020019060010190808311610e90575b50505050509050919050565b600080600360008473ffffffffffffffffffffffffffffffffffffffff1673ffffffffffffffffffffffffffffffffffffffff1681526020019081526020016000208054905014159050919050565b600080600102826000191614151515610fdc576040517f08c379a00000000000000000000000000000000000000000000000000000000081526004018080602001828103825260288152602001807f53746f726520726571756573742070726f706f73616c2063616e206e6f74206281526020017f6520656d7074792100000000000000000000000000000000000000000000000081525060400191505060405180910390fd5b60058054905090507fa58e21a7ae8abba58dc26d0ed7bf75d1ef1187a0425f9bc13967abb32ce2b735816040518082815260200191505060405180910390a160056040805190810160405280846000191681526020013373ffffffffffffffffffffffffffffffffffffffff16815250908060018154018082558091505090600182039060005260206000209060020201600090919290919091506000820151816000019060001916905560208201518160010160006101000a81548173ffffffffffffffffffffffffffffffffffffffff021916908373ffffffffffffffffffffffffffffffffffffffff1602179055505050505050565b600160009054906101000a900473ffffffffffffffffffffffffffffffffffffffff1673ffffffffffffffffffffffffffffffffffffffff163373ffffffffffffffffffffffffffffffffffffffff1614151561119a576040517f08c379a000000000000000000000000000000000000000000000000000000000815260040180806020018281038252601a8152602001807f4d73672073656e646572206973206e6f7420616e206f776e657200000000000081525060200191505060405180910390fd5b600073ffffffffffffffffffffffffffffffffffffffff168173ffffffffffffffffffffffffffffffffffffffff161415151561123f576040517f08c379a000000000000000000000000000000000000000000000000000000000815260040180806020018281038252601f8152602001807f5f6e6577496d706c656d656e746174696f6e2063616e206e6f7420626520300081525060200191505060405180910390fd5b8073ffffffffffffffffffffffffffffffffffffffff167fb8b797c3bf34b5dc6502771e57add79d2be11b82acb67eb9af0867a59fd3aad060405160405180910390a2806000806101000a81548173ffffffffffffffffffffffffffffffffffffffff021916908373ffffffffffffffffffffffffffffffffffffffff16021790555050565b600160009054906101000a900473ffffffffffffffffffffffffffffffffffffffff1681565b6060600280548060200260200160405190810160405280929190818152602001828054801561136f57602002820191906000526020600020905b8160009054906101000a900473ffffffffffffffffffffffffffffffffffffffff1673ffffffffffffffffffffffffffffffffffffffff1681526020019060010190808311611325575b5050505050905090565b6000806000806000600160009054906101000a900473ffffffffffffffffffffffffffffffffffffffff1673ffffffffffffffffffffffffffffffffffffffff163373ffffffffffffffffffffffffffffffffffffffff16141515611446576040517f08c379a000000000000000000000000000000000000000000000000000000000815260040180806020018281038252601a8152602001807f4d73672073656e646572206973206e6f7420616e206f776e657200000000000081525060200191505060405180910390fd5b86600073ffffffffffffffffffffffffffffffffffffffff168173ffffffffffffffffffffffffffffffffffffffff1614151515611512576040517f08c379a00000000000000000000000000000000000000000000000000000000081526004018080602001828103825260248152602001807f5370656369666965642061646472657373206d757374206e6f7420626520656d81526020017f707479210000000000000000000000000000000000000000000000000000000081525060400191505060405180910390fd5b866000811115156115b1576040517f08c379a00000000000000000000000000000000000000000000000000000000081526004018080602001828103825260218152602001807f5a65726f2076616c7565207472616e7366657273206e6f7420616c6c6f77656481526020017f210000000000000000000000000000000000000000000000000000000000000081525060400191505060405180910390fd5b8896503073ffffffffffffffffffffffffffffffffffffffff163195508673ffffffffffffffffffffffffffffffffffffffff16635030025a6040518163ffffffff167c0100000000000000000000000000000000000000000000000000000000028152600401602060405180830381600087803b15801561163257600080fd5b505af1158015611646573d6000803e3d6000fd5b505050506040513d602081101561165c57600080fd5b8101908080519060200190929190505050945084881015151561170d576040517f08c379a00000000000000000000000000000000000000000000000000000000081526004018080602001828103825260308152602001807f4d61726b6574706c6163652053746f72652042616c616e636520746f6f20736d81526020017f616c6c20746f207769746864726177210000000000000000000000000000000081525060400191505060405180910390fd5b8673ffffffffffffffffffffffffffffffffffffffff167f7e4aee517bf5ac4f9b1645b9567c3ab474e95c5c84d48136335f61a9aa6e8753896040518082815260200191505060405180910390a28673ffffffffffffffffffffffffffffffffffffffff1663dd72ed46896040518263ffffffff167c010000000000000000000000000000000000000000000000000000000002815260040180828152602001915050600060405180830381600087803b1580156117ca57600080fd5b505af11580156117de573d6000803e3d6000fd5b505050503073ffffffffffffffffffffffffffffffffffffffff163193508673ffffffffffffffffffffffffffffffffffffffff16635030025a6040518163ffffffff167c0100000000000000000000000000000000000000000000000000000000028152600401602060405180830381600087803b15801561186057600080fd5b505af1158015611874573d6000803e3d6000fd5b505050506040513d602081101561188a57600080fd5b8101908080519060200190929190505050925087860184101515156118ab57fe5b87850383101515156118b957fe5b505050505050505050565b600080600160009054906101000a900473ffffffffffffffffffffffffffffffffffffffff1673ffffffffffffffffffffffffffffffffffffffff163373ffffffffffffffffffffffffffffffffffffffff1614151561198c576040517f08c379a000000000000000000000000000000000000000000000000000000000815260040180806020018281038252601a8152602001807f4d73672073656e646572206973206e6f7420616e206f776e657200000000000081525060200191505060405180910390fd5b83600073ffffffffffffffffffffffffffffffffffffffff168173ffffffffffffffffffffffffffffffffffffffff1614151515611a58576040517f08c379a00000000000000000000000000000000000000000000000000000000081526004018080602001828103825260248152602001807f5370656369666965642061646472657373206d757374206e6f7420626520656d81526020017f707479210000000000000000000000000000000000000000000000000000000081525060400191505060405180910390fd5b8484600360008373ffffffffffffffffffffffffffffffffffffffff1673ffffffffffffffffffffffffffffffffffffffff168152602001908152602001600020805490508161ffff16101515611b17576040517f08c379a00000000000000000000000000000000000000000000000000000000081526004018080602001828103825260138152602001807f496e646578206f7574206f662072616e6765210000000000000000000000000081525060200191505060405180910390fd5b600360008873ffffffffffffffffffffffffffffffffffffffff1673ffffffffffffffffffffffffffffffffffffffff1681526020019081526020016000208661ffff16815481101515611b6757fe5b9060005260206000200160009054906101000a900473ffffffffffffffffffffffffffffffffffffffff169450600073ffffffffffffffffffffffffffffffffffffffff16600360008973ffffffffffffffffffffffffffffffffffffffff1673ffffffffffffffffffffffffffffffffffffffff1681526020019081526020016000208761ffff16815481101515611bfc57fe5b9060005260206000200160009054906101000a900473ffffffffffffffffffffffffffffffffffffffff1673ffffffffffffffffffffffffffffffffffffffff1614151515611cd9576040517f08c379a00000000000000000000000000000000000000000000000000000000081526004018080602001828103825260278152602001807f5370656369666965642073746f726520646f6573206e6f74206578697374206181526020017f6e796d6f7265210000000000000000000000000000000000000000000000000081525060400191505060405180910390fd5b8473ffffffffffffffffffffffffffffffffffffffff168773ffffffffffffffffffffffffffffffffffffffff167facf9b268ec839b5c784d9f7e071b1ca310c2f573bf4e1cfae35c772a5273211860405160405180910390a38493508373ffffffffffffffffffffffffffffffffffffffff166383197ef06040518163ffffffff167c0100000000000000000000000000000000000000000000000000000000028152600401600060405180830381600087803b158015611d9a57600080fd5b505af1158015611dae573d6000803e3d6000fd5b50505050600360008873ffffffffffffffffffffffffffffffffffffffff1673ffffffffffffffffffffffffffffffffffffffff1681526020019081526020016000208661ffff16815481101515611e0257fe5b9060005260206000200160006101000a81549073ffffffffffffffffffffffffffffffffffffffff021916905550505050505050565b6000809054906101000a900473ffffffffffffffffffffffffffffffffffffffff1681565b60045481565b600084600073ffffffffffffffffffffffffffffffffffffffff168173ffffffffffffffffffffffffffffffffffffffff1614151515611f31576040517f08c379a00000000000000000000000000000000000000000000000000000000081526004018080602001828103825260248152602001807f5370656369666965642061646472657373206d757374206e6f7420626520656d81526020017f707479210000000000000000000000000000000000000000000000000000000081525060400191505060405180910390fd5b8585600360008373ffffffffffffffffffffffffffffffffffffffff1673ffffffffffffffffffffffffffffffffffffffff168152602001908152602001600020805490508161ffff16101515611ff0576040517f08c379a00000000000000000000000000000000000000000000000000000000081526004018080602001828103825260138152602001807f496e646578206f7574206f662072616e6765210000000000000000000000000081525060200191505060405180910390fd5b8787600360008373ffffffffffffffffffffffffffffffffffffffff1673ffffffffffffffffffffffffffffffffffffffff1681526020019081526020016000208161ffff1681548110151561204257fe5b9060005260206000200160009054906101000a900473ffffffffffffffffffffffffffffffffffffffff1673ffffffffffffffffffffffffffffffffffffffff163373ffffffffffffffffffffffffffffffffffffffff16141515612135576040517f08c379a000000000000000000000000000000000000000000000000000000000815260040180806020018281038252602b8152602001807f546865206d73672073656e646572206d7573742062652074686520737065636981526020017f666965642073746f72652100000000000000000000000000000000000000000081525060400191505060405180910390fd5b87600073ffffffffffffffffffffffffffffffffffffffff168173ffffffffffffffffffffffffffffffffffffffff1614151515612201576040517f08c379a00000000000000000000000000000000000000000000000000000000081526004018080602001828103825260248152602001807f5370656369666965642061646472657373206d757374206e6f7420626520656d81526020017f707479210000000000000000000000000000000000000000000000000000000081525060400191505060405180910390fd5b600360008a73ffffffffffffffffffffffffffffffffffffffff1673ffffffffffffffffffffffffffffffffffffffff168152602001908152602001600020805490509650868861ffff16111515156122e8576040517f08c379a00000000000000000000000000000000000000000000000000000000081526004018080602001828103825260238152602001807f4e6577206f776e65722073746f726520696e646578206f7574206f662072616e81526020017f676521000000000000000000000000000000000000000000000000000000000081525060400191505060405180910390fd5b6201000062ffffff16871115151561238e576040517f08c379a000000000000000000000000000000000000000000000000000000000815260040180806020018281038252602c8152602001807f596f75206861766520686974207468652073746f72657320706572206f776e6581526020017f72206d6178206c696d697421000000000000000000000000000000000000000081525060400191505060405180910390fd5b600360008c73ffffffffffffffffffffffffffffffffffffffff1673ffffffffffffffffffffffffffffffffffffffff1681526020019081526020016000208a61ffff168154811015156123de57fe5b9060005260206000200160006101000a81549073ffffffffffffffffffffffffffffffffffffffff0219169055868861ffff16141561252f5760008714156124875760028990806001815401808255809150509060018203906000526020600020016000909192909190916101000a81548173ffffffffffffffffffffffffffffffffffffffff021916908373ffffffffffffffffffffffffffffffffffffffff160217905550505b600360008a73ffffffffffffffffffffffffffffffffffffffff1673ffffffffffffffffffffffffffffffffffffffff1681526020019081526020016000203390806001815401808255809150509060018203906000526020600020016000909192909190916101000a81548173ffffffffffffffffffffffffffffffffffffffff021916908373ffffffffffffffffffffffffffffffffffffffff1602179055505061270d565b600073ffffffffffffffffffffffffffffffffffffffff16600360008b73ffffffffffffffffffffffffffffffffffffffff1673ffffffffffffffffffffffffffffffffffffffff1681526020019081526020016000208961ffff1681548110151561259757fe5b9060005260206000200160009054906101000a900473ffffffffffffffffffffffffffffffffffffffff1673ffffffffffffffffffffffffffffffffffffffff16141515612673576040517f08c379a00000000000000000000000000000000000000000000000000000000081526004018080602001828103825260318152602001807f5468652073706563696669656420696e64657820696e207468652073746f726581526020017f732061727261792069732074616b656e2100000000000000000000000000000081525060400191505060405180910390fd5b33600360008b73ffffffffffffffffffffffffffffffffffffffff1673ffffffffffffffffffffffffffffffffffffffff1681526020019081526020016000208961ffff168154811015156126c457fe5b9060005260206000200160006101000a81548173ffffffffffffffffffffffffffffffffffffffff021916908373ffffffffffffffffffffffffffffffffffffffff1602179055505b5050505050505050505050565b600160009054906101000a900473ffffffffffffffffffffffffffffffffffffffff1673ffffffffffffffffffffffffffffffffffffffff163373ffffffffffffffffffffffffffffffffffffffff161415156127df576040517f08c379a000000000000000000000000000000000000000000000000000000000815260040180806020018281038252601a8152602001807f4d73672073656e646572206973206e6f7420616e206f776e657200000000000081525060200191505060405180910390fd5b81600073ffffffffffffffffffffffffffffffffffffffff168173ffffffffffffffffffffffffffffffffffffffff16141515156128ab576040517f08c379a00000000000000000000000000000000000000000000000000000000081526004018080602001828103825260248152602001807f5370656369666965642061646472657373206d757374206e6f7420626520656d81526020017f707479210000000000000000000000000000000000000000000000000000000081525060400191505060405180910390fd5b8160008111151561294a576040517f08c379a00000000000000000000000000000000000000000000000000000000081526004018080602001828103825260218152602001807f5a65726f2076616c7565207472616e7366657273206e6f7420616c6c6f77656481526020017f210000000000000000000000000000000000000000000000000000000000000081525060400191505060405180910390fd5b3073ffffffffffffffffffffffffffffffffffffffff163183111515156129d9576040517f08c379a000000000000000000000000000000000000000000000000000000000815260040180806020018281038252601f8152602001807f596f75722062616c616e6365206973206e6f742073756666696369656e74210081525060200191505060405180910390fd5b7fa493e960de66ff5b6d1d6e19fc3fdeee4b4b5d01b686fde2dcc4b3354d27e97d8484604051808373ffffffffffffffffffffffffffffffffffffffff1673ffffffffffffffffffffffffffffffffffffffff1681526020018281526020019250505060405180910390a18373ffffffffffffffffffffffffffffffffffffffff166108fc849081150290604051600060405180830381858888f19350505050158015612a8a573d6000803e3d6000fd5b5050505050565b600073ffffffffffffffffffffffffffffffffffffffff16600160009054906101000a900473ffffffffffffffffffffffffffffffffffffffff1673ffffffffffffffffffffffffffffffffffffffff16141515612b57576040517f08c379a000000000000000000000000000000000000000000000000000000000815260040180806020018281038252601a8152602001807f436f6e747261637420616c726561647920686173206f776e657200000000000081525060200191505060405180910390fd5b33600160006101000a81548173ffffffffffffffffffffffffffffffffffffffff021916908373ffffffffffffffffffffffffffffffffffffffff160217905550565b6201000081565b600160009054906101000a900473ffffffffffffffffffffffffffffffffffffffff1673ffffffffffffffffffffffffffffffffffffffff163373ffffffffffffffffffffffffffffffffffffffff16141515612c66576040517f08c379a000000000000000000000000000000000000000000000000000000000815260040180806020018281038252601a8152602001807f4d73672073656e646572206973206e6f7420616e206f776e657200000000000081525060200191505060405180910390fd5b600073ffffffffffffffffffffffffffffffffffffffff168173ffffffffffffffffffffffffffffffffffffffff1614151515612d0b576040517f08c379a000000000000000000000000000000000000000000000000000000000815260040180806020018281038252601e8152602001807f5f6e65774f776e657220616464726573732063616e206e6f742062652030000081525060200191505060405180910390fd5b8073ffffffffffffffffffffffffffffffffffffffff16600160009054906101000a900473ffffffffffffffffffffffffffffffffffffffff1673ffffffffffffffffffffffffffffffffffffffff167fdb6d05f3295cede580affa301a1eb5297528f3b3f6a56b075887ce6f61c45f2160405160405180910390a380600160006101000a81548173ffffffffffffffffffffffffffffffffffffffff021916908373ffffffffffffffffffffffffffffffffffffffff16021790555050565b600581815481101515612dda57fe5b90600052602060002090600202016000915090508060000154908060010160009054906101000a900473ffffffffffffffffffffffffffffffffffffffff16905082565b60008082612e2a612e88565b808273ffffffffffffffffffffffffffffffffffffffff1673ffffffffffffffffffffffffffffffffffffffff168152602001915050604051809103906000f080158015612e7c573d6000803e3d6000fd5b50905080915050919050565b60405161304f80612e9983390190560060806040526000600460006101000a81548160ff02191690831515021790555034801561002b57600080fd5b5060405160208061304f8339810180604052810190808051906020019092919050505080600073ffffffffffffffffffffffffffffffffffffffff168173ffffffffffffffffffffffffffffffffffffffff16141515156100f4576040517f08c379a00000000000000000000000000000000000000000000000000000000081526004018080602001828103825260178152602001807f53686f70206f776e6572206d757374206265207365742100000000000000000081525060200191505060405180910390fd5b806000806101000a81548173ffffffffffffffffffffffffffffffffffffffff021916908373ffffffffffffffffffffffffffffffffffffffff16021790555033600160006101000a81548173ffffffffffffffffffffffffffffffffffffffff021916908373ffffffffffffffffffffffffffffffffffffffff1602179055505050612ec9806101866000396000f300608060405260043610610149576000357c0100000000000000000000000000000000000000000000000000000000900463ffffffff1680630a843d451461014b5780630d6c6230146101955780632236ab5a146101c75780633f4ba83a146102145780634909bfc81461022b5780635030025a1461026a5780635c975abb146102955780635f504a82146102c45780636290d8a31461031b5780636d2fe78d146103595780637acc0b20146103b157806383197ef0146104125780638456cb5914610429578063864cb90f146104405780638da5cb5b14610475578063abc8c7af146104cc578063b21252b714610523578063baa66e6414610554578063bbc2986c1461057f578063c0d7c3ec146105ba578063c0f21a20146105eb578063d9c88e1414610620578063dd72ed461461066d578063f1f5e4691461069a578063fce5e67f146106e3575b005b34801561015757600080fd5b50610193600480360381019080803561ffff19169060200190929190803561ffff16906020019092919080359060200190929190505050610722565b005b6101c5600480360381019080803561ffff169060200190929190803561ffff169060200190929190505050610a2d565b005b3480156101d357600080fd5b50610212600480360381019080803573ffffffffffffffffffffffffffffffffffffffff16906020019092919080359060200190929190505050610db6565b005b34801561022057600080fd5b50610229610f4c565b005b34801561023757600080fd5b50610268600480360381019080803561ffff169060200190929190803561ffff169060200190929190505050611059565b005b34801561027657600080fd5b5061027f6112cc565b6040518082815260200191505060405180910390f35b3480156102a157600080fd5b506102aa6112d2565b604051808215151515815260200191505060405180910390f35b3480156102d057600080fd5b506102d96112e5565b604051808273ffffffffffffffffffffffffffffffffffffffff1673ffffffffffffffffffffffffffffffffffffffff16815260200191505060405180910390f35b34801561032757600080fd5b50610357600480360381019080803560ff169060200190929190803561ffff16906020019092919050505061130b565b005b34801561036557600080fd5b506103af600480360381019080803561ffff169060200190929190803561ffff19169060200190929190803561ffff16906020019092919080359060200190929190505050611508565b005b3480156103bd57600080fd5b506103dc600480360381019080803590602001909291905050506117f5565b604051808461ffff191661ffff191681526020018361ffff1661ffff168152602001828152602001935050505060405180910390f35b34801561041e57600080fd5b5061042761184b565b005b34801561043557600080fd5b5061043e611a32565b005b34801561044c57600080fd5b50610455611b3f565b604051808262ffffff1662ffffff16815260200191505060405180910390f35b34801561048157600080fd5b5061048a611b46565b604051808273ffffffffffffffffffffffffffffffffffffffff1673ffffffffffffffffffffffffffffffffffffffff16815260200191505060405180910390f35b3480156104d857600080fd5b506104e1611b6b565b604051808273ffffffffffffffffffffffffffffffffffffffff1673ffffffffffffffffffffffffffffffffffffffff16815260200191505060405180910390f35b34801561052f57600080fd5b50610552600480360381019080803561ffff169060200190929190505050611b91565b005b34801561056057600080fd5b50610569611ef2565b6040518082815260200191505060405180910390f35b34801561058b57600080fd5b506105b8600480360381019080803561ffff16906020019092919080359060200190929190505050611ef8565b005b3480156105c657600080fd5b506105e9600480360381019080803561ffff1690602001909291905050506120ae565b005b3480156105f757600080fd5b506106006122a4565b604051808262ffffff1662ffffff16815260200191505060405180910390f35b34801561062c57600080fd5b5061066b600480360381019080803573ffffffffffffffffffffffffffffffffffffffff169060200190929190803590602001909291905050506122ab565b005b34801561067957600080fd5b5061069860048036038101908080359060200190929190505050612635565b005b3480156106a657600080fd5b506106c56004803603810190808035906020019092919050505061291e565b604051808261ffff1661ffff16815260200191505060405180910390f35b3480156106ef57600080fd5b50610720600480360381019080803561ffff169060200190929190803561ffff16906020019092919050505061294b565b005b60008060009054906101000a900473ffffffffffffffffffffffffffffffffffffffff1673ffffffffffffffffffffffffffffffffffffffff163373ffffffffffffffffffffffffffffffffffffffff161415156107e8576040517f08c379a00000000000000000000000000000000000000000000000000000000081526004018080602001828103825260208152602001807f546865206d73672073656e646572206d75737420626520746865206f776e657281525060200191505060405180910390fd5b83600062010000028161ffff19161415151561086c576040517f08c379a000000000000000000000000000000000000000000000000000000000815260040180806020018281038252601d8152602001807f4465736372697074696f6e2063616e206e6f7420626520626c616e6b2100000081525060200191505060405180910390fd5b60068054905091506201000062ffffff16821115151561091a576040517f08c379a000000000000000000000000000000000000000000000000000000000815260040180806020018281038252602e8152602001807f596f75206861766520686974207468652070726f64756374732070657220737481526020017f6f7265206d6178206c696d69742100000000000000000000000000000000000081525060400191505060405180910390fd5b7f9f9f00d29958c136d278eabcaccac356ca158a40e1ee81da3e270624c2bdbd8b8286604051808381526020018261ffff191661ffff191681526020019250505060405180910390a160066060604051908101604052808761ffff191681526020018661ffff168152602001858152509080600181540180825580915050906001820390600052602060002090600202016000909192909190915060008201518160000160006101000a8154817dffffffffffffffffffffffffffffffffffffffffffffffffffffffffffff02191690836201000090040217905550602082015181600001601e6101000a81548161ffff021916908361ffff160217905550604082015181600101555050505050505050565b600460009054906101000a900460ff16151515610ab2576040517f08c379a00000000000000000000000000000000000000000000000000000000081526004018080602001828103825260208152602001807f54686520636f6e7472616374206d757374206e6f74206265207061757365642181525060200191505060405180910390fd5b816006805490508161ffff16101515610b33576040517f08c379a00000000000000000000000000000000000000000000000000000000081526004018080602001828103825260138152602001807f496e646578206f7574206f662072616e6765210000000000000000000000000081525060200191505060405180910390fd5b60008261ffff16111515610bd5576040517f08c379a00000000000000000000000000000000000000000000000000000000081526004018080602001828103825260238152602001807f5a65726f207175616e74697479207075726368617365206e6f7420616c6c6f7781526020017f656421000000000000000000000000000000000000000000000000000000000081525060400191505060405180910390fd5b610c108261ffff1660068561ffff16815481101515610bf057fe5b906000526020600020906002020160010154612bbe90919063ffffffff16565b3410151515610cad576040517f08c379a000000000000000000000000000000000000000000000000000000000815260040180806020018281038252602b8152602001807f596f7520686176652073656e7420696e73756666696369656e7420616d6f756e81526020017f74206f662066756e64732100000000000000000000000000000000000000000081525060400191505060405180910390fd5b7f791a6d42a06f5d184e3d463d1f346ae86e918a801860185dc59309991c323b4e838334604051808461ffff1681526020018361ffff168152602001828152602001935050505060405180910390a1610d458260068561ffff16815481101515610d1357fe5b9060005260206000209060020201600001601e9054906101000a900461ffff1661ffff16612c6590919063ffffffff16565b60068461ffff16815481101515610d5857fe5b9060005260206000209060020201600001601e6101000a81548161ffff021916908361ffff160217905550610dab620f424062ffffff1634811515610d9957fe5b04600554612cf790919063ffffffff16565b600581905550505050565b6000809054906101000a900473ffffffffffffffffffffffffffffffffffffffff1673ffffffffffffffffffffffffffffffffffffffff163373ffffffffffffffffffffffffffffffffffffffff16141515610e7a576040517f08c379a00000000000000000000000000000000000000000000000000000000081526004018080602001828103825260208152602001807f546865206d73672073656e646572206d75737420626520746865206f776e657281525060200191505060405180910390fd5b8173ffffffffffffffffffffffffffffffffffffffff166000809054906101000a900473ffffffffffffffffffffffffffffffffffffffff1673ffffffffffffffffffffffffffffffffffffffff167ff4872fb89759e1cbf4e640b0d9c91adaf6397241fa58a8023bb11177cbb67356836040518082815260200191505060405180910390a381600260006101000a81548173ffffffffffffffffffffffffffffffffffffffff021916908373ffffffffffffffffffffffffffffffffffffffff160217905550806003819055505050565b6000809054906101000a900473ffffffffffffffffffffffffffffffffffffffff1673ffffffffffffffffffffffffffffffffffffffff163373ffffffffffffffffffffffffffffffffffffffff16141515611010576040517f08c379a00000000000000000000000000000000000000000000000000000000081526004018080602001828103825260208152602001807f546865206d73672073656e646572206d75737420626520746865206f776e657281525060200191505060405180910390fd5b7f730c1faaa977b67dacf1e2451ef54556e04a07d577785ff79f6d31f73502efc960405160405180910390a16000600460006101000a81548160ff021916908315150217905550565b6000809054906101000a900473ffffffffffffffffffffffffffffffffffffffff1673ffffffffffffffffffffffffffffffffffffffff163373ffffffffffffffffffffffffffffffffffffffff1614151561111d576040517f08c379a00000000000000000000000000000000000000000000000000000000081526004018080602001828103825260208152602001807f546865206d73672073656e646572206d75737420626520746865206f776e657281525060200191505060405180910390fd5b816006805490508161ffff1610151561119e576040517f08c379a00000000000000000000000000000000000000000000000000000000081526004018080602001828103825260138152602001807f496e646578206f7574206f662072616e6765210000000000000000000000000081525060200191505060405180910390fd5b60008261ffff16111515611240576040517f08c379a00000000000000000000000000000000000000000000000000000000081526004018080602001828103825260248152602001807f496e6372656173656d656e74206d75737420626520677265617465722074686181526020017f6e2030210000000000000000000000000000000000000000000000000000000081525060400191505060405180910390fd5b6112898260068561ffff1681548110151561125757fe5b9060005260206000209060020201600001601e9054906101000a900461ffff1661ffff16612d8190919063ffffffff16565b60068461ffff1681548110151561129c57fe5b9060005260206000209060020201600001601e6101000a81548161ffff021916908361ffff160217905550505050565b60055481565b600460009054906101000a900460ff1681565b600260009054906101000a900473ffffffffffffffffffffffffffffffffffffffff1681565b6000809054906101000a900473ffffffffffffffffffffffffffffffffffffffff1673ffffffffffffffffffffffffffffffffffffffff163373ffffffffffffffffffffffffffffffffffffffff161415156113cf576040517f08c379a00000000000000000000000000000000000000000000000000000000081526004018080602001828103825260208152602001807f546865206d73672073656e646572206d75737420626520746865206f776e657281525060200191505060405180910390fd5b806006805490508161ffff16101515611450576040517f08c379a00000000000000000000000000000000000000000000000000000000081526004018080602001828103825260138152602001807f496e646578206f7574206f662072616e6765210000000000000000000000000081525060200191505060405180910390fd5b60108360ff161015156114cb576040517f08c379a000000000000000000000000000000000000000000000000000000000815260040180806020018281038252601e8152602001807f53746f726566726f6e7420696e646578206f7574206f662072616e676521000081525060200191505060405180910390fd5b8160078460ff166010811015156114de57fe5b601091828204019190066002026101000a81548161ffff021916908361ffff160217905550505050565b6000809054906101000a900473ffffffffffffffffffffffffffffffffffffffff1673ffffffffffffffffffffffffffffffffffffffff163373ffffffffffffffffffffffffffffffffffffffff161415156115cc576040517f08c379a00000000000000000000000000000000000000000000000000000000081526004018080602001828103825260208152602001807f546865206d73672073656e646572206d75737420626520746865206f776e657281525060200191505060405180910390fd5b836006805490508161ffff1610151561164d576040517f08c379a00000000000000000000000000000000000000000000000000000000081526004018080602001828103825260138152602001807f496e646578206f7574206f662072616e6765210000000000000000000000000081525060200191505060405180910390fd5b83600062010000028161ffff1916141515156116d1576040517f08c379a000000000000000000000000000000000000000000000000000000000815260040180806020018281038252601d8152602001807f4465736372697074696f6e2063616e206e6f7420626520626c616e6b2100000081525060200191505060405180910390fd5b7f1eeb8a3c5b322e3f21e429677cc878733a58dcb4f3183e1557b0555ba6349e8d86868686604051808561ffff1681526020018461ffff191661ffff191681526020018361ffff1661ffff16815260200182815260200194505050505060405180910390a16060604051908101604052808661ffff191681526020018561ffff1681526020018481525060068761ffff1681548110151561176e57fe5b906000526020600020906002020160008201518160000160006101000a8154817dffffffffffffffffffffffffffffffffffffffffffffffffffffffffffff02191690836201000090040217905550602082015181600001601e6101000a81548161ffff021916908361ffff16021790555060408201518160010155905050505050505050565b60068181548110151561180457fe5b90600052602060002090600202016000915090508060000160009054906101000a900462010000029080600001601e9054906101000a900461ffff16908060010154905083565b6000809054906101000a900473ffffffffffffffffffffffffffffffffffffffff1673ffffffffffffffffffffffffffffffffffffffff163373ffffffffffffffffffffffffffffffffffffffff1614806118f35750600160009054906101000a900473ffffffffffffffffffffffffffffffffffffffff1673ffffffffffffffffffffffffffffffffffffffff163373ffffffffffffffffffffffffffffffffffffffff16145b151561198d576040517f08c379a00000000000000000000000000000000000000000000000000000000081526004018080602001828103825260338152602001807f546865206d73672073656e646572206d75737420626520746865206f776e657281526020017f206f7220746865206d61726b6574706c6163650000000000000000000000000081525060400191505060405180910390fd5b600160009054906101000a900473ffffffffffffffffffffffffffffffffffffffff1673ffffffffffffffffffffffffffffffffffffffff166108fc6005549081150290604051600060405180830381858888f193505050501580156119f7573d6000803e3d6000fd5b506000809054906101000a900473ffffffffffffffffffffffffffffffffffffffff1673ffffffffffffffffffffffffffffffffffffffff16ff5b6000809054906101000a900473ffffffffffffffffffffffffffffffffffffffff1673ffffffffffffffffffffffffffffffffffffffff163373ffffffffffffffffffffffffffffffffffffffff16141515611af6576040517f08c379a00000000000000000000000000000000000000000000000000000000081526004018080602001828103825260208152602001807f546865206d73672073656e646572206d75737420626520746865206f776e657281525060200191505060405180910390fd5b7f4b314b34e912fda7f95e7d23e9c8c95f82f0aff1984e4ce592a0b005f905562460405160405180910390a16001600460006101000a81548160ff021916908315150217905550565b6201000081565b6000809054906101000a900473ffffffffffffffffffffffffffffffffffffffff1681565b600160009054906101000a900473ffffffffffffffffffffffffffffffffffffffff1681565b6000600260009054906101000a900473ffffffffffffffffffffffffffffffffffffffff1673ffffffffffffffffffffffffffffffffffffffff163373ffffffffffffffffffffffffffffffffffffffff16141515611c7e576040517f08c379a000000000000000000000000000000000000000000000000000000000815260040180806020018281038252602a8152602001807f546865206d73672073656e646572206d75737420626520746865206f776e657281526020017f2063616e6469646174650000000000000000000000000000000000000000000081525060400191505060405180910390fd5b600260009054906101000a900473ffffffffffffffffffffffffffffffffffffffff1673ffffffffffffffffffffffffffffffffffffffff166000809054906101000a900473ffffffffffffffffffffffffffffffffffffffff1673ffffffffffffffffffffffffffffffffffffffff167fdb6d05f3295cede580affa301a1eb5297528f3b3f6a56b075887ce6f61c45f2160405160405180910390a3600160009054906101000a900473ffffffffffffffffffffffffffffffffffffffff1690508073ffffffffffffffffffffffffffffffffffffffff1663cdc01ca36000809054906101000a900473ffffffffffffffffffffffffffffffffffffffff16600354600260009054906101000a900473ffffffffffffffffffffffffffffffffffffffff16866040518563ffffffff167c0100000000000000000000000000000000000000000000000000000000028152600401808573ffffffffffffffffffffffffffffffffffffffff1673ffffffffffffffffffffffffffffffffffffffff1681526020018461ffff1661ffff1681526020018373ffffffffffffffffffffffffffffffffffffffff1673ffffffffffffffffffffffffffffffffffffffff1681526020018261ffff1661ffff168152602001945050505050600060405180830381600087803b158015611e7457600080fd5b505af1158015611e88573d6000803e3d6000fd5b50505050600260009054906101000a900473ffffffffffffffffffffffffffffffffffffffff166000806101000a81548173ffffffffffffffffffffffffffffffffffffffff021916908373ffffffffffffffffffffffffffffffffffffffff1602179055505050565b60035481565b6000809054906101000a900473ffffffffffffffffffffffffffffffffffffffff1673ffffffffffffffffffffffffffffffffffffffff163373ffffffffffffffffffffffffffffffffffffffff16141515611fbc576040517f08c379a00000000000000000000000000000000000000000000000000000000081526004018080602001828103825260208152602001807f546865206d73672073656e646572206d75737420626520746865206f776e657281525060200191505060405180910390fd5b816006805490508161ffff1610151561203d576040517f08c379a00000000000000000000000000000000000000000000000000000000081526004018080602001828103825260138152602001807f496e646578206f7574206f662072616e6765210000000000000000000000000081525060200191505060405180910390fd5b7f4ccc0371f03ddc423b8ccfa5a94684c16962c95f8421d8cefe2e66d494bfde938383604051808361ffff1681526020018281526020019250505060405180910390a18160068461ffff1681548110151561209457fe5b906000526020600020906002020160010181905550505050565b6000809054906101000a900473ffffffffffffffffffffffffffffffffffffffff1673ffffffffffffffffffffffffffffffffffffffff163373ffffffffffffffffffffffffffffffffffffffff16141515612172576040517f08c379a00000000000000000000000000000000000000000000000000000000081526004018080602001828103825260208152602001807f546865206d73672073656e646572206d75737420626520746865206f776e657281525060200191505060405180910390fd5b806006805490508161ffff161015156121f3576040517f08c379a00000000000000000000000000000000000000000000000000000000081526004018080602001828103825260138152602001807f496e646578206f7574206f662072616e6765210000000000000000000000000081525060200191505060405180910390fd5b7f63a40fdaf690567862cf73699ec621ca32131810638d9a02a3c1bf46344c8c0782604051808261ffff16815260200191505060405180910390a160068261ffff1681548110151561224157fe5b9060005260206000209060020201600080820160006101000a8154907dffffffffffffffffffffffffffffffffffffffffffffffffffffffffffff021916905560008201601e6101000a81549061ffff0219169055600182016000905550505050565b620f424081565b6000809054906101000a900473ffffffffffffffffffffffffffffffffffffffff1673ffffffffffffffffffffffffffffffffffffffff163373ffffffffffffffffffffffffffffffffffffffff1614151561236f576040517f08c379a00000000000000000000000000000000000000000000000000000000081526004018080602001828103825260208152602001807f546865206d73672073656e646572206d75737420626520746865206f776e657281525060200191505060405180910390fd5b81600073ffffffffffffffffffffffffffffffffffffffff168173ffffffffffffffffffffffffffffffffffffffff161415151561243b576040517f08c379a00000000000000000000000000000000000000000000000000000000081526004018080602001828103825260258152602001807f576974686472617720726563697069656e74206d757374206e6f74206265206581526020017f6d7074792100000000000000000000000000000000000000000000000000000081525060400191505060405180910390fd5b816000811115156124da576040517f08c379a00000000000000000000000000000000000000000000000000000000081526004018080602001828103825260218152602001807f5a65726f2076616c7565207472616e7366657273206e6f7420616c6c6f77656481526020017f210000000000000000000000000000000000000000000000000000000000000081525060400191505060405180910390fd5b6125066005543073ffffffffffffffffffffffffffffffffffffffff1631612e1390919063ffffffff16565b831115151561257d576040517f08c379a000000000000000000000000000000000000000000000000000000000815260040180806020018281038252601f8152602001807f596f75722062616c616e6365206973206e6f742073756666696369656e74210081525060200191505060405180910390fd5b7fa493e960de66ff5b6d1d6e19fc3fdeee4b4b5d01b686fde2dcc4b3354d27e97d8484604051808373ffffffffffffffffffffffffffffffffffffffff1673ffffffffffffffffffffffffffffffffffffffff1681526020018281526020019250505060405180910390a18373ffffffffffffffffffffffffffffffffffffffff166108fc849081150290604051600060405180830381858888f1935050505015801561262e573d6000803e3d6000fd5b5050505050565b600160009054906101000a900473ffffffffffffffffffffffffffffffffffffffff1673ffffffffffffffffffffffffffffffffffffffff163373ffffffffffffffffffffffffffffffffffffffff16141515612720576040517f08c379a00000000000000000000000000000000000000000000000000000000081526004018080602001828103825260268152602001807f546865206d73672073656e646572206d75737420626520746865206d61726b6581526020017f74706c616365000000000000000000000000000000000000000000000000000081525060400191505060405180910390fd5b806000811115156127bf576040517f08c379a00000000000000000000000000000000000000000000000000000000081526004018080602001828103825260218152602001807f5a65726f2076616c7565207472616e7366657273206e6f7420616c6c6f77656481526020017f210000000000000000000000000000000000000000000000000000000000000081525060400191505060405180910390fd5b600554821115151561285f576040517f08c379a000000000000000000000000000000000000000000000000000000000815260040180806020018281038252602a8152602001807f546865206d61726b6574706c6163652062616c616e6365206973206e6f74207381526020017f756666696369656e74210000000000000000000000000000000000000000000081525060400191505060405180910390fd5b7fddacdb733f2822e9cbaeaa24a5cfdc2e64243cbbeba829f1177b27a8b9f53c94826040518082815260200191505060405180910390a16128ab82600554612e1390919063ffffffff16565b600581905550600160009054906101000a900473ffffffffffffffffffffffffffffffffffffffff1673ffffffffffffffffffffffffffffffffffffffff166108fc839081150290604051600060405180830381858888f19350505050158015612919573d6000803e3d6000fd5b505050565b60078160108110151561292d57fe5b60109182820401919006600202915054906101000a900461ffff1681565b6000809054906101000a900473ffffffffffffffffffffffffffffffffffffffff1673ffffffffffffffffffffffffffffffffffffffff163373ffffffffffffffffffffffffffffffffffffffff16141515612a0f576040517f08c379a00000000000000000000000000000000000000000000000000000000081526004018080602001828103825260208152602001807f546865206d73672073656e646572206d75737420626520746865206f776e657281525060200191505060405180910390fd5b816006805490508161ffff16101515612a90576040517f08c379a00000000000000000000000000000000000000000000000000000000081526004018080602001828103825260138152602001807f496e646578206f7574206f662072616e6765210000000000000000000000000081525060200191505060405180910390fd5b60008261ffff16111515612b32576040517f08c379a00000000000000000000000000000000000000000000000000000000081526004018080602001828103825260248152602001807f44656372656173656d656e74206d75737420626520677265617465722074686181526020017f6e2030210000000000000000000000000000000000000000000000000000000081525060400191505060405180910390fd5b612b7b8260068561ffff16815481101515612b4957fe5b9060005260206000209060020201600001601e9054906101000a900461ffff1661ffff16612c6590919063ffffffff16565b60068461ffff16815481101515612b8e57fe5b9060005260206000209060020201600001601e6101000a81548161ffff021916908361ffff160217905550505050565b6000806000841415612bd35760009150612c5e565b8284029050828482811515612be457fe5b04141515612c5a576040517f08c379a00000000000000000000000000000000000000000000000000000000081526004018080602001828103825260198152602001807f4d756c206f7065726174696f6e206f766572666c6f776564210000000000000081525060200191505060405180910390fd5b8091505b5092915050565b6000808361ffff168361ffff1611151515612ce8576040517f08c379a000000000000000000000000000000000000000000000000000000000815260040180806020018281038252601a8152602001807f537562206f7065726174696f6e20756e646572666c6f7765642100000000000081525060200191505060405180910390fd5b82840390508091505092915050565b6000808284019050838110151515612d77576040517f08c379a00000000000000000000000000000000000000000000000000000000081526004018080602001828103825260198152602001807f416464206f7065726174696f6e206f766572666c6f776564210000000000000081525060200191505060405180910390fd5b8091505092915050565b60008082840190508361ffff168161ffff1610151515612e09576040517f08c379a00000000000000000000000000000000000000000000000000000000081526004018080602001828103825260198152602001807f416464206f7065726174696f6e206f766572666c6f776564210000000000000081525060200191505060405180910390fd5b8091505092915050565b600080838311151515612e8e576040517f08c379a000000000000000000000000000000000000000000000000000000000815260040180806020018281038252601a8152602001807f537562206f7065726174696f6e20756e646572666c6f7765642100000000000081525060200191505060405180910390fd5b828403905080915050929150505600a165627a7a723058208b81068f5b18eafec4a7b38e6f4134bd1e1a1c4f7b3c1d7850693c44be3ec17e0029a165627a7a723058200e607df58ebbaf759d91d816c53e735808cf23940327174a27d07dd52e5a9c5b0029",
  "source": "pragma solidity 0.4.24;\n\nimport './MarketplaceManager.sol';\nimport './StoreFactory.sol';\n\n\n/**\n * @title IStore\n * @dev Interface to the stores marketplace-related\n * functionality which is used by the StoreManager contract\n */\ninterface IStore {\n\tfunction destroy() external;\n\n\tfunction marketplaceWithdraw(uint256 _amount) external;\n\n\tfunction marketplaceBalance() external view returns (uint256);\n}\n\n\n/**\n * @title StoreManager\n * @dev Holds the main marketpace store-managing related business logic.\n * @notice All contracts on this inheritance chain are upgradeable.\n */\ncontract StoreManager is MarketplaceManager {\n\n\tevent LogStoreRequested(uint256 requestIndex);\n\tevent LogStoreApproved(uint256 requestIndex, address indexed owner, address store);\n\tevent LogStoreRevoked(address indexed owner, address indexed store);\n\tevent LogStoreWithdrawal(address indexed store, uint256 amount);\n\n\t/**\n\t* @dev StoreRequest structure holding\n\t* the bytes32 IPFS hash of the proposal file or folder\n\t* and the owner to be set if the store is approved.\n\t* @notice The FIFO manner of request processing\n\t* guarantees that no copied/stolen proposal will \n\t* be processed before the original one.\n\t*/\n\tstruct StoreRequest {\n\t\tbytes32 proposal;\n\t\taddress owner;\n\t}\n\n\tuint256 public nextRequestIndex;\n\n\tStoreRequest[] public storeRequests;\n\n\t/**\n\t* @dev Artificial upper limit of the\n\t* owner's stores array size.\n\t*/\n\tuint24 public constant MAX_OWNER_STORES = 65536;\n\n\tmodifier checkRequestIndex() {\n\t\trequire(nextRequestIndex < storeRequests.length, 'Requests queue is empty!');\n\t\t_;\n\t}\n\n\tmodifier storeIndexInRange(address _owner, uint16 _i) {\n\t\trequire(_i < stores[_owner].length, 'Index out of range!');\n\t\t_;\n\t}\n\n\tmodifier onlySpecifiedStore(address _owner,\n\t\tuint16 _i) {\n\t\trequire(msg.sender == stores[_owner][_i], 'The msg sender must be the specified store!');\n\t\t_;\n\t}\n\n\t/**\n\t* @dev Provides with transferring store ownership functionality.\n\t* @param _storeOwner The current store owner.\n\t* @param _storeIndex The current store index in the\n\t* store owner's stores array.\n\t* @param _newStoreOwner The address to recieve ownership.\n\t* @param _newOwnerStoreIndex The index at which to put the new store\n\t* in the new store owner's stores array.\n\t* @notice Allows the owners to specify an empty index at which to push\n\t* the new store in order to fill the deleted stores blank spaces\n\t*/\n\tfunction transferStoreOwnership\n\t(\n\t\taddress _storeOwner,\n\t\tuint16 _storeIndex,\n\t\taddress _newStoreOwner,\n\t\tuint16 _newOwnerStoreIndex\n\t)\n\t\texternal\n\t\tnonZeroAddress(_storeOwner)\n\t\tstoreIndexInRange(_storeOwner, _storeIndex)\n\t\tonlySpecifiedStore(_storeOwner, _storeIndex)\n\t\tnonZeroAddress(_newStoreOwner)\n\t{\n\t\tuint256 len = stores[_newStoreOwner].length;\n\n\t\trequire(_newOwnerStoreIndex <= len, 'New owner store index out of range!');\n\t\trequire(len <= MAX_OWNER_STORES, 'You have hit the stores per owner max limit!');\n\n\t\t// Remove the store from the current\n\t\t// owner stores array.\n\t\tdelete stores[_storeOwner][_storeIndex];\n\t\t\n\t\t// If the specified index is equal to the length of\n\t\t// the new owner's stores array -> push the new store\n\t\tif (_newOwnerStoreIndex == len) {\n\t\t\t// If new owner's stores array length == 0 ->\n\t\t\t// push new owner to the store owners array\n\t\t\tif (len == 0) {\n\t\t\t\tstoreOwners.push(_newStoreOwner);\n\t\t\t}\n\t\t\t\n\t\t\tstores[_newStoreOwner].push(msg.sender);\n\t\t\treturn;\n\t\t}\n\n\t\t// If the new owner has specified index in the stores array\n\t\t// lower than it's length, but it is non-empty -> revert\n\t\trequire(stores[_newStoreOwner][_newOwnerStoreIndex] == address(0), 'The specified index in the stores array is taken!');\n\n\t\t// If the new owner has specified index in the stores array\n\t\t// lower than it's length and it is empty -> set the \n\t\t// new store at the specified index.\n\t\tstores[_newStoreOwner][_newOwnerStoreIndex] = msg.sender;\n\t}\n\n\t/**\n\t* @dev Allows users to request a store.\n\t* @param _proposal Hexadecimal representation of an IPFS hash of\n\t* file or folder holding the proposal materials.\n\t* @notice The proposal argument is a processed hexadecimal\n\t* representation of the default IPFS SHA-256 hash with removed prefix.\n\t*/\n\tfunction requestStore(bytes32 _proposal) public {\n\t\trequire(_proposal != 0x0, 'Store request proposal can not be empty!');\n\n\t\tuint256 requestIndex = storeRequests.length;\n\n\t\temit LogStoreRequested(requestIndex);\n\n\t\tstoreRequests.push(StoreRequest({ proposal: _proposal, owner: msg.sender }));\n\t}\n\n\t/**\n\t* @dev Allows marketpalce owner to approve store proposals.\n\t* @param _isApproved Specifies whether the\n\t* current store proposal is approved.\n\t* @param _indexInStoresArray The index at which to put the\n\t* new store in the store proposal owner's stores array if approved.\n\t* @notice The store requests are processed in FIFO manner.\n\t*/\n\tfunction approveStore(bool _isApproved, uint16 _indexInStoresArray) public onlyOwner checkRequestIndex {\n\t\t// If not approved -> continue to next request\n\t\tif (!_isApproved) {\n\t\t\tnextRequestIndex++;\n\t\t\treturn;\n\t\t}\n\n\t\t// Get the current request's store owner\n\t\taddress requestOwner = storeRequests[nextRequestIndex].owner;\n\n\t\t// Get reference to the current request store owner's stores\n\t\taddress[] storage ownerStores = stores[requestOwner];\n\n\t\tuint256 len = ownerStores.length;\n\n\t\trequire(_indexInStoresArray <= len, 'Index in stores array out of range!');\n\t\trequire(len <= MAX_OWNER_STORES, 'You have hit the stores per owner max limit!');\n\n\t\t// Create the new store and assign it's owner.\n\t\taddress newStore = StoreFactory.createStore(requestOwner);\n\n\t\temit LogStoreApproved(nextRequestIndex, requestOwner, newStore);\n\n\t\t// Increment the request index pointer.\n\t\tnextRequestIndex++;\n\n\t\t// If the passed index is equal\n\t\t// to the length of the stores array\n\t\t// -> push the new store\n\t\tif (_indexInStoresArray == len) {\n\t\t\t// If it is the first store\n\t\t\t// in this array -> push owner\n\t\t\t// to the owners array\n\t\t\tif (len == 0) {\n\t\t\t\tstoreOwners.push(requestOwner);\n\t\t\t}\n\n\t\t\townerStores.push(newStore);\n\t\t\treturn;\n\t\t}\n\n\t\t// If the owner has specified index in the stores array\n\t\t// lower than it's length, but it is non-empty -> revert\n\t\trequire(ownerStores[_indexInStoresArray] == address(0), 'The specified index in the stores array is taken!');\n\n\t\t// If the owner has specified index in the stores array\n\t\t// lower than it's length and it is empty -> set the \n\t\t// new store at the specified index.\n\t\townerStores[_indexInStoresArray] = newStore;\n\t}\n\t\n\t/**\n\t* @dev Allows the marketplace to delete store and\n\t* call it's `destruct` function.\n\t* @param _storeOwner The store owner of whom\n\t* to revoke store.\n\t* @param _storeIndex The store index in the\n\t* store owner's stores array.\n\t*/\n\tfunction revokeStore\n\t(\n\t\taddress _storeOwner,\n\t\tuint16 _storeIndex\n\t)\n\t\tpublic\n\t\tonlyOwner\n\t\tnonZeroAddress(_storeOwner)\n\t\tstoreIndexInRange(_storeOwner, _storeIndex)\n\t{\n\t\taddress storeAddress = stores[_storeOwner][_storeIndex];\n\t\trequire(stores[_storeOwner][_storeIndex] != address(0), 'Specified store does not exist anymore!');\n\n\t\temit LogStoreRevoked(_storeOwner, storeAddress);\n\n\t\tIStore store = IStore(storeAddress);\n\n\t\tstore.destroy();\n\n\t\tdelete stores[_storeOwner][_storeIndex];\n\t}\n\t\n\t/**\n\t* @dev Allows the marketplace to withdraw funds\n\t* from stores back to the marketplace.\n\t* @param _storeAddress The address of the store\n\t* from which to withdraw.\n\t* @param _amount The amount of the funds\n\t* to be withdrawed.\n\t*/\n\tfunction withdrawFromStore\n\t(\n\t\taddress _storeAddress,\n\t\tuint256 _amount\n\t)\n\t\tpublic\n\t\tonlyOwner\n\t\tnonZeroAddress(_storeAddress)\n\t\tnonZeroAmount(_amount)\n\t{\n\t\tIStore store = IStore(_storeAddress);\n\n\t\t// Get the current balances\n\t\tuint256 currentMarketplaceBalance = address(this).balance;\n\t\tuint256 currentStoreMarketplaceBalance = store.marketplaceBalance();\n\n\t\trequire(_amount >= currentStoreMarketplaceBalance, 'Marketplace Store Balance too small to withdraw!');\n\n\t\temit LogStoreWithdrawal(store, _amount);\n\n\t\tstore.marketplaceWithdraw(_amount);\n\n\t\tuint256 newMarketplaceBalance = address(this).balance;\n\t\tuint256 newStoreMarketplaceBalance = store.marketplaceBalance();\n\n\t\t// Assert that the new balances \n\t\t// have changed in the expected\n\t\t// direction after withdrawal\n\t\tassert(newMarketplaceBalance >= currentMarketplaceBalance + _amount);\n\t\tassert(newStoreMarketplaceBalance >= currentStoreMarketplaceBalance - _amount);\n\t}\n}\n",
  "sourcePath": "C:/Users/Trevor/documents/marketplace2/Consensys-Marketplace-Final-Project-master/contracts/Market Tests/StoreManager.sol",
  "compiler": {
    "name": "solc",
    "version": "0.4.24+commit.e67f0147.Emscripten.clang"
  },
  "schemaVersion": "3.0.0",
  "updatedAt": "2019-01-24T18:27:00.843Z",
  "devdoc": {
    "methods": {
      "approveStore(bool,uint16)": {
        "details": "Allows marketpalce owner to approve store proposals.",
        "params": {
          "_indexInStoresArray": "The index at which to put the new store in the store proposal owner's stores array if approved.",
          "_isApproved": "Specifies whether the current store proposal is approved."
        }
      },
      "getStoreOwners()": {
        "details": "Allows returning all current store owners.",
        "return": "Array of addresses of store owners."
      },
      "getStoresByOwner(address)": {
        "details": "Allows returning the according stores to the specified address.",
        "params": {
          "_owner": "The address of which stores to get."
        },
        "return": "Array of addresses of stores."
      },
      "init()": {
        "details": "Initializes the msg sender as an owner account."
      },
      "isStoreOwner(address)": {
        "details": "Allows verifying whether the specified address is a store owner.",
        "params": {
          "_owner": "The address to be verified."
        },
        "return": "Boolean variable specifying whether the address is owner's or not."
      },
      "ownerWithdraw(address,uint256)": {
        "details": "Allows the current owner to withdraw funds from the marketplace.",
        "params": {
          "_amount": "The amount of the funds transferred.",
          "_recipient": "The address to transfer the funds to."
        }
      },
      "requestStore(bytes32)": {
        "details": "Allows users to request a store.",
        "params": {
          "_proposal": "Hexadecimal representation of an IPFS hash of file or folder holding the proposal materials."
        }
      },
      "revokeStore(address,uint16)": {
        "details": "Allows the marketplace to delete store and call it's `destruct` function.",
        "params": {
          "_storeIndex": "The store index in the store owner's stores array.",
          "_storeOwner": "The store owner of whom to revoke store."
        }
      },
      "transferOwnership(address)": {
        "details": "Allows the current owner to transfer control of the contract to a new owner.",
        "params": {
          "_newOwner": "The address to transfer ownership to."
        }
      },
      "transferStoreOwnership(address,uint16,address,uint16)": {
        "details": "Provides with transferring store ownership functionality.",
        "params": {
          "_newOwnerStoreIndex": "The index at which to put the new store in the new store owner's stores array.",
          "_newStoreOwner": "The address to recieve ownership.",
          "_storeIndex": "The current store index in the store owner's stores array.",
          "_storeOwner": "The current store owner."
        }
      },
      "upgradeImplementation(address)": {
        "details": "Allows current owner to upgrade the implementation to which the `Forwardable` contract delegates calls.",
        "params": {
          "_newImplementation": "address of the new implementation."
        }
      },
      "withdrawFromStore(address,uint256)": {
        "details": "Allows the marketplace to withdraw funds from stores back to the marketplace.",
        "params": {
          "_amount": "The amount of the funds to be withdrawed.",
          "_storeAddress": "The address of the store from which to withdraw."
        }
      }
    },
    "title": "StoreManager"
  },
  "userdoc": {
    "methods": {
      "approveStore(bool,uint16)": {
        "notice": "The store requests are processed in FIFO manner."
      },
      "requestStore(bytes32)": {
        "notice": "The proposal argument is a processed hexadecimal representation of the default IPFS SHA-256 hash with removed prefix."
      },
      "transferStoreOwnership(address,uint16,address,uint16)": {
        "notice": "Allows the owners to specify an empty index at which to push the new store in order to fill the deleted stores blank spaces"
      }
    }
  }
}