{
  "contractName": "StoreOwn",
  "abi": [
    {
      "constant": true,
      "inputs": [],
      "name": "ownerCandidate",
      "outputs": [
        {
          "name": "",
          "type": "address"
        }
      ],
      "payable": false,
      "stateMutability": "view",
      "type": "function"
    },
    {
      "constant": true,
      "inputs": [],
      "name": "owner",
      "outputs": [
        {
          "name": "",
          "type": "address"
        }
      ],
      "payable": false,
      "stateMutability": "view",
      "type": "function"
    },
    {
      "constant": true,
      "inputs": [],
      "name": "marketplace",
      "outputs": [
        {
          "name": "",
          "type": "address"
        }
      ],
      "payable": false,
      "stateMutability": "view",
      "type": "function"
    },
    {
      "constant": true,
      "inputs": [],
      "name": "storeIndex",
      "outputs": [
        {
          "name": "",
          "type": "uint256"
        }
      ],
      "payable": false,
      "stateMutability": "view",
      "type": "function"
    },
    {
      "anonymous": false,
      "inputs": [
        {
          "indexed": true,
          "name": "currentOwner",
          "type": "address"
        },
        {
          "indexed": true,
          "name": "ownerCandidate",
          "type": "address"
        },
        {
          "indexed": false,
          "name": "storeIndex",
          "type": "uint256"
        }
      ],
      "name": "LogOwnershipTransferRequested",
      "type": "event"
    },
    {
      "anonymous": false,
      "inputs": [
        {
          "indexed": true,
          "name": "previousOwner",
          "type": "address"
        },
        {
          "indexed": true,
          "name": "newOwner",
          "type": "address"
        }
      ],
      "name": "LogOwnershipTransferred",
      "type": "event"
    },
    {
      "constant": false,
      "inputs": [
        {
          "name": "_ownerCandidate",
          "type": "address"
        },
        {
          "name": "_storeIndex",
          "type": "uint256"
        }
      ],
      "name": "requestOwnershipTransfer",
      "outputs": [],
      "payable": false,
      "stateMutability": "nonpayable",
      "type": "function"
    },
    {
      "constant": false,
      "inputs": [
        {
          "name": "_newStoreIndex",
          "type": "uint16"
        }
      ],
      "name": "approveOwnershipTransfer",
      "outputs": [],
      "payable": false,
      "stateMutability": "nonpayable",
      "type": "function"
    }
  ],
  "bytecode": "0x608060405234801561001057600080fd5b506107c5806100206000396000f300608060405260043610610078576000357c0100000000000000000000000000000000000000000000000000000000900463ffffffff1680632236ab5a1461007d5780635f504a82146100ca5780638da5cb5b14610121578063abc8c7af14610178578063b21252b7146101cf578063baa66e6414610200575b600080fd5b34801561008957600080fd5b506100c8600480360381019080803573ffffffffffffffffffffffffffffffffffffffff1690602001909291908035906020019092919050505061022b565b005b3480156100d657600080fd5b506100df6103c1565b604051808273ffffffffffffffffffffffffffffffffffffffff1673ffffffffffffffffffffffffffffffffffffffff16815260200191505060405180910390f35b34801561012d57600080fd5b506101366103e7565b604051808273ffffffffffffffffffffffffffffffffffffffff1673ffffffffffffffffffffffffffffffffffffffff16815260200191505060405180910390f35b34801561018457600080fd5b5061018d61040c565b604051808273ffffffffffffffffffffffffffffffffffffffff1673ffffffffffffffffffffffffffffffffffffffff16815260200191505060405180910390f35b3480156101db57600080fd5b506101fe600480360381019080803561ffff169060200190929190505050610432565b005b34801561020c57600080fd5b50610215610793565b6040518082815260200191505060405180910390f35b6000809054906101000a900473ffffffffffffffffffffffffffffffffffffffff1673ffffffffffffffffffffffffffffffffffffffff163373ffffffffffffffffffffffffffffffffffffffff161415156102ef576040517f08c379a00000000000000000000000000000000000000000000000000000000081526004018080602001828103825260208152602001807f546865206d73672073656e646572206d75737420626520746865206f776e657281525060200191505060405180910390fd5b8173ffffffffffffffffffffffffffffffffffffffff166000809054906101000a900473ffffffffffffffffffffffffffffffffffffffff1673ffffffffffffffffffffffffffffffffffffffff167ff4872fb89759e1cbf4e640b0d9c91adaf6397241fa58a8023bb11177cbb67356836040518082815260200191505060405180910390a381600260006101000a81548173ffffffffffffffffffffffffffffffffffffffff021916908373ffffffffffffffffffffffffffffffffffffffff160217905550806003819055505050565b600260009054906101000a900473ffffffffffffffffffffffffffffffffffffffff1681565b6000809054906101000a900473ffffffffffffffffffffffffffffffffffffffff1681565b600160009054906101000a900473ffffffffffffffffffffffffffffffffffffffff1681565b6000600260009054906101000a900473ffffffffffffffffffffffffffffffffffffffff1673ffffffffffffffffffffffffffffffffffffffff163373ffffffffffffffffffffffffffffffffffffffff1614151561051f576040517f08c379a000000000000000000000000000000000000000000000000000000000815260040180806020018281038252602a8152602001807f546865206d73672073656e646572206d75737420626520746865206f776e657281526020017f2063616e6469646174650000000000000000000000000000000000000000000081525060400191505060405180910390fd5b600260009054906101000a900473ffffffffffffffffffffffffffffffffffffffff1673ffffffffffffffffffffffffffffffffffffffff166000809054906101000a900473ffffffffffffffffffffffffffffffffffffffff1673ffffffffffffffffffffffffffffffffffffffff167fdb6d05f3295cede580affa301a1eb5297528f3b3f6a56b075887ce6f61c45f2160405160405180910390a3600160009054906101000a900473ffffffffffffffffffffffffffffffffffffffff1690508073ffffffffffffffffffffffffffffffffffffffff1663cdc01ca36000809054906101000a900473ffffffffffffffffffffffffffffffffffffffff16600354600260009054906101000a900473ffffffffffffffffffffffffffffffffffffffff16866040518563ffffffff167c0100000000000000000000000000000000000000000000000000000000028152600401808573ffffffffffffffffffffffffffffffffffffffff1673ffffffffffffffffffffffffffffffffffffffff1681526020018461ffff1661ffff1681526020018373ffffffffffffffffffffffffffffffffffffffff1673ffffffffffffffffffffffffffffffffffffffff1681526020018261ffff1661ffff168152602001945050505050600060405180830381600087803b15801561071557600080fd5b505af1158015610729573d6000803e3d6000fd5b50505050600260009054906101000a900473ffffffffffffffffffffffffffffffffffffffff166000806101000a81548173ffffffffffffffffffffffffffffffffffffffff021916908373ffffffffffffffffffffffffffffffffffffffff1602179055505050565b600354815600a165627a7a723058200e5b6bb4a4744947367174d50891e127e133e2f0d1432033c2e48b39f5e5c6070029",
  "source": "pragma solidity 0.4.24;\n\n/**\n * @title IMarketplace\n * @dev Interface to the marketplace's transferStoreOwnership\n * function used for transferring stores ownership\n */\ninterface IMarketplace {\n\tfunction transferStoreOwnership(address _storeOwner, uint16 _storeIndex, address _newStoreOwner, uint16 _newOwnerStoreIndex) external;\n}\n\n\n/**\n * @title StoreOwn\n * @dev The StoreOwnable contract holds owner and marketplace addresses,\n * and provides basic authorization control and control transferring\n * functionality.\n */\ncontract StoreOwn {\n\n\tevent LogOwnershipTransferRequested(address indexed currentOwner, address indexed ownerCandidate, uint256 storeIndex);\n\tevent LogOwnershipTransferred(address indexed previousOwner, address indexed newOwner);\n\n\taddress public owner;\n\taddress public marketplace;\n\t\n\taddress public ownerCandidate;\n\tuint256 public storeIndex;\n\n\t/**\n\t* @dev Throws if called by any account other than the current owner.\n\t*/\n\tmodifier onlyOwner() {\n\t\trequire(msg.sender == owner, 'The msg sender must be the owner');\n\t\t_;\n\t}\n\n\t/**\n\t* @dev Throws if called by any account other than the owner candidate.\n\t*/\n\tmodifier onlyOwnerCandidate() {\n\t\trequire(msg.sender == ownerCandidate, 'The msg sender must be the owner candidate');\n\t\t_;\n\t}\n\n\t/**\n\t* @dev Throws if called by any account other than the marketplace.\n\t*/\n\tmodifier onlyMarketplace() {\n\t\trequire(msg.sender == marketplace, 'The msg sender must be the marketplace');\n\t\t_;\n\t}\n\n\t/**\n\t* @dev Throws if called by any account other than\n\t* the owner or the marketplace.\n\t*/\n\tmodifier onlyOwnerOrMarketplace() {\n\t\trequire(msg.sender == owner || msg.sender == marketplace, 'The msg sender must be the owner or the marketplace');\n\t\t_;\n\t}\n\n\t/**\n\t* @dev Allows the current owner to transfer control of the contract to a new owner, who has to approve the ownership.\n\t* @notice The requirement for non-zero address of the `_ownerCandidate`\n\t* is intentionally omitted due to the two-staged implementation.\n\t* @param _ownerCandidate The address to transfer ownership to.\n\t* @param _storeIndex The index of the current store to be transferred.\n\t*/\n\tfunction requestOwnershipTransfer(address _ownerCandidate, uint256 _storeIndex) public onlyOwner {\n\t\temit LogOwnershipTransferRequested(owner, _ownerCandidate, _storeIndex);\n\t\townerCandidate = _ownerCandidate;\n\t\tstoreIndex = _storeIndex;\n\t}\n\n\t/**\n\t* @dev Allows owner candidate to approve the ownership of the contract.\n\t* @param _newStoreIndex The index at which the new store to be set\n\t* in the new owner's stores array.\n\t*/\n\tfunction approveOwnershipTransfer(uint16 _newStoreIndex) public onlyOwnerCandidate {\n\t\temit LogOwnershipTransferred(owner, ownerCandidate);\n\n\t\tIMarketplace m = IMarketplace(marketplace);\n\t\tm.transferStoreOwnership(owner, uint16(storeIndex), ownerCandidate, _newStoreIndex);\n\n\t\towner = ownerCandidate;\n\t}\n}\n",
  "sourcePath": "C:\\Users\\Trevor\\documents\\marketplace2\\Consensys-Marketplace-Final-Project-master\\contracts\\owners\\StoreOwn.sol",
  "compiler": {
    "name": "solc",
    "version": "0.4.24+commit.e67f0147.Emscripten.clang"
  },
  "schemaVersion": "3.0.0",
  "updatedAt": "2019-01-24T18:58:43.194Z",
  "devdoc": {
    "methods": {
      "approveOwnershipTransfer(uint16)": {
        "details": "Allows owner candidate to approve the ownership of the contract.",
        "params": {
          "_newStoreIndex": "The index at which the new store to be set in the new owner's stores array."
        }
      },
      "requestOwnershipTransfer(address,uint256)": {
        "details": "Allows the current owner to transfer control of the contract to a new owner, who has to approve the ownership.",
        "params": {
          "_ownerCandidate": "The address to transfer ownership to.",
          "_storeIndex": "The index of the current store to be transferred."
        }
      }
    },
    "title": "StoreOwn"
  },
  "userdoc": {
    "methods": {
      "requestOwnershipTransfer(address,uint256)": {
        "notice": "The requirement for non-zero address of the `_ownerCandidate` is intentionally omitted due to the two-staged implementation."
      }
    }
  }
}