{
  "contractName": "Store",
  "abi": [
    {
      "constant": false,
      "inputs": [
        {
          "name": "_ownerCandidate",
          "type": "address"
        },
        {
          "name": "_storeIndex",
          "type": "uint256"
        }
      ],
      "name": "requestOwnershipTransfer",
      "outputs": [],
      "payable": false,
      "stateMutability": "nonpayable",
      "type": "function"
    },
    {
      "constant": false,
      "inputs": [],
      "name": "unpause",
      "outputs": [],
      "payable": false,
      "stateMutability": "nonpayable",
      "type": "function"
    },
    {
      "constant": true,
      "inputs": [],
      "name": "marketplaceBalance",
      "outputs": [
        {
          "name": "",
          "type": "uint256"
        }
      ],
      "payable": false,
      "stateMutability": "view",
      "type": "function"
    },
    {
      "constant": true,
      "inputs": [],
      "name": "paused",
      "outputs": [
        {
          "name": "",
          "type": "bool"
        }
      ],
      "payable": false,
      "stateMutability": "view",
      "type": "function"
    },
    {
      "constant": true,
      "inputs": [],
      "name": "ownerCandidate",
      "outputs": [
        {
          "name": "",
          "type": "address"
        }
      ],
      "payable": false,
      "stateMutability": "view",
      "type": "function"
    },
    {
      "constant": true,
      "inputs": [
        {
          "name": "",
          "type": "uint256"
        }
      ],
      "name": "products",
      "outputs": [
        {
          "name": "description",
          "type": "bytes30"
        },
        {
          "name": "quantity",
          "type": "uint16"
        },
        {
          "name": "price",
          "type": "uint256"
        }
      ],
      "payable": false,
      "stateMutability": "view",
      "type": "function"
    },
    {
      "constant": false,
      "inputs": [],
      "name": "pause",
      "outputs": [],
      "payable": false,
      "stateMutability": "nonpayable",
      "type": "function"
    },
    {
      "constant": true,
      "inputs": [],
      "name": "MAX_STORE_PRODUCTS",
      "outputs": [
        {
          "name": "",
          "type": "uint24"
        }
      ],
      "payable": false,
      "stateMutability": "view",
      "type": "function"
    },
    {
      "constant": true,
      "inputs": [],
      "name": "owner",
      "outputs": [
        {
          "name": "",
          "type": "address"
        }
      ],
      "payable": false,
      "stateMutability": "view",
      "type": "function"
    },
    {
      "constant": true,
      "inputs": [],
      "name": "marketplace",
      "outputs": [
        {
          "name": "",
          "type": "address"
        }
      ],
      "payable": false,
      "stateMutability": "view",
      "type": "function"
    },
    {
      "constant": false,
      "inputs": [
        {
          "name": "_newStoreIndex",
          "type": "uint16"
        }
      ],
      "name": "approveOwnershipTransfer",
      "outputs": [],
      "payable": false,
      "stateMutability": "nonpayable",
      "type": "function"
    },
    {
      "constant": true,
      "inputs": [],
      "name": "storeIndex",
      "outputs": [
        {
          "name": "",
          "type": "uint256"
        }
      ],
      "payable": false,
      "stateMutability": "view",
      "type": "function"
    },
    {
      "constant": true,
      "inputs": [],
      "name": "MARKETPLACE_TAX_DENOMINATOR",
      "outputs": [
        {
          "name": "",
          "type": "uint24"
        }
      ],
      "payable": false,
      "stateMutability": "view",
      "type": "function"
    },
    {
      "constant": false,
      "inputs": [
        {
          "name": "_amount",
          "type": "uint256"
        }
      ],
      "name": "marketplaceWithdraw",
      "outputs": [],
      "payable": false,
      "stateMutability": "nonpayable",
      "type": "function"
    },
    {
      "constant": true,
      "inputs": [
        {
          "name": "",
          "type": "uint256"
        }
      ],
      "name": "storefront",
      "outputs": [
        {
          "name": "",
          "type": "uint16"
        }
      ],
      "payable": false,
      "stateMutability": "view",
      "type": "function"
    },
    {
      "inputs": [
        {
          "name": "_owner",
          "type": "address"
        }
      ],
      "payable": false,
      "stateMutability": "nonpayable",
      "type": "constructor"
    },
    {
      "payable": true,
      "stateMutability": "payable",
      "type": "fallback"
    },
    {
      "anonymous": false,
      "inputs": [
        {
          "indexed": false,
          "name": "index",
          "type": "uint256"
        },
        {
          "indexed": false,
          "name": "description",
          "type": "bytes30"
        }
      ],
      "name": "LogProductAdded",
      "type": "event"
    },
    {
      "anonymous": false,
      "inputs": [
        {
          "indexed": false,
          "name": "index",
          "type": "uint256"
        },
        {
          "indexed": false,
          "name": "description",
          "type": "bytes30"
        },
        {
          "indexed": false,
          "name": "quantity",
          "type": "uint16"
        },
        {
          "indexed": false,
          "name": "price",
          "type": "uint256"
        }
      ],
      "name": "LogProductUpdated",
      "type": "event"
    },
    {
      "anonymous": false,
      "inputs": [
        {
          "indexed": false,
          "name": "index",
          "type": "uint256"
        }
      ],
      "name": "LogProductRemoved",
      "type": "event"
    },
    {
      "anonymous": false,
      "inputs": [
        {
          "indexed": false,
          "name": "index",
          "type": "uint256"
        },
        {
          "indexed": false,
          "name": "newPrice",
          "type": "uint256"
        }
      ],
      "name": "LogProductPriceSet",
      "type": "event"
    },
    {
      "anonymous": false,
      "inputs": [
        {
          "indexed": false,
          "name": "to",
          "type": "address"
        },
        {
          "indexed": false,
          "name": "amount",
          "type": "uint256"
        }
      ],
      "name": "LogOwnerWithdrawal",
      "type": "event"
    },
    {
      "anonymous": false,
      "inputs": [
        {
          "indexed": false,
          "name": "index",
          "type": "uint256"
        },
        {
          "indexed": false,
          "name": "quantitySold",
          "type": "uint256"
        },
        {
          "indexed": false,
          "name": "salePrice",
          "type": "uint256"
        }
      ],
      "name": "LogPurchase",
      "type": "event"
    },
    {
      "anonymous": false,
      "inputs": [
        {
          "indexed": false,
          "name": "amount",
          "type": "uint256"
        }
      ],
      "name": "LogMarketplaceWithdrawal",
      "type": "event"
    },
    {
      "anonymous": false,
      "inputs": [],
      "name": "LogPause",
      "type": "event"
    },
    {
      "anonymous": false,
      "inputs": [],
      "name": "LogUnpause",
      "type": "event"
    },
    {
      "anonymous": false,
      "inputs": [
        {
          "indexed": true,
          "name": "currentOwner",
          "type": "address"
        },
        {
          "indexed": true,
          "name": "ownerCandidate",
          "type": "address"
        },
        {
          "indexed": false,
          "name": "storeIndex",
          "type": "uint256"
        }
      ],
      "name": "LogOwnershipTransferRequested",
      "type": "event"
    },
    {
      "anonymous": false,
      "inputs": [
        {
          "indexed": true,
          "name": "previousOwner",
          "type": "address"
        },
        {
          "indexed": true,
          "name": "newOwner",
          "type": "address"
        }
      ],
      "name": "LogOwnershipTransferred",
      "type": "event"
    },
    {
      "constant": false,
      "inputs": [
        {
          "name": "_storefrontIndex",
          "type": "uint8"
        },
        {
          "name": "_productIndex",
          "type": "uint16"
        }
      ],
      "name": "setStorefront",
      "outputs": [],
      "payable": false,
      "stateMutability": "nonpayable",
      "type": "function"
    },
    {
      "constant": false,
      "inputs": [
        {
          "name": "_description",
          "type": "bytes30"
        },
        {
          "name": "_quantity",
          "type": "uint16"
        },
        {
          "name": "_price",
          "type": "uint256"
        }
      ],
      "name": "addProduct",
      "outputs": [],
      "payable": false,
      "stateMutability": "nonpayable",
      "type": "function"
    },
    {
      "constant": false,
      "inputs": [
        {
          "name": "_productIndex",
          "type": "uint16"
        },
        {
          "name": "_description",
          "type": "bytes30"
        },
        {
          "name": "_quantity",
          "type": "uint16"
        },
        {
          "name": "_price",
          "type": "uint256"
        }
      ],
      "name": "updateProduct",
      "outputs": [],
      "payable": false,
      "stateMutability": "nonpayable",
      "type": "function"
    },
    {
      "constant": false,
      "inputs": [
        {
          "name": "_productIndex",
          "type": "uint16"
        }
      ],
      "name": "removeProduct",
      "outputs": [],
      "payable": false,
      "stateMutability": "nonpayable",
      "type": "function"
    },
    {
      "constant": false,
      "inputs": [
        {
          "name": "_productIndex",
          "type": "uint16"
        },
        {
          "name": "_newPrice",
          "type": "uint256"
        }
      ],
      "name": "setPrice",
      "outputs": [],
      "payable": false,
      "stateMutability": "nonpayable",
      "type": "function"
    },
    {
      "constant": false,
      "inputs": [
        {
          "name": "_productIndex",
          "type": "uint16"
        },
        {
          "name": "_increasement",
          "type": "uint16"
        }
      ],
      "name": "increaseQuantity",
      "outputs": [],
      "payable": false,
      "stateMutability": "nonpayable",
      "type": "function"
    },
    {
      "constant": false,
      "inputs": [
        {
          "name": "_productIndex",
          "type": "uint16"
        },
        {
          "name": "_decreasement",
          "type": "uint16"
        }
      ],
      "name": "decreaseQuantity",
      "outputs": [],
      "payable": false,
      "stateMutability": "nonpayable",
      "type": "function"
    },
    {
      "constant": false,
      "inputs": [
        {
          "name": "_recipient",
          "type": "address"
        },
        {
          "name": "_amount",
          "type": "uint256"
        }
      ],
      "name": "ownerWithdraw",
      "outputs": [],
      "payable": false,
      "stateMutability": "nonpayable",
      "type": "function"
    },
    {
      "constant": false,
      "inputs": [
        {
          "name": "_productIndex",
          "type": "uint16"
        },
        {
          "name": "_quantity",
          "type": "uint16"
        }
      ],
      "name": "buy",
      "outputs": [],
      "payable": true,
      "stateMutability": "payable",
      "type": "function"
    }
  ],
  "bytecode": "0x60806040526000600460006101000a81548160ff02191690831515021790555034801561002b57600080fd5b50604051602080612e4483398101806040528101908080519060200190929190505050600073ffffffffffffffffffffffffffffffffffffffff168173ffffffffffffffffffffffffffffffffffffffff16141515156100f3576040517f08c379a00000000000000000000000000000000000000000000000000000000081526004018080602001828103825260178152602001807f53686f70206f776e6572206d757374206265207365742100000000000000000081525060200191505060405180910390fd5b806000806101000a81548173ffffffffffffffffffffffffffffffffffffffff021916908373ffffffffffffffffffffffffffffffffffffffff16021790555033600160006101000a81548173ffffffffffffffffffffffffffffffffffffffff021916908373ffffffffffffffffffffffffffffffffffffffff16021790555050612cc0806101846000396000f30060806040526004361061013e576000357c0100000000000000000000000000000000000000000000000000000000900463ffffffff1680630a843d45146101405780630d6c62301461018a5780632236ab5a146101bc5780633f4ba83a146102095780634909bfc8146102205780635030025a1461025f5780635c975abb1461028a5780635f504a82146102b95780636290d8a3146103105780636d2fe78d1461034e5780637acc0b20146103a65780638456cb5914610407578063864cb90f1461041e5780638da5cb5b14610453578063abc8c7af146104aa578063b21252b714610501578063baa66e6414610532578063bbc2986c1461055d578063c0d7c3ec14610598578063c0f21a20146105c9578063d9c88e14146105fe578063dd72ed461461064b578063f1f5e46914610678578063fce5e67f146106c1575b005b34801561014c57600080fd5b50610188600480360381019080803561ffff19169060200190929190803561ffff16906020019092919080359060200190929190505050610700565b005b6101ba600480360381019080803561ffff169060200190929190803561ffff169060200190929190505050610a0b565b005b3480156101c857600080fd5b50610207600480360381019080803573ffffffffffffffffffffffffffffffffffffffff16906020019092919080359060200190929190505050610d94565b005b34801561021557600080fd5b5061021e610f2a565b005b34801561022c57600080fd5b5061025d600480360381019080803561ffff169060200190929190803561ffff169060200190929190505050611037565b005b34801561026b57600080fd5b506102746112aa565b6040518082815260200191505060405180910390f35b34801561029657600080fd5b5061029f6112b0565b604051808215151515815260200191505060405180910390f35b3480156102c557600080fd5b506102ce6112c3565b604051808273ffffffffffffffffffffffffffffffffffffffff1673ffffffffffffffffffffffffffffffffffffffff16815260200191505060405180910390f35b34801561031c57600080fd5b5061034c600480360381019080803560ff169060200190929190803561ffff1690602001909291905050506112e9565b005b34801561035a57600080fd5b506103a4600480360381019080803561ffff169060200190929190803561ffff19169060200190929190803561ffff169060200190929190803590602001909291905050506114e6565b005b3480156103b257600080fd5b506103d1600480360381019080803590602001909291905050506117d3565b604051808461ffff191661ffff191681526020018361ffff1661ffff168152602001828152602001935050505060405180910390f35b34801561041357600080fd5b5061041c611829565b005b34801561042a57600080fd5b50610433611936565b604051808262ffffff1662ffffff16815260200191505060405180910390f35b34801561045f57600080fd5b5061046861193d565b604051808273ffffffffffffffffffffffffffffffffffffffff1673ffffffffffffffffffffffffffffffffffffffff16815260200191505060405180910390f35b3480156104b657600080fd5b506104bf611962565b604051808273ffffffffffffffffffffffffffffffffffffffff1673ffffffffffffffffffffffffffffffffffffffff16815260200191505060405180910390f35b34801561050d57600080fd5b50610530600480360381019080803561ffff169060200190929190505050611988565b005b34801561053e57600080fd5b50610547611ce9565b6040518082815260200191505060405180910390f35b34801561056957600080fd5b50610596600480360381019080803561ffff16906020019092919080359060200190929190505050611cef565b005b3480156105a457600080fd5b506105c7600480360381019080803561ffff169060200190929190505050611ea5565b005b3480156105d557600080fd5b506105de61209b565b604051808262ffffff1662ffffff16815260200191505060405180910390f35b34801561060a57600080fd5b50610649600480360381019080803573ffffffffffffffffffffffffffffffffffffffff169060200190929190803590602001909291905050506120a2565b005b34801561065757600080fd5b506106766004803603810190808035906020019092919050505061242c565b005b34801561068457600080fd5b506106a360048036038101908080359060200190929190505050612715565b604051808261ffff1661ffff16815260200191505060405180910390f35b3480156106cd57600080fd5b506106fe600480360381019080803561ffff169060200190929190803561ffff169060200190929190505050612742565b005b60008060009054906101000a900473ffffffffffffffffffffffffffffffffffffffff1673ffffffffffffffffffffffffffffffffffffffff163373ffffffffffffffffffffffffffffffffffffffff161415156107c6576040517f08c379a00000000000000000000000000000000000000000000000000000000081526004018080602001828103825260208152602001807f546865206d73672073656e646572206d75737420626520746865206f776e657281525060200191505060405180910390fd5b83600062010000028161ffff19161415151561084a576040517f08c379a000000000000000000000000000000000000000000000000000000000815260040180806020018281038252601d8152602001807f4465736372697074696f6e2063616e206e6f7420626520626c616e6b2100000081525060200191505060405180910390fd5b60068054905091506201000062ffffff1682111515156108f8576040517f08c379a000000000000000000000000000000000000000000000000000000000815260040180806020018281038252602e8152602001807f596f75206861766520686974207468652070726f64756374732070657220737481526020017f6f7265206d6178206c696d69742100000000000000000000000000000000000081525060400191505060405180910390fd5b7f9f9f00d29958c136d278eabcaccac356ca158a40e1ee81da3e270624c2bdbd8b8286604051808381526020018261ffff191661ffff191681526020019250505060405180910390a160066060604051908101604052808761ffff191681526020018661ffff168152602001858152509080600181540180825580915050906001820390600052602060002090600202016000909192909190915060008201518160000160006101000a8154817dffffffffffffffffffffffffffffffffffffffffffffffffffffffffffff02191690836201000090040217905550602082015181600001601e6101000a81548161ffff021916908361ffff160217905550604082015181600101555050505050505050565b600460009054906101000a900460ff16151515610a90576040517f08c379a00000000000000000000000000000000000000000000000000000000081526004018080602001828103825260208152602001807f54686520636f6e7472616374206d757374206e6f74206265207061757365642181525060200191505060405180910390fd5b816006805490508161ffff16101515610b11576040517f08c379a00000000000000000000000000000000000000000000000000000000081526004018080602001828103825260138152602001807f496e646578206f7574206f662072616e6765210000000000000000000000000081525060200191505060405180910390fd5b60008261ffff16111515610bb3576040517f08c379a00000000000000000000000000000000000000000000000000000000081526004018080602001828103825260238152602001807f5a65726f207175616e74697479207075726368617365206e6f7420616c6c6f7781526020017f656421000000000000000000000000000000000000000000000000000000000081525060400191505060405180910390fd5b610bee8261ffff1660068561ffff16815481101515610bce57fe5b9060005260206000209060020201600101546129b590919063ffffffff16565b3410151515610c8b576040517f08c379a000000000000000000000000000000000000000000000000000000000815260040180806020018281038252602b8152602001807f596f7520686176652073656e7420696e73756666696369656e7420616d6f756e81526020017f74206f662066756e64732100000000000000000000000000000000000000000081525060400191505060405180910390fd5b7f791a6d42a06f5d184e3d463d1f346ae86e918a801860185dc59309991c323b4e838334604051808461ffff1681526020018361ffff168152602001828152602001935050505060405180910390a1610d238260068561ffff16815481101515610cf157fe5b9060005260206000209060020201600001601e9054906101000a900461ffff1661ffff16612a5c90919063ffffffff16565b60068461ffff16815481101515610d3657fe5b9060005260206000209060020201600001601e6101000a81548161ffff021916908361ffff160217905550610d89620f424062ffffff1634811515610d7757fe5b04600554612aee90919063ffffffff16565b600581905550505050565b6000809054906101000a900473ffffffffffffffffffffffffffffffffffffffff1673ffffffffffffffffffffffffffffffffffffffff163373ffffffffffffffffffffffffffffffffffffffff16141515610e58576040517f08c379a00000000000000000000000000000000000000000000000000000000081526004018080602001828103825260208152602001807f546865206d73672073656e646572206d75737420626520746865206f776e657281525060200191505060405180910390fd5b8173ffffffffffffffffffffffffffffffffffffffff166000809054906101000a900473ffffffffffffffffffffffffffffffffffffffff1673ffffffffffffffffffffffffffffffffffffffff167ff4872fb89759e1cbf4e640b0d9c91adaf6397241fa58a8023bb11177cbb67356836040518082815260200191505060405180910390a381600260006101000a81548173ffffffffffffffffffffffffffffffffffffffff021916908373ffffffffffffffffffffffffffffffffffffffff160217905550806003819055505050565b6000809054906101000a900473ffffffffffffffffffffffffffffffffffffffff1673ffffffffffffffffffffffffffffffffffffffff163373ffffffffffffffffffffffffffffffffffffffff16141515610fee576040517f08c379a00000000000000000000000000000000000000000000000000000000081526004018080602001828103825260208152602001807f546865206d73672073656e646572206d75737420626520746865206f776e657281525060200191505060405180910390fd5b7f730c1faaa977b67dacf1e2451ef54556e04a07d577785ff79f6d31f73502efc960405160405180910390a16000600460006101000a81548160ff021916908315150217905550565b6000809054906101000a900473ffffffffffffffffffffffffffffffffffffffff1673ffffffffffffffffffffffffffffffffffffffff163373ffffffffffffffffffffffffffffffffffffffff161415156110fb576040517f08c379a00000000000000000000000000000000000000000000000000000000081526004018080602001828103825260208152602001807f546865206d73672073656e646572206d75737420626520746865206f776e657281525060200191505060405180910390fd5b816006805490508161ffff1610151561117c576040517f08c379a00000000000000000000000000000000000000000000000000000000081526004018080602001828103825260138152602001807f496e646578206f7574206f662072616e6765210000000000000000000000000081525060200191505060405180910390fd5b60008261ffff1611151561121e576040517f08c379a00000000000000000000000000000000000000000000000000000000081526004018080602001828103825260248152602001807f496e6372656173656d656e74206d75737420626520677265617465722074686181526020017f6e2030210000000000000000000000000000000000000000000000000000000081525060400191505060405180910390fd5b6112678260068561ffff1681548110151561123557fe5b9060005260206000209060020201600001601e9054906101000a900461ffff1661ffff16612b7890919063ffffffff16565b60068461ffff1681548110151561127a57fe5b9060005260206000209060020201600001601e6101000a81548161ffff021916908361ffff160217905550505050565b60055481565b600460009054906101000a900460ff1681565b600260009054906101000a900473ffffffffffffffffffffffffffffffffffffffff1681565b6000809054906101000a900473ffffffffffffffffffffffffffffffffffffffff1673ffffffffffffffffffffffffffffffffffffffff163373ffffffffffffffffffffffffffffffffffffffff161415156113ad576040517f08c379a00000000000000000000000000000000000000000000000000000000081526004018080602001828103825260208152602001807f546865206d73672073656e646572206d75737420626520746865206f776e657281525060200191505060405180910390fd5b806006805490508161ffff1610151561142e576040517f08c379a00000000000000000000000000000000000000000000000000000000081526004018080602001828103825260138152602001807f496e646578206f7574206f662072616e6765210000000000000000000000000081525060200191505060405180910390fd5b60108360ff161015156114a9576040517f08c379a000000000000000000000000000000000000000000000000000000000815260040180806020018281038252601e8152602001807f53746f726566726f6e7420696e646578206f7574206f662072616e676521000081525060200191505060405180910390fd5b8160078460ff166010811015156114bc57fe5b601091828204019190066002026101000a81548161ffff021916908361ffff160217905550505050565b6000809054906101000a900473ffffffffffffffffffffffffffffffffffffffff1673ffffffffffffffffffffffffffffffffffffffff163373ffffffffffffffffffffffffffffffffffffffff161415156115aa576040517f08c379a00000000000000000000000000000000000000000000000000000000081526004018080602001828103825260208152602001807f546865206d73672073656e646572206d75737420626520746865206f776e657281525060200191505060405180910390fd5b836006805490508161ffff1610151561162b576040517f08c379a00000000000000000000000000000000000000000000000000000000081526004018080602001828103825260138152602001807f496e646578206f7574206f662072616e6765210000000000000000000000000081525060200191505060405180910390fd5b83600062010000028161ffff1916141515156116af576040517f08c379a000000000000000000000000000000000000000000000000000000000815260040180806020018281038252601d8152602001807f4465736372697074696f6e2063616e206e6f7420626520626c616e6b2100000081525060200191505060405180910390fd5b7f1eeb8a3c5b322e3f21e429677cc878733a58dcb4f3183e1557b0555ba6349e8d86868686604051808561ffff1681526020018461ffff191661ffff191681526020018361ffff1661ffff16815260200182815260200194505050505060405180910390a16060604051908101604052808661ffff191681526020018561ffff1681526020018481525060068761ffff1681548110151561174c57fe5b906000526020600020906002020160008201518160000160006101000a8154817dffffffffffffffffffffffffffffffffffffffffffffffffffffffffffff02191690836201000090040217905550602082015181600001601e6101000a81548161ffff021916908361ffff16021790555060408201518160010155905050505050505050565b6006818154811015156117e257fe5b90600052602060002090600202016000915090508060000160009054906101000a900462010000029080600001601e9054906101000a900461ffff16908060010154905083565b6000809054906101000a900473ffffffffffffffffffffffffffffffffffffffff1673ffffffffffffffffffffffffffffffffffffffff163373ffffffffffffffffffffffffffffffffffffffff161415156118ed576040517f08c379a00000000000000000000000000000000000000000000000000000000081526004018080602001828103825260208152602001807f546865206d73672073656e646572206d75737420626520746865206f776e657281525060200191505060405180910390fd5b7f4b314b34e912fda7f95e7d23e9c8c95f82f0aff1984e4ce592a0b005f905562460405160405180910390a16001600460006101000a81548160ff021916908315150217905550565b6201000081565b6000809054906101000a900473ffffffffffffffffffffffffffffffffffffffff1681565b600160009054906101000a900473ffffffffffffffffffffffffffffffffffffffff1681565b6000600260009054906101000a900473ffffffffffffffffffffffffffffffffffffffff1673ffffffffffffffffffffffffffffffffffffffff163373ffffffffffffffffffffffffffffffffffffffff16141515611a75576040517f08c379a000000000000000000000000000000000000000000000000000000000815260040180806020018281038252602a8152602001807f546865206d73672073656e646572206d75737420626520746865206f776e657281526020017f2063616e6469646174650000000000000000000000000000000000000000000081525060400191505060405180910390fd5b600260009054906101000a900473ffffffffffffffffffffffffffffffffffffffff1673ffffffffffffffffffffffffffffffffffffffff166000809054906101000a900473ffffffffffffffffffffffffffffffffffffffff1673ffffffffffffffffffffffffffffffffffffffff167fdb6d05f3295cede580affa301a1eb5297528f3b3f6a56b075887ce6f61c45f2160405160405180910390a3600160009054906101000a900473ffffffffffffffffffffffffffffffffffffffff1690508073ffffffffffffffffffffffffffffffffffffffff1663cdc01ca36000809054906101000a900473ffffffffffffffffffffffffffffffffffffffff16600354600260009054906101000a900473ffffffffffffffffffffffffffffffffffffffff16866040518563ffffffff167c0100000000000000000000000000000000000000000000000000000000028152600401808573ffffffffffffffffffffffffffffffffffffffff1673ffffffffffffffffffffffffffffffffffffffff1681526020018461ffff1661ffff1681526020018373ffffffffffffffffffffffffffffffffffffffff1673ffffffffffffffffffffffffffffffffffffffff1681526020018261ffff1661ffff168152602001945050505050600060405180830381600087803b158015611c6b57600080fd5b505af1158015611c7f573d6000803e3d6000fd5b50505050600260009054906101000a900473ffffffffffffffffffffffffffffffffffffffff166000806101000a81548173ffffffffffffffffffffffffffffffffffffffff021916908373ffffffffffffffffffffffffffffffffffffffff1602179055505050565b60035481565b6000809054906101000a900473ffffffffffffffffffffffffffffffffffffffff1673ffffffffffffffffffffffffffffffffffffffff163373ffffffffffffffffffffffffffffffffffffffff16141515611db3576040517f08c379a00000000000000000000000000000000000000000000000000000000081526004018080602001828103825260208152602001807f546865206d73672073656e646572206d75737420626520746865206f776e657281525060200191505060405180910390fd5b816006805490508161ffff16101515611e34576040517f08c379a00000000000000000000000000000000000000000000000000000000081526004018080602001828103825260138152602001807f496e646578206f7574206f662072616e6765210000000000000000000000000081525060200191505060405180910390fd5b7f4ccc0371f03ddc423b8ccfa5a94684c16962c95f8421d8cefe2e66d494bfde938383604051808361ffff1681526020018281526020019250505060405180910390a18160068461ffff16815481101515611e8b57fe5b906000526020600020906002020160010181905550505050565b6000809054906101000a900473ffffffffffffffffffffffffffffffffffffffff1673ffffffffffffffffffffffffffffffffffffffff163373ffffffffffffffffffffffffffffffffffffffff16141515611f69576040517f08c379a00000000000000000000000000000000000000000000000000000000081526004018080602001828103825260208152602001807f546865206d73672073656e646572206d75737420626520746865206f776e657281525060200191505060405180910390fd5b806006805490508161ffff16101515611fea576040517f08c379a00000000000000000000000000000000000000000000000000000000081526004018080602001828103825260138152602001807f496e646578206f7574206f662072616e6765210000000000000000000000000081525060200191505060405180910390fd5b7f63a40fdaf690567862cf73699ec621ca32131810638d9a02a3c1bf46344c8c0782604051808261ffff16815260200191505060405180910390a160068261ffff1681548110151561203857fe5b9060005260206000209060020201600080820160006101000a8154907dffffffffffffffffffffffffffffffffffffffffffffffffffffffffffff021916905560008201601e6101000a81549061ffff0219169055600182016000905550505050565b620f424081565b6000809054906101000a900473ffffffffffffffffffffffffffffffffffffffff1673ffffffffffffffffffffffffffffffffffffffff163373ffffffffffffffffffffffffffffffffffffffff16141515612166576040517f08c379a00000000000000000000000000000000000000000000000000000000081526004018080602001828103825260208152602001807f546865206d73672073656e646572206d75737420626520746865206f776e657281525060200191505060405180910390fd5b81600073ffffffffffffffffffffffffffffffffffffffff168173ffffffffffffffffffffffffffffffffffffffff1614151515612232576040517f08c379a00000000000000000000000000000000000000000000000000000000081526004018080602001828103825260258152602001807f576974686472617720726563697069656e74206d757374206e6f74206265206581526020017f6d7074792100000000000000000000000000000000000000000000000000000081525060400191505060405180910390fd5b816000811115156122d1576040517f08c379a00000000000000000000000000000000000000000000000000000000081526004018080602001828103825260218152602001807f5a65726f2076616c7565207472616e7366657273206e6f7420616c6c6f77656481526020017f210000000000000000000000000000000000000000000000000000000000000081525060400191505060405180910390fd5b6122fd6005543073ffffffffffffffffffffffffffffffffffffffff1631612c0a90919063ffffffff16565b8311151515612374576040517f08c379a000000000000000000000000000000000000000000000000000000000815260040180806020018281038252601f8152602001807f596f75722062616c616e6365206973206e6f742073756666696369656e74210081525060200191505060405180910390fd5b7fa493e960de66ff5b6d1d6e19fc3fdeee4b4b5d01b686fde2dcc4b3354d27e97d8484604051808373ffffffffffffffffffffffffffffffffffffffff1673ffffffffffffffffffffffffffffffffffffffff1681526020018281526020019250505060405180910390a18373ffffffffffffffffffffffffffffffffffffffff166108fc849081150290604051600060405180830381858888f19350505050158015612425573d6000803e3d6000fd5b5050505050565b600160009054906101000a900473ffffffffffffffffffffffffffffffffffffffff1673ffffffffffffffffffffffffffffffffffffffff163373ffffffffffffffffffffffffffffffffffffffff16141515612517576040517f08c379a00000000000000000000000000000000000000000000000000000000081526004018080602001828103825260268152602001807f546865206d73672073656e646572206d75737420626520746865206d61726b6581526020017f74706c616365000000000000000000000000000000000000000000000000000081525060400191505060405180910390fd5b806000811115156125b6576040517f08c379a00000000000000000000000000000000000000000000000000000000081526004018080602001828103825260218152602001807f5a65726f2076616c7565207472616e7366657273206e6f7420616c6c6f77656481526020017f210000000000000000000000000000000000000000000000000000000000000081525060400191505060405180910390fd5b6005548211151515612656576040517f08c379a000000000000000000000000000000000000000000000000000000000815260040180806020018281038252602a8152602001807f546865206d61726b6574706c6163652062616c616e6365206973206e6f74207381526020017f756666696369656e74210000000000000000000000000000000000000000000081525060400191505060405180910390fd5b7fddacdb733f2822e9cbaeaa24a5cfdc2e64243cbbeba829f1177b27a8b9f53c94826040518082815260200191505060405180910390a16126a282600554612c0a90919063ffffffff16565b600581905550600160009054906101000a900473ffffffffffffffffffffffffffffffffffffffff1673ffffffffffffffffffffffffffffffffffffffff166108fc839081150290604051600060405180830381858888f19350505050158015612710573d6000803e3d6000fd5b505050565b60078160108110151561272457fe5b60109182820401919006600202915054906101000a900461ffff1681565b6000809054906101000a900473ffffffffffffffffffffffffffffffffffffffff1673ffffffffffffffffffffffffffffffffffffffff163373ffffffffffffffffffffffffffffffffffffffff16141515612806576040517f08c379a00000000000000000000000000000000000000000000000000000000081526004018080602001828103825260208152602001807f546865206d73672073656e646572206d75737420626520746865206f776e657281525060200191505060405180910390fd5b816006805490508161ffff16101515612887576040517f08c379a00000000000000000000000000000000000000000000000000000000081526004018080602001828103825260138152602001807f496e646578206f7574206f662072616e6765210000000000000000000000000081525060200191505060405180910390fd5b60008261ffff16111515612929576040517f08c379a00000000000000000000000000000000000000000000000000000000081526004018080602001828103825260248152602001807f44656372656173656d656e74206d75737420626520677265617465722074686181526020017f6e2030210000000000000000000000000000000000000000000000000000000081525060400191505060405180910390fd5b6129728260068561ffff1681548110151561294057fe5b9060005260206000209060020201600001601e9054906101000a900461ffff1661ffff16612a5c90919063ffffffff16565b60068461ffff1681548110151561298557fe5b9060005260206000209060020201600001601e6101000a81548161ffff021916908361ffff160217905550505050565b60008060008414156129ca5760009150612a55565b82840290508284828115156129db57fe5b04141515612a51576040517f08c379a00000000000000000000000000000000000000000000000000000000081526004018080602001828103825260198152602001807f4d756c206f7065726174696f6e206f766572666c6f776564210000000000000081525060200191505060405180910390fd5b8091505b5092915050565b6000808361ffff168361ffff1611151515612adf576040517f08c379a000000000000000000000000000000000000000000000000000000000815260040180806020018281038252601a8152602001807f537562206f7065726174696f6e20756e646572666c6f7765642100000000000081525060200191505060405180910390fd5b82840390508091505092915050565b6000808284019050838110151515612b6e576040517f08c379a00000000000000000000000000000000000000000000000000000000081526004018080602001828103825260198152602001807f416464206f7065726174696f6e206f766572666c6f776564210000000000000081525060200191505060405180910390fd5b8091505092915050565b60008082840190508361ffff168161ffff1610151515612c00576040517f08c379a00000000000000000000000000000000000000000000000000000000081526004018080602001828103825260198152602001807f416464206f7065726174696f6e206f766572666c6f776564210000000000000081525060200191505060405180910390fd5b8091505092915050565b600080838311151515612c85576040517f08c379a000000000000000000000000000000000000000000000000000000000815260040180806020018281038252601a8152602001807f537562206f7065726174696f6e20756e646572666c6f7765642100000000000081525060200191505060405180910390fd5b828403905080915050929150505600a165627a7a72305820a921431e18678723d12437a5e3c0dabe0c5dbcf96284529388fc1e450bf0f71e0029",
  "source": "pragma solidity 0.4.24;\n\nimport './MarketStore.sol';\n//import '../computations/SafeMath.sol';\n\n\n/**\n * @title Store\n * @dev Holds the main store-related\n * business logic.\n */\ncontract Store is MarketStore {\n\t/**\n\t* @dev Using SafeMath's library\n\t* operations with safety checks against\n\t* underflow and overflow.\n\t*/\n\tusing SafeMath for uint16;\n\n\t/**\n\t* @dev Artificial upper limit of the\n\t* products array size.\n\t*/\n\tuint24 public constant MAX_STORE_PRODUCTS = 65536;\n\n\tevent LogProductAdded(uint256 index, bytes30 description);\n\tevent LogProductUpdated\n\t(\n\t\tuint256 index,\n\t\tbytes30 description,\n\t\tuint16 quantity,\n\t\tuint256 price\n\t);\n\tevent LogProductRemoved(uint256 index);\n\tevent LogProductPriceSet(uint256 index, uint256 newPrice);\n\tevent LogOwnerWithdrawal(address to, uint256 amount);\n\tevent LogPurchase\n\t(\n\t\tuint256 index,\n\t\tuint256 quantitySold,\n\t\tuint256 salePrice\n\t);\n\n\t/**\n\t* @dev Product structure designed\n\t* to pack tightly into 2 storage slots.\n\t* @notice The price supports 18 decimals ETH-like.\n\t* @notice The price is per 1 quantity of the product.\n\t*/\n\tstruct Product {\n\t\tbytes30 description;\n\t\tuint16 quantity;\n\t\tuint256 price;\n\t}\n\n\t/**\n\t* @dev Array with auto-getter\n\t* holding all the products of the store.\n\t* @notice The products array is limited\n\t* to holding 2^16 products total.\n\t*/\n\tProduct[] public products;\n\n\t/**\n\t* @dev The storefront encoded in 16x16 bits,\n\t* ocuppying exactly one storage slot,\n\t* representing up to 16 products using their\n\t* indices in the products array.\n\t*/\n\tuint16[16] public storefront;\n\n\tmodifier productIndexInRange(uint16 _i) {\n\t\trequire(_i < products.length, 'Index out of range!');\n\t\t_;\n\t}\n\n\tmodifier hasDescription(bytes30 _description) {\n\t\trequire(_description != 0x0, 'Description can not be blank!');\n\t\t_;\n\t}\n\n\tmodifier nonEmptyRecipient(address _recipient) {\n\t\trequire(_recipient != address(0), 'Withdraw recipient must not be empty!');\n\t\t_;\n\t}\n\n\t/**\n\t* @dev Constructor of the Store contract\n\t* which sets the owner and marketplace addresses.\n\t* @param _owner Address which will become owner of the contract.\n\t*/\n\tconstructor(address _owner) public {\n\t\trequire(_owner != address(0), 'Shop owner must be set!');\n\n\t\towner = _owner;\n\t\tmarketplace = msg.sender;\n\t}\n\n\t/**\n\t* @dev Payable fallback function\n\t*/\n\tfunction() public payable {}\n\n\t/**\n\t* @dev Allows the current owner to encode the storefront of the store.\n\t* @notice The storefront represents up to 16 products using their\n\t* indices in the products array.\n\t* @param _storefrontIndex The new encoded storefront.\n\t* @param _productIndex The new encoded storefront.\n\t*/\n\tfunction setStorefront(uint8 _storefrontIndex, uint16 _productIndex) public onlyOwner productIndexInRange(_productIndex) {\n\t\trequire(_storefrontIndex < 16, 'Storefront index out of range!');\n\t\tstorefront[_storefrontIndex] = _productIndex;\n\t}\n\n\t/**\n\t* @dev Allows the current owner to add a product to the array of products.\n\t* @param _description The bytes30 representation\n\t* of the description of the product .\n\t* @param _quantity The _quantity of the product.\n\t* @param _price The _price of the product.\n\t* @notice Zero price and quantity are intentionally\n\t* not forbidden as there might be\n\t* some business use cases using it (eg. pre-stock marketing).\n\t*/\n\tfunction addProduct\n\t(\n\t\tbytes30 _description,\n\t\tuint16 _quantity,\n\t\tuint256 _price\n\t)\n\t\tpublic\n\t\tonlyOwner\n\t\thasDescription(_description)\n\t{\n\t\tuint256 len = products.length;\n\n\t\trequire(len <= MAX_STORE_PRODUCTS, 'You have hit the products per store max limit!');\n\n\t\temit LogProductAdded(len, _description);\n\n\t\tproducts.push(Product({description: _description, quantity: _quantity, price: _price}));\n\t}\n\n\t/**\n\t* @dev Allows the current owner to update a product at a given index of the array of products, including previously deleted products(empty indices).\n\t* @param _productIndex The index of the product in the products array.\n\t* @param _description The bytes30 representation\n\t* of the description of the product .\n\t* @param _quantity The _quantity of the product.\n\t* @param _price The _price of the product.\n\t* @notice Zero price and quantity are intentionally\n\t* not forbidden as there might be\n\t* some business use cases using it (eg. pre-stock marketing).\n\t*/\n\tfunction updateProduct\n\t(\n\t\tuint16 _productIndex,\n\t\tbytes30 _description,\n\t\tuint16 _quantity,\n\t\tuint256 _price\n\t)\n\t\tpublic\n\t\tonlyOwner\n\t\tproductIndexInRange(_productIndex)\n\t\thasDescription(_description)\n\t{\n\t\temit LogProductUpdated(_productIndex, _description, _quantity, _price);\n\n\t\tproducts[_productIndex] = Product({description: _description, quantity: _quantity, price: _price});\n\t}\n\n\t/**\n\t* @dev Allows the current owner to delete a product at a given index of the array of products.\n\t* @param _productIndex The index of the product in the products array.\n\t*/\n\tfunction removeProduct(uint16 _productIndex) public onlyOwner productIndexInRange(_productIndex) {\n\t\temit LogProductRemoved(_productIndex);\n\t\tdelete products[_productIndex];\n\t}\n\n\t/**\n\t* @dev Allows the current owner to set a price of a product.\n\t* @param _productIndex The index of the product in the products array.\n\t* @param _newPrice The new price of the product.\n\t* @notice Zero price is intentionally not forbidden as there might be\n\t* some business use cases using it (eg. sale).\n\t*/\n\tfunction setPrice(uint16 _productIndex, uint256 _newPrice) public onlyOwner productIndexInRange(_productIndex) {\n\t\temit LogProductPriceSet(_productIndex, _newPrice);\n\t\tproducts[_productIndex].price = _newPrice;\n\t}\n\n\t/**\n\t* @dev Allows the current owner to increase the quantity of a product.\n\t* @param _productIndex The index of the product in the products array.\n\t* @param _increasement The amount to increase with.\n\t*/\n\tfunction increaseQuantity\n\t(\n\t\tuint16 _productIndex,\n\t\tuint16 _increasement\n\t)\n\t\tpublic\n\t\tonlyOwner\n\t\tproductIndexInRange(_productIndex)\n\t{\n\t\trequire(_increasement > 0, 'Increasement must be greater than 0!');\n\t\tproducts[_productIndex].quantity = products[_productIndex].quantity.add16(_increasement);\n\t}\n\n\t/**\n\t* @dev Allows the current owner to decrease the quantity of a product.\n\t* @param _productIndex The index of the product in the products array.\n\t* @param _decreasement The amount to decrease with.\n\t*/\n\tfunction decreaseQuantity\n\t(\n\t\tuint16 _productIndex,\n\t\tuint16 _decreasement\n\t)\n\t\tpublic\n\t\tonlyOwner\n\t\tproductIndexInRange(_productIndex)\n\t{\n\t\trequire(_decreasement > 0, 'Decreasement must be greater than 0!');\n\t\tproducts[_productIndex].quantity = products[_productIndex].quantity.sub16(_decreasement);\n\t}\n\n\t/**\n\t* @dev Allows the current owner to withdraw funds from the store.\n\t* @param _recipient The address to transfer the funds to.\n\t* @param _amount The amount of the funds transferred.\n\t*/\n\tfunction ownerWithdraw\n\t(\n\t\taddress _recipient,\n\t\tuint256 _amount\n\t)\n\t\tpublic\n\t\tonlyOwner\n\t\tnonEmptyRecipient(_recipient)\n\t\tnonZeroAmount(_amount)\n\t{\n\t\trequire(_amount <= address(this).balance.sub(marketplaceBalance), 'Your balance is not sufficient!');\n\n\t\temit LogOwnerWithdrawal(_recipient, _amount);\n\n\t\t_recipient.transfer(_amount);\n\t}\n\n\t/**\n\t* @dev Allows the customers to buy given quantity of a specific product.\n\t* @param _productIndex The index of the product in the products array.\n\t* @param _quantity The _quantity of the product.\n\t* @notice If there is a tip from the msg value it is not returned.\n\t*/\n\tfunction buy\n\t(\n\t\tuint16 _productIndex,\n\t\tuint16 _quantity\n\t)\n\t\tpublic\n\t\tpayable\n\t\twhenNotPaused\n\t\tproductIndexInRange(_productIndex)\n\t{\n\t\trequire(_quantity > 0, 'Zero quantity purchase not allowed!');\n\n\t\trequire(msg.value >= products[_productIndex].price.mul(_quantity), 'You have sent insufficient amount of funds!');\n\n\t\temit LogPurchase(_productIndex, _quantity, msg.value);\n\n\t\tproducts[_productIndex].quantity = products[_productIndex].quantity.sub16(_quantity);\n\n\t\tmarketplaceBalance = marketplaceBalance.add(msg.value / (MARKETPLACE_TAX_DENOMINATOR));\n\t}\n}\n",
  "sourcePath": "C:\\Users\\Trevor\\documents\\marketplace2\\Consensys-Marketplace-Final-Project-master\\contracts\\store_functions\\Store.sol",
  "compiler": {
    "name": "solc",
    "version": "0.4.24+commit.e67f0147.Emscripten.clang"
  },
  "schemaVersion": "3.0.0",
  "updatedAt": "2019-01-24T18:58:43.214Z",
  "devdoc": {
    "methods": {
      "addProduct(bytes30,uint16,uint256)": {
        "details": "Allows the current owner to add a product to the array of products.",
        "params": {
          "_description": "The bytes30 representation of the description of the product .",
          "_price": "The _price of the product.",
          "_quantity": "The _quantity of the product."
        }
      },
      "approveOwnershipTransfer(uint16)": {
        "details": "Allows owner candidate to approve the ownership of the contract.",
        "params": {
          "_newStoreIndex": "The index at which the new store to be set in the new owner's stores array."
        }
      },
      "buy(uint16,uint16)": {
        "details": "Allows the customers to buy given quantity of a specific product.",
        "params": {
          "_productIndex": "The index of the product in the products array.",
          "_quantity": "The _quantity of the product."
        }
      },
      "decreaseQuantity(uint16,uint16)": {
        "details": "Allows the current owner to decrease the quantity of a product.",
        "params": {
          "_decreasement": "The amount to decrease with.",
          "_productIndex": "The index of the product in the products array."
        }
      },
      "increaseQuantity(uint16,uint16)": {
        "details": "Allows the current owner to increase the quantity of a product.",
        "params": {
          "_increasement": "The amount to increase with.",
          "_productIndex": "The index of the product in the products array."
        }
      },
      "marketplaceWithdraw(uint256)": {
        "details": "Allows the marketplace to withdraw taxes from the store.",
        "params": {
          "_amount": "The amount of the funds transferred."
        }
      },
      "ownerWithdraw(address,uint256)": {
        "details": "Allows the current owner to withdraw funds from the store.",
        "params": {
          "_amount": "The amount of the funds transferred.",
          "_recipient": "The address to transfer the funds to."
        }
      },
      "pause()": {
        "details": "called by the owner to pause, triggers stopped state"
      },
      "removeProduct(uint16)": {
        "details": "Allows the current owner to delete a product at a given index of the array of products.",
        "params": {
          "_productIndex": "The index of the product in the products array."
        }
      },
      "requestOwnershipTransfer(address,uint256)": {
        "details": "Allows the current owner to transfer control of the contract to a new owner, who has to approve the ownership.",
        "params": {
          "_ownerCandidate": "The address to transfer ownership to.",
          "_storeIndex": "The index of the current store to be transferred."
        }
      },
      "setPrice(uint16,uint256)": {
        "details": "Allows the current owner to set a price of a product.",
        "params": {
          "_newPrice": "The new price of the product.",
          "_productIndex": "The index of the product in the products array."
        }
      },
      "setStorefront(uint8,uint16)": {
        "details": "Allows the current owner to encode the storefront of the store.",
        "params": {
          "_productIndex": "The new encoded storefront.",
          "_storefrontIndex": "The new encoded storefront."
        }
      },
      "unpause()": {
        "details": "called by the owner to unpause, returns to normal state"
      },
      "updateProduct(uint16,bytes30,uint16,uint256)": {
        "details": "Allows the current owner to update a product at a given index of the array of products, including previously deleted products(empty indices).",
        "params": {
          "_description": "The bytes30 representation of the description of the product .",
          "_price": "The _price of the product.",
          "_productIndex": "The index of the product in the products array.",
          "_quantity": "The _quantity of the product."
        }
      }
    },
    "title": "Store"
  },
  "userdoc": {
    "methods": {
      "addProduct(bytes30,uint16,uint256)": {
        "notice": "Zero price and quantity are intentionally not forbidden as there might be some business use cases using it (eg. pre-stock marketing)."
      },
      "buy(uint16,uint16)": {
        "notice": "If there is a tip from the msg value it is not returned."
      },
      "requestOwnershipTransfer(address,uint256)": {
        "notice": "The requirement for non-zero address of the `_ownerCandidate` is intentionally omitted due to the two-staged implementation."
      },
      "setPrice(uint16,uint256)": {
        "notice": "Zero price is intentionally not forbidden as there might be some business use cases using it (eg. sale)."
      },
      "setStorefront(uint8,uint16)": {
        "notice": "The storefront represents up to 16 products using their indices in the products array."
      },
      "updateProduct(uint16,bytes30,uint16,uint256)": {
        "notice": "Zero price and quantity are intentionally not forbidden as there might be some business use cases using it (eg. pre-stock marketing)."
      }
    }
  }
}