{
  "contractName": "UnInitOwn",
  "abi": [
    {
      "constant": true,
      "inputs": [],
      "name": "owner",
      "outputs": [
        {
          "name": "",
          "type": "address"
        }
      ],
      "payable": false,
      "stateMutability": "view",
      "type": "function"
    },
    {
      "anonymous": false,
      "inputs": [
        {
          "indexed": true,
          "name": "previousOwner",
          "type": "address"
        },
        {
          "indexed": true,
          "name": "newOwner",
          "type": "address"
        }
      ],
      "name": "LogOwnershipTransferred",
      "type": "event"
    },
    {
      "constant": false,
      "inputs": [],
      "name": "init",
      "outputs": [],
      "payable": false,
      "stateMutability": "nonpayable",
      "type": "function"
    },
    {
      "constant": false,
      "inputs": [
        {
          "name": "_newOwner",
          "type": "address"
        }
      ],
      "name": "transferOwnership",
      "outputs": [],
      "payable": false,
      "stateMutability": "nonpayable",
      "type": "function"
    }
  ],
  "bytecode": "0x608060405234801561001057600080fd5b5061048c806100206000396000f300608060405260043610610057576000357c0100000000000000000000000000000000000000000000000000000000900463ffffffff1680638da5cb5b1461005c578063e1c7392a146100b3578063f2fde38b146100ca575b600080fd5b34801561006857600080fd5b5061007161010d565b604051808273ffffffffffffffffffffffffffffffffffffffff1673ffffffffffffffffffffffffffffffffffffffff16815260200191505060405180910390f35b3480156100bf57600080fd5b506100c8610132565b005b3480156100d657600080fd5b5061010b600480360381019080803573ffffffffffffffffffffffffffffffffffffffff169060200190929190505050610239565b005b6000809054906101000a900473ffffffffffffffffffffffffffffffffffffffff1681565b600073ffffffffffffffffffffffffffffffffffffffff166000809054906101000a900473ffffffffffffffffffffffffffffffffffffffff1673ffffffffffffffffffffffffffffffffffffffff161415156101f7576040517f08c379a000000000000000000000000000000000000000000000000000000000815260040180806020018281038252601a8152602001807f436f6e747261637420616c726561647920686173206f776e657200000000000081525060200191505060405180910390fd5b336000806101000a81548173ffffffffffffffffffffffffffffffffffffffff021916908373ffffffffffffffffffffffffffffffffffffffff160217905550565b6000809054906101000a900473ffffffffffffffffffffffffffffffffffffffff1673ffffffffffffffffffffffffffffffffffffffff163373ffffffffffffffffffffffffffffffffffffffff161415156102fd576040517f08c379a000000000000000000000000000000000000000000000000000000000815260040180806020018281038252601a8152602001807f4d73672073656e646572206973206e6f7420616e206f776e657200000000000081525060200191505060405180910390fd5b600073ffffffffffffffffffffffffffffffffffffffff168173ffffffffffffffffffffffffffffffffffffffff16141515156103a2576040517f08c379a000000000000000000000000000000000000000000000000000000000815260040180806020018281038252601e8152602001807f5f6e65774f776e657220616464726573732063616e206e6f742062652030000081525060200191505060405180910390fd5b8073ffffffffffffffffffffffffffffffffffffffff166000809054906101000a900473ffffffffffffffffffffffffffffffffffffffff1673ffffffffffffffffffffffffffffffffffffffff167fdb6d05f3295cede580affa301a1eb5297528f3b3f6a56b075887ce6f61c45f2160405160405180910390a3806000806101000a81548173ffffffffffffffffffffffffffffffffffffffff021916908373ffffffffffffffffffffffffffffffffffffffff160217905550505600a165627a7a72305820fbdc4affcc523f3ad134ce178410d8f6483234410b938d83bf4d6d658de63e610029",
  "source": "pragma solidity 0.4.24;\n\n/**\n * @title UnInitOwn\n * @dev The NotInitedOwnable contract has an owner address,\n * and provides basic authorization control functions,\n * which simplifies the implementation of \"user permissions\".\n * @notice This contract needs to be inited after deployment for proper use.\n */\ncontract UnInitOwn {\n\taddress public owner;\n\n\tevent LogOwnershipTransferred(address indexed previousOwner, address indexed newOwner);\n\n\t/**\n\t * @dev Reverts if called by any account other than the owner's.\n\t */\n\tmodifier onlyOwner() {\n\t\trequire(msg.sender == owner, 'Msg sender is not an owner');\n\t\t_;\n\t}\n\n\t/**\n\t* @dev Initializes the msg sender as an owner account.\n\t*/\n\tfunction init() public {\n\t\trequire(owner == address(0), 'Contract already has owner');\n\t\towner = msg.sender;\n\t}\n\n\t/**\n\t * @dev Allows the current owner to transfer control of the contract to a new owner.\n\t * @param _newOwner The address to transfer ownership to.\n\t */\n\tfunction transferOwnership(address _newOwner) public onlyOwner {\n\t\trequire(_newOwner != address(0), '_newOwner address can not be 0');\n\t\temit LogOwnershipTransferred(owner, _newOwner);\n\t\towner = _newOwner;\n\t}\n}\n",
  "sourcePath": "C:\\Users\\Trevor\\documents\\marketplace2\\Consensys-Marketplace-Final-Project-master\\contracts\\owners\\UnInitOwn.sol",
  "compiler": {
    "name": "solc",
    "version": "0.4.24+commit.e67f0147.Emscripten.clang"
  },
  "schemaVersion": "3.0.0",
  "updatedAt": "2019-01-24T18:58:43.149Z",
  "devdoc": {
    "methods": {
      "init()": {
        "details": "Initializes the msg sender as an owner account."
      },
      "transferOwnership(address)": {
        "details": "Allows the current owner to transfer control of the contract to a new owner.",
        "params": {
          "_newOwner": "The address to transfer ownership to."
        }
      }
    },
    "title": "UnInitOwn"
  },
  "userdoc": {
    "methods": {}
  }
}