{
  "contractName": "UProxy",
  "abi": [
    {
      "constant": true,
      "inputs": [],
      "name": "contractImplementation",
      "outputs": [
        {
          "name": "",
          "type": "address"
        }
      ],
      "payable": false,
      "stateMutability": "view",
      "type": "function",
      "signature": "0x9e72370b"
    },
    {
      "inputs": [
        {
          "name": "_implementation",
          "type": "address"
        }
      ],
      "payable": false,
      "stateMutability": "nonpayable",
      "type": "constructor",
      "signature": "constructor"
    },
    {
      "payable": true,
      "stateMutability": "payable",
      "type": "fallback"
    }
  ],
  "bytecode": "0x608060405234801561001057600080fd5b506040516020806101bf83398101806040528101908080519060200190929190505050806000806101000a81548173ffffffffffffffffffffffffffffffffffffffff021916908373ffffffffffffffffffffffffffffffffffffffff1602179055505061013c806100836000396000f300608060405260043610610041576000357c0100000000000000000000000000000000000000000000000000000000900463ffffffff1680639e72370b1461006d575b61006b6000809054906101000a900473ffffffffffffffffffffffffffffffffffffffff166100c4565b005b34801561007957600080fd5b506100826100eb565b604051808273ffffffffffffffffffffffffffffffffffffffff1673ffffffffffffffffffffffffffffffffffffffff16815260200191505060405180910390f35b60405136600082376000803683855af43d806000843e81600081146100e7578184f35b8184fd5b6000809054906101000a900473ffffffffffffffffffffffffffffffffffffffff16815600a165627a7a72305820d252ed4f3e30c5bd118f7d08a04f129af9df56879f50a3aa892d5c0bf2b7af420029",
  "source": "pragma solidity 0.4.24;\n\nimport './SharedStorage.sol';\nimport './Forwardable.sol';\n\n\n/**\n * @title UProxy\n * @dev Contract holding the state which serves as a proxy to\n * the current contract implementation.\n * @notice Inspired by https://medium.com/limechain/smart-contract-upgradeability-ee3d43dde96c\n */\ncontract UProxy is SharedStorage, Forwardable {\n\t/**\n\t* @dev UProxy is a proxy contract to a contract implementation. \n\t* The implementation can update the reference, \n\t* which effectively upgrades the contract.\n\t* @param _implementation Address of the contract used as implementation.\n\t*/\n\tconstructor(address _implementation) public {\n\t\tcontractImplementation = _implementation;\n\t}\n\n\t/**\n\t* @dev All calls made to the proxy are forwarded to\n\t* the contract implementation via a delegatecall.\n\t* @return Any bytes32 value the implementation returns.\n\t*/\n\tfunction() public payable {\n\t\tdelegatedFwd(contractImplementation);\n\t}\n}\n",
  "sourcePath": "C:/Users/Trevor/documents/marketplace2/Consensys-Marketplace-Final-Project-master/contracts/upgrades/UProxy.sol",
  "compiler": {
    "name": "solc",
    "version": "0.4.24+commit.e67f0147.Emscripten.clang"
  },
  "schemaVersion": "3.0.0",
  "updatedAt": "2019-01-24T18:27:00.823Z",
  "devdoc": {
    "methods": {},
    "title": "UProxy"
  },
  "userdoc": {
    "methods": {}
  }
}